:100000000C9462000C948A000C948A000C948A0070
:100010000C948A000C948A000C948A000C948A0038
:100020000C948A000C948A000C948A000C948A0028
:100030000C948A000C948A000C948A000C948A0018
:100040000C94ED030C948A000C948A000C948A00A2
:100050000C948A000C948A000C948A000C948A00F8
:100060000C948A000C948A000000000024002700F1
:100070002A0000000000250028002B0000000000DE
:1000800023002600290004040404040404040202DA
:100090000202020203030303030301020408102007
:1000A0004080010204081020010204081020000012
:1000B0000007000201000003040600000000000029
:1000C0000000680311241FBECFEFD8E0DEBFCDBF14
:1000D00011E0A0E0B1E0EEE9FBE002C005900D9276
:1000E000AE31B107D9F711E0AEE1B1E001C01D9228
:1000F000A135B107E1F710E0C4ECD0E004C02297CD
:10010000FE010E94C905C23CD107C9F70E94E6035F
:100110000C94CD050C940000FC0160834183128295
:100120001382148215820895AF92BF92DF92EF92EC
:10013000FF920F931F93CF93DF93EC01B62E8A812A
:100140009B81AC81BD810097A105B10581F1EE8055
:10015000FF808DEF9FEFE80EF91E898160E00E941D
:10016000C704C7010E945F04DD24D39400E010E0BF
:10017000AB2CBB248D2D90E08A219B21892B19F07B
:10018000898161E002C0898160E00E94C704C701E3
:100190000E945F04DD0C0F5F1F4F0830110551F7FF
:1001A000898161E00E94C704C7010E945F04DF915A
:1001B000CF911F910F91FF90EF90DF90BF90AF9084
:1001C00008952F923F924F925F926F927F928F92FB
:1001D0009F92AF92BF92CF92DF92EF92FF920F93D6
:1001E0001F93DF93CF93CDB7DEB7A0970FB6F894E8
:1001F000DEBF0FBECDBF1C016A017B014115510559
:100200006105710521F460E30E9494004FC08824C9
:1002100099245401422E55246624772401E010E0ED
:100220000C0F1D1F080D191DC701B601A301920176
:100230000E947605F80160830894811C911CA11C22
:10024000B11CC701B601A30192010E947605C90144
:10025000DA016C017D01C114D104E104F104F1F66D
:1002600081E0E82EF12CEC0EFD1EE80CF91C3E019D
:100270000894611C711CD501C4010197A109B10941
:100280006C01C818D9080FC0F601EE0DFF1D608182
:100290006A3010F4605D01C0695CC1010E94940085
:1002A0000894E108F1086E147F0471F7A0960FB668
:1002B000F894DEBF0FBECDBFCF91DF911F910F919C
:1002C000FF90EF90DF90CF90BF90AF909F908F9076
:1002D0007F906F905F904F903F902F900895EF9296
:1002E000FF920F931F93CF93DF93EC017A018B0161
:1002F00077FF0BC06DE20E94940010950095F0947A
:10030000E094E11CF11C011D111DCE01B801A701F3
:100310002AE00E94E100DF91CF911F910F91FF90A1
:10032000EF900895AB01662757FD6095762F0E94E8
:100330006F0108952115310521F4642F0E94940066
:1003400008952A30310519F40E946F0108950E9422
:10035000E10008950F931F93CF93DF938C01EB017E
:1003600004C02196C8010E94940068816623C9F7E1
:10037000DF91CF911F910F9108950F931F938C01DF
:100380009A01AB01FC01228333834483558360E4EB
:1003900072E48FE090E00E949805F801378326838D
:1003A000818161E00E94C704F801868197810E94E3
:1003B0005F041F910F910895CF92DF92EF92FF9209
:1003C0000F931F937C018B016A014EEF50E060E0B8
:1003D00070E020E030E00E949A01F70164857585A5
:1003E000882777FD8095982F0E943504F701828534
:1003F0009385C81AD90A20E830E0C20ED31E081B24
:10040000190B035F1F4F000F111F0E0D1F1DF80169
:10041000408151814C0D5D1D662757FD6095762FFB
:10042000C70120E030E00E949A01F70164857585DC
:10043000882777FD8095982F0E9435041F910F9192
:10044000FF90EF90DF90CF900895EF92FF920F937F
:100450001F938C0179010E94DC01C801B7010E9441
:1004600092011F910F91FF90EF900895EF92FF92EC
:100470000F931F938C0179010E94DC01C801B70121
:100480000E94AA011F910F91FF90EF9008950F9382
:100490001F93CF93DF93EC018E899F89861797076F
:1004A00009F440C077FF02C060E070E08B01653660
:1004B000710514F004E610E0CE014CE750E060E076
:1004C00070E020E030E00E949A016C857D858827ED
:1004D00077FD8095982F0E9435049801220F331FD5
:1004E000C80145E0880F991F4A95E1F7821B930BDD
:1004F00064E670E00E946305AB0140585F4F6627D9
:1005000057FD6095762FCE0120E030E00E949A01E1
:100510006C857D85882777FD8095982F0E9435040E
:100520001F8B0E8BDF91CF911F910F9108950F9329
:100530001F938C014EEF50E060E070E020E030E06F
:100540000E949A01F80164857585882777FD80955A
:10055000982F0E943504C8014CE050E060E070E044
:1005600020E030E00E949A01F801648575858827B3
:1005700077FD8095982F0E9435041F910F91089563
:100580000F931F938C014EEF50E060E070E020E08D
:1005900030E00E949A01F80164857585882777FD0F
:1005A0008095982F0E943504C80141E050E060E03A
:1005B00070E020E030E00E949A01F8012485358542
:1005C000B901F3E0660F771FFA95E1F7220F331FA9
:1005D000620F731F882777FD8095982F0E9435043E
:1005E0001F910F910895EF92FF921F93CF93DF9386
:1005F000EC017B01142F888561E00E94A7046C85C3
:100600007D85882777FD8095982F0E943504CE013F
:1006100040E855E260E070E00E94BD016C857D8598
:10062000882777FD8095982F0E943504112319F0B3
:10063000CE010E94C002CE01B7010E944702CE0146
:100640000E949702DF91CF911F91FF90EF90089544
:100650008F929F92AF92BF92CF92DF92EF92FF92D2
:100660000F931F937C01B62EA72E4A0169014B2DD3
:100670000E948C00F701B086A1861387028784E070
:1006800090E09587848797868686D18AC08A81E0A4
:1006900090E0938B828B958B848B84E690E0978B94
:1006A000868B138E128E80E490E0958F848FD78E88
:1006B000C68EC80ED91ED1A2C0A21F910F91FF9065
:1006C000EF90DF90CF90BF90AF909F908F90089564
:1006D0000F931F938EE191E063E070E042E050E001
:1006E00020E130E001E010E00E9428031F910F910B
:1006F000089582E00E9414059C0190934701809325
:100700004601809144019091450128173907E9F18C
:100710002130310521F580914201909143010196EC
:1007200090934301809342018DE061E00E94C704F1
:100730008EE191E061E070E041E050E020E031E0E6
:100740000E94360220914201309143018EE191E0F6
:1007500062E070E041E050E00E9425020EC08DE0B2
:1007600060E00E94C7048EE191E061E070E041E04A
:1007700050E02DE031E00E943602809146019091D8
:100780004701909345018093440108950F931F936F
:100790000EE111E0C80164E670E041E00E94F3025E
:1007A00068EE73E080E090E00E943504C80162E3E7
:1007B00070E00E9447028DE061E00E94A70482E0A1
:1007C00060E00E94A7041F910F9108950E946D049C
:1007D0000E94C6030E947903FDCF1F920F920FB6AD
:1007E0000F9211242F933F938F939F93AF93BF93B7
:1007F00080914C0190914D01A0914E01B0914F011B
:10080000309150010196A11DB11D232F2D5F2D3771
:1008100020F02D570196A11DB11D2093500180930A
:100820004C0190934D01A0934E01B0934F018091E4
:10083000480190914901A0914A01B0914B01019664
:10084000A11DB11D8093480190934901A0934A01D5
:10085000B0934B01BF91AF919F918F913F912F9199
:100860000F900FBE0F901F901895EF92FF920F936D
:100870001F937B018C018FB7F89440914C015091EC
:100880004D0160914E0170914F018FBF2FB7F894C9
:1008900080914C0190914D01A0914E01B0914F017A
:1008A0002FBF841B950BA60BB70BE816F9060A079A
:1008B0001B0760F71F910F91FF90EF90089501972C
:1008C00059F0FC01EE0FFF1FEE0FFF1F32978FB79D
:1008D000F8943197F1F78FBF0895789484B58260CA
:1008E00084BD84B5816084BD85B5826085BD85B5D4
:1008F000816085BDEEE6F0E0808181608083E1E883
:10090000F0E0808182608083808181608083E0E884
:10091000F0E0808181608083E1EBF0E080818460A1
:100920008083E0EBF0E0808181608083EAE7F0E0A3
:100930008081846080838081826080838081816007
:1009400080838081806880831092C1000895282F61
:1009500030E0C90186569F4FFC0194912A573F4FC2
:10096000F9018491882391F0E82FF0E0EE0FFF1F4A
:10097000E859FF4FA591B491662329F48C91909585
:1009800089238C9308958C91892B8C930895482FFB
:1009900050E0CA0182559F4FFC012491CA0186563E
:1009A0009F4FFC0194914A575F4FFA0134913323D2
:1009B000D1F1222331F1233021F4809180008F770F
:1009C00005C0243031F4809180008F7D80938000B9
:1009D00018C0213019F484B58F7704C0223021F477
:1009E00084B58F7D84BD0DC0263021F48091B00088
:1009F0008F7705C0273029F48091B0008F7D8093D8
:100A0000B000E32FF0E0EE0FFF1FEE58FF4FA5916F
:100A1000B491662329F48C91909589238C93089541
:100A20008C91892B8C930895682F70E0CB018255AF
:100A30009F4FFC012491CB0186569F4FFC014491AE
:100A40006A577F4FFB019491992319F420E030E01D
:100A500038C0222331F1233021F4809180008F7738
:100A600005C0243031F4809180008F7D8093800018
:100A700018C0213019F484B58F7704C0223021F4D6
:100A800084B58F7D84BD0DC0263021F48091B000E7
:100A90008F7705C0273029F48091B0008F7D809337
:100AA000B000892F90E0880F991F84589F4FFC0158
:100AB000A591B4918C9120E030E0842311F021E0E5
:100AC00030E0C901089597FB092E07260AD077FD6B
:100AD00004D049D006D000201AF4709561957F4F5C
:100AE0000895F6F7909581959F4F0895A1E21A2EEB
:100AF000AA1BBB1BFD010DC0AA1FBB1FEE1FFF1FC2
:100B0000A217B307E407F50720F0A21BB30BE40B11
:100B1000F50B661F771F881F991F1A9469F7609558
:100B20007095809590959B01AC01BD01CF01089512
:100B300097FB092E05260ED057FD04D0D7DF0AD02B
:100B4000001C38F450954095309521953F4F4F4FFC
:100B50005F4F0895F6F790958095709561957F4F5A
:100B60008F4F9F4F0895AA1BBB1B51E107C0AA1FBF
:100B7000BB1FA617B70710F0A61BB70B881F991F3E
:100B80005A95A9F780959095BC01CD010895EE0F77
:0E0B9000FF1F0590F491E02D0994F894FFCF1B
:100B9E004C69676874206973206F6E2E004C69670C
:0E0BAE00687473206F75742E202020202000A4
:00000001FF
