:100000000C9436000C945E000C945E000C945E0020
:100010000C945E000C945E000C945E000C945E00E8
:100020000C945E000C945E000C945E000C945E00D8
:100030000C945E000C945E000C945E000C945E00C8
:100040000C94E0040C945E000C9462050C945E0029
:100050000C945E000C945E000C945E000C945E00A8
:100060000C94B1020C945E00A801AB0611241FBED3
:10007000CFEFD8E0DEBFCDBF11E0A0E0B1E0EAE510
:10008000F1E102C005900D92AC33B107D9F711E050
:10009000ACE3B1E001C01D92AD3FB107E1F710E064
:1000A000CCE6D0E004C02297FE010E94A708C83623
:1000B000D107C9F70E94D9040C94AB080C94000036
:1000C0000F931F93CF93DF93689F8001699F100D5B
:1000D000789F100D1124C8010E947C00EC0100974C
:1000E00029F060E070E0A8010E947E01CE01DF915E
:1000F000CF911F910F910895CF93DF93BC01823070
:10010000910510F462E070E0A091FB01B091FC0158
:10011000ED01E0E0F0E040E050E021C0888199810D
:100120008617970769F48A819B81309719F093832A
:10013000828304C09093FC018093FB01FE0134C0D4
:100140006817790738F44115510519F08417950798
:1001500008F4AC01FE018A819B819C01E901209792
:10016000E9F641155105A9F1CA01861B970B0497C1
:1001700008F4BA01E0E0F0E02AC08D919C9111975B
:1001800084179507F9F46417750781F412968D9119
:100190009C911397309719F09383828304C09093B6
:1001A000FC018093FB01FD0132964CC0CA01861B05
:1001B000970BFD01E80FF91F6193719302978D93DF
:1001C0009C9340C0FD01828193819C01D9011097CD
:1001D000A1F68091F9019091FA01892B41F4809167
:1001E0002C0190912D019093FA018093F901409197
:1001F0002E0150912F014115510541F44DB75EB7C5
:1002000080912A0190912B01481B590B2091F901F3
:100210003091FA01CA01821B930B8617970780F071
:10022000AB014E5F5F4F8417950750F0420F531F8D
:100230005093FA014093F901F9016193719302C05F
:10024000E0E0F0E0CF01DF91CF910895CF93DF930D
:10025000009709F450C0EC0122971B821A82A091EA
:10026000FB01B091FC01109709F140E050E0AC17A0
:10027000BD0708F1BB83AA83FE0121913191E20FF2
:10028000F31FAE17BF0779F48D919C911197280F3A
:10029000391F2E5F3F4F3983288312968D919C9191
:1002A00013979B838A834115510571F4D093FC0108
:1002B000C093FB0120C012968D919C911397AD01C4
:1002C000009711F0DC01D3CFFA01D383C2832191CF
:1002D0003191E20FF31FCE17DF0769F4888199810E
:1002E000280F391F2E5F3F4FFA01318320838A8107
:1002F0009B8193838283DF91CF910895DC0101C0BC
:100300006D9341505040E0F7089581E0809345019E
:10031000609340011092430110924401089580912E
:100320003F0190913E01891B089590913E0180917B
:100330003F01981710F080E00895E0913C01F091A2
:100340003D01E90FF11D80819F5F90933E0108956B
:100350000895DF93CF930F92CDB7DEB76983809175
:1003600045018823A9F0809144018032B0F4809146
:100370004301E0914101F0914201E80FF11D6083DA
:10038000809143018F5F809343018093440105C0B6
:10039000CE01019661E00E9494020F90CF91DF910F
:1003A00008950E94A9010895609141017091420150
:1003B000809140014091440121E00E944F0210923F
:1003C000430110924401109245010895862F6091D7
:1003D0003C0170913D01413208F040E20E94170259
:1003E00010923E0180933F0108950E94E601089516
:1003F00080E290E061E070E00E94600080933C0148
:1004000090933D0110923E0110923F0180E290E0F6
:1004100061E070E00E94600080934101909342018E
:1004200010924301109244010E9433040895982FC2
:10043000413210F040E031C0809147018823E1F75C
:1004400081E0809347018FEF8093580110924F0114
:100450004150409350014F5F990F91609093480134
:1004600085EE8093BC00809147018130E1F380915B
:100470004F01841710F440914F01A0914D01B091AC
:100480004E0120E030E007C0FB01E20FF31F8D9129
:1004900080832F5F3F4F2417B8F3842F08951F9355
:1004A000582F122F413210F081E03CC0809147015B
:1004B0008823E1F782E0809347018FEF8093580112
:1004C00010924F0140935001A0914D01B0914E0107
:1004D000FB0102C081918D938E2F861B8417D0F370
:1004E000852F90E0880F991F8093480185EE8093B7
:1004F000BC00112321F0809147018230E1F380910B
:1005000058018F3F11F480E00DC080915801803276
:1005100011F482E007C080915801803311F084E02B
:1005200001C083E01F910895482F613210F081E0EF
:10053000089580914701843011F082E0089560931E
:100540005401A0915101B0915201842F9C01F901F5
:1005500002C081918D938E2F841B8617D0F380E08B
:1005600008951F920F920FB60F9211242F933F936D
:100570004F935F936F937F938F939F93AF93BF93AB
:10058000EF93FF938091B90090E0887F9070803660
:10059000910509F4E2C081369105CCF588329105C8
:1005A00009F47BC089329105B4F48031910509F4D6
:1005B0006FC0813191053CF4009709F438C1089768
:1005C00009F040C165C08831910509F466C0809783
:1005D00009F038C17FC08034910509F4A3C081348B
:1005E000910544F48033910509F47FC0C89709F060
:1005F00029C186C08035910509F486C088359105EA
:1006000009F495C08834910509F01CC19EC0883951
:10061000910509F404C189399105ECF488379105F5
:1006200009F49BC0893791054CF48836910509F48B
:1006300094C08037910509F005C18FC088389105B5
:1006400009F4EDC08039910509F48DC08038910519
:1006500009F0F8C088C0803B910509F4B2C0813B25
:1006600091054CF4803A910509F491C0883A9105BE
:1006700009F0E8C0A6C0803C910509F4D4C0883CCC
:10068000910509F4D0C0883B910509F0DBC0B1C0E9
:10069000809148018093BB00C0C090914F01809130
:1006A0005001981778F490914F01E0914D01F0912D
:1006B0004E01E90FF11D80818093BB009F5F9093F5
:1006C0004F01ABC085ED8093BC008091BC0084FDE0
:1006D000FCCFB6C080E28093580185ED8093BC00CA
:1006E0008091BC0084FDFCCFABC080E380935801B7
:1006F00085ED8093BC008091BC0084FDFCCFA0C040
:1007000088E3809358018FC080914F019091BB0086
:10071000E0914D01F0914E01E80FF11D90838F5F44
:1007200080934F0190914F018091500174C080914E
:100730004F019091BB00E0914D01F0914E01E80F07
:10074000F11D90838F5F80934F0185ED8093BC00F6
:100750008091BC0084FDFCCF73C083E0809347018F
:10076000109257015AC080915701803208F057C04B
:10077000809157019091BB00E0915501F091560195
:10078000E80FF11D90838F5F8093570146C08091E1
:100790005701803248F480915701E0915501F09162
:1007A0005601E80FF11D108260915701E0914B0155
:1007B000F0914C01809155019091560170E009959E
:1007C00032C084E08093470110925301109254018B
:1007D000E0914901F0914A010995809154018823E3
:1007E00041F481E080935401E0915101F091520174
:1007F000108290915301E0915101F0915201E90F63
:10080000F11D80818093BB009F5F90935301909175
:10081000530180915401981710F485EC01C085E8CC
:100820008093BC000FC085EC8093BC0009C010927F
:10083000580185ED8093BC008091BC0084FDFCCF05
:1008400010924701FF91EF91BF91AF919F918F91CE
:100850007F916F915F914F913F912F910F900FBEBC
:100860000F901F90189510924701449A459AE9EB12
:10087000F0E080818E7F808380818D7F808388E41B
:100880008093B80085E48093BC0080E290E061E052
:1008900070E00E94600080934D0190934E0180E2D1
:1008A00090E061E070E00E946000809351019093BD
:1008B000520180E290E061E070E00E94600080936D
:1008C000550190935601089586EE91E040E855E277
:1008D00060E070E00E949F0586E491E00E94F801CC
:1008E0000895EF92FF920F931F937C018B0186E492
:1008F00091E0B7010E94850186E491E0612F70E0EC
:100900000E94D101107086E491E0B8010E94D101EB
:1009100086E491E00E94D40186E491E0B70141E0D1
:1009200050E00E94F50186E491E00E948F01882347
:1009300011F48FEF04C086E491E00E9495011F91AD
:100940000F91FF90EF900895FF920F931F93609186
:1009500030017091310180E590E00E947104F82E21
:1009600006EE11E0C8016F2D70E00E940A08C80170
:1009700060E071E00E941C076091300170913101CC
:10098000C8010E941208C80167E171E00E941C07BB
:10099000C8016F2D0E943B07809130019091310179
:1009A000019690933101809330011F910F91FF9038
:1009B00008950E9428050E9464040E94A404FDCFAB
:1009C0001F920F920FB60F9211242F933F938F9384
:1009D0009F93AF93BF9380915D0190915E01A09131
:1009E0005F01B0916001309161010196A11DB11DBF
:1009F000232F2D5F2D3720F02D570196A11DB11DFE
:100A00002093610180935D0190935E01A0935F014B
:100A1000B09360018091590190915A01A0915B01BE
:100A2000B0915C010196A11DB11D80935901909375
:100A30005A01A0935B01B0935C01BF91AF919F916C
:100A40008F913F912F910F900FBE0F901F9018958F
:100A5000789484B5826084BD84B5816084BD85B599
:100A6000826085BD85B5816085BDEEE6F0E0808160
:100A700081608083E1E8F0E0808182608083808112
:100A800081608083E0E8F0E0808181608083E1EB39
:100A9000F0E0808184608083E0EBF0E08081816021
:100AA0008083EAE7F0E080818460808380818260D7
:100AB00080838081816080838081806880831092C0
:100AC000C10008951F920F920FB60F9211242F9319
:100AD0003F934F935F936F937F938F939F93AF93C6
:100AE000BF93EF93FF934091C600E091E201F09134
:100AF000E301CF01019660E870E00E9441089C018B
:100B00008091E4019091E5012817390739F0EE59F9
:100B1000FE4F40833093E3012093E201FF91EF9178
:100B2000BF91AF919F918F917F916F915F914F9105
:100B30003F912F910F900FBE0F901F9018955F92CD
:100B40006F927F928F929F92AF92BF92CF92DF92DD
:100B5000EF92FF920F931F93CF93DF93EC013A0133
:100B60004B01413482E458078FE0680780E0780742
:100B70000CF07FC060E874E88EE190E0A40193017E
:100B80000E9476082150304040405040CA01B901CF
:100B900022E030E040E050E00E94760859016A010E
:100BA000A6019501209530954095509594E0220F2F
:100BB000331F441F551F9A95D1F760E074E284EF0C
:100BC00090E00E947608CA01B9012FEF30E040E0C2
:100BD00050E00E942208A40193010E947608C901F6
:100BE00081509F4F181619061CF4522E5A9403C0B8
:100BF00055245394521A60E079E08DE390E0A4010B
:100C000093010E9476082150304040405040CA0174
:100C1000B90122E030E040E050E00E9476082095E3
:100C200030954095509583E0220F331F441F551F88
:100C30008A95D1F760E074E284EF90E00E94760834
:100C4000CA01B9012FEF30E040E050E00E942208D5
:100C5000A40193010E947608C90181509F4F181684
:100C600019061CF4822F815002C081E0821B851579
:100C700000F5E885F98581E090E00A8802C0880FD8
:100C8000991F0A94E2F7808360E079E08DE390E0B9
:100C9000A40193010E94760821503040404050400A
:100CA000CA01B90122E030E040E050E00E9476083D
:100CB00004C0E885F98510829501EC81FD813083BF
:100CC000EE81FF812083EA85FB85208141E050E0B1
:100CD000CA010E8402C0880F991F0A94E2F7282BDC
:100CE0002083EA85FB852081CA010F8402C0880F1A
:100CF000991F0A94E2F7282B2083EA85FB858081DF
:100D0000088802C0440F551F0A94E2F7842B8083A1
:100D1000DF91CF911F910F91FF90EF90DF90CF90D7
:100D2000BF90AF909F908F907F906F905F9008954D
:100D3000FC01A085B18521898C9190E0022E02C032
:100D4000959587950A94E2F780FFF6CF0484F585A0
:100D5000E02D6083089586E391E09093E70180930E
:100D6000E60182E691E09093E9018093E80185EC49
:100D700090E09093EB018093EA0184EC90E09093F3
:100D8000ED018093EC0180EC90E09093EF01809373
:100D9000EE0181EC90E09093F1018093F00186ECFC
:100DA00090E09093F3018093F20184E08093F4014A
:100DB00083E08093F50187E08093F60185E08093DE
:100DC000F70181E08093F80108950F931F93CF936B
:100DD000DF938C01EB0109C02196D801ED91FC91C4
:100DE0000190F081E02DC801099568816623A1F783
:100DF000DF91CF911F910F910895EF92FF920F9382
:100E00001F93CF93DF938C017B01EA010CC0D701C4
:100E10006D917D01D801ED91FC910190F081E02D63
:100E2000C80109952197209791F7DF91CF911F91E4
:100E30000F91FF90EF900895DC01ED91FC910280FD
:100E4000F381E02D099508950F931F938C01DC0128
:100E5000ED91FC910190F081E02D6DE00995D801B4
:100E6000ED91FC910190F081E02DC8016AE00995B7
:100E70001F910F9108950F931F938C01DC01ED9149
:100E8000FC910190F081E02D0995C8010E94240792
:100E90001F910F9108952F923F924F925F926F9200
:100EA0007F928F929F92AF92BF92CF92DF92EF92FA
:100EB000FF920F931F93DF93CF93CDB7DEB7A09729
:100EC0000FB6F894DEBF0FBECDBF1C016A017B01D7
:100ED000411551056105710549F4DC01ED91FC9165
:100EE0000190F081E02D60E3099554C08824992495
:100EF0005401422E55246624772401E010E00C0FA3
:100F00001D1F080D191DC701B601A30192010E9402
:100F10005408F80160830894811C911CA11CB11C29
:100F2000C701B601A30192010E945408C901DA0168
:100F30006C017D01C114D104E104F104F1F681E0FA
:100F4000E82EF12CEC0EFD1EE80CF91C3E01089475
:100F5000611C711CD501C4010197A109B1096C0183
:100F6000C818D90814C0F601EE0DFF1D60816A3063
:100F700010F4605D01C0695CD101ED91FC910190BC
:100F8000F081E02DC10109950894E108F1086E1483
:100F90007F0449F7A0960FB6F894DEBF0FBECDBF11
:100FA000CF91DF911F910F91FF90EF90DF90CF9045
:100FB000BF90AF909F908F907F906F905F904F9079
:100FC0003F902F900895EF92FF920F931F93CF932E
:100FD000DF93EC017A018B0177FF0FC0E881F98183
:100FE0000190F081E02D6DE2099510950095F09447
:100FF000E094E11CF11C011D111DCE01B801A701F7
:101000002AE00E944B07DF91CF911F910F91FF9033
:10101000EF900895AB01662757FD6095762F0E94EB
:10102000E30708950F931F938C01AB01662757FDCB
:101030006095762F0E94E307C8010E9424071F9144
:101040000F910895629FD001739FF001829FE00D80
:10105000F11D649FE00DF11D929FF00D839FF00D37
:10106000749FF00D659FF00D9927729FB00DE11DE3
:10107000F91F639FB00DE11DF91FBD01CF011124C0
:10108000089597FB092E07260AD077FD04D049D092
:1010900006D000201AF4709561957F4F0895F6F7F9
:1010A000909581959F4F0895A1E21A2EAA1BBB1B14
:1010B000FD010DC0AA1FBB1FEE1FFF1FA217B30724
:1010C000E407F50720F0A21BB30BE40BF50B661F3A
:1010D000771F881F991F1A9469F7609570958095FE
:1010E00090959B01AC01BD01CF01089597FB092E9E
:1010F00005260ED057FD04D0D7DF0AD0001C38F4E7
:1011000050954095309521953F4F4F4F5F4F089533
:10111000F6F790958095709561957F4F8F4F9F4F13
:101120000895AA1BBB1B51E107C0AA1FBB1FA6172E
:10113000B70710F0A61BB70B881F991F5A95A9F780
:1011400080959095BC01CD010895EE0FFF1F05908D
:0A115000F491E02D0994F894FFCF0C
:10115A002064656772656573204620617420616446
:10116A00647265737320004F722C20746865206363
:10117A00686172616374657220002000FD010000DD
:0C118A000100000000009806E506FD06CC
:00000001FF
