:100000000C9463000C948B000C948B000C949A035A
:100010000C9468030C9439030C948B000C948B00A3
:100020000C948B000C948B000C948B000C948B0024
:100030000C948B000C948B000C948B000C948B0014
:100040000C94440D0C948B000C94BA0E0C948B0001
:100050000C948B000C948B000C948B000C948B00F4
:100060000C948B000C948B000000000024002700EF
:100070002A0000000000250028002B0000000000DE
:1000800023002600290004040404040404040202DA
:100090000202020203030303030301020408102007
:1000A0004080010204081020010204081020000012
:1000B0000007000201000003040600000000000029
:1000C0000000A806031011241FBECFEFD8E0DEBF4A
:1000D000CDBF12E0A0E0B1E0E0E5F9E202C005909A
:1000E0000D92AA30B107D9F713E0AAE0B2E001C03F
:1000F0001D92A83BB107E1F710E0C6ECD0E004C0C8
:100100002297FE010E94A214C23CD107C9F70E94A7
:100110003D0D0C94A6140C940000FC0181918617EF
:1001200021F08823D9F7992708953197CF010895B1
:10013000FB01DC014150504030F08D91019080195D
:1001400019F40020B9F7881B990B0895FC01168259
:10015000403488E3580780E0680780E0780709F4B6
:1001600095C0413488E3580780E0680780E078074D
:10017000BCF5403689E0580780E0680780E07807E2
:1001800009F48DC0413689E0580780E0680780E0B7
:1001900078079CF44C3281E0580780E0680780E0E3
:1001A000780709F482C0403B84E0580780E0680784
:1001B00080E0780709F07CC075C0403C82E15807B8
:1001C00080E0680780E0780709F466C0403885E27F
:1001D000580780E0680780E0780709F069C059C0D7
:1001E00042318AE7580780E0680780E0780709F421
:1001F00042C043318AE7580780E0680780E078070B
:1002000094F440308BE4580780E0680780E078077A
:10021000D1F1403880E7580780E0680780E0780730
:1002200009F046C02BC0403081EE580780E06807D7
:1002300080E07807A1F0403082EC580781E0680741
:1002400080E0780749F0403086E9580780E0680789
:1002500080E0780769F50AC088E090E004C08DEF7F
:1002600086838FE190E09583848324C08DEF86831D
:1002700083E390E0F8CF8EE390E0F5CF8CEF8683B8
:1002800086E490E0F0CF8CE690E0EDCF88E990E056
:10029000EACF82EE90E0E7CF80ED91E0E4CF8CEA08
:1002A00093E0E1CF8CE497E0DECF8CE09DE1DBCF03
:1002B00015821482A481B581109709F451C0415070
:1002C000514E604070400CF04BC03281383090F499
:1002D0008091680084608093680020916D0081E0C7
:1002E00090E002C0880F991F3A95E2F7282B2093DF
:1002F0006D002FC03E30B0F4809168008160809323
:10030000680040916B00232F30E02850304081E09E
:1003100090E002C0880F991F2A95E2F7482B40937E
:100320006B0017C03631A8F480916800826080931A
:10033000680040916C00232F30E02E50304081E067
:1003400090E002C0880F991F2A95E2F7482B40934E
:100350006C00CD0120E001972FEF8F3F9207D9F776
:1003600080910A0290910B028E179F0771F01782FD
:100370009FB7F89410924C0280914C0280934D02EA
:10038000F0930B02E0930A029FBF0895FC01809155
:100390000A0290910B028E179F0779F017829FB780
:1003A000F89410924C0280914C0280934D02F0938D
:1003B0000B02E0930A029FBF06C090914D0280910C
:1003C0004C02981719F42FEF3FEF0FC0E0914D0248
:1003D000F0E0E45FFD4F208180914D0290E00196B6
:1003E0008F73907080934D0230E0C9010895BF92E1
:1003F000CF92DF92EF92FF920F931F93CF93DF93F1
:10040000EC01E62E8C819D81892B09F464C08091DA
:100410000A0290910B028C179D0771F01F829FB703
:10042000F89410924C0280914C0280934D02D0932C
:100430000B02C0930A029FBFBFB6F8948B8160E0A5
:100440000E941E0E8E81992787FD90952C813D81FB
:10045000820F931F20E001972FEF8F3F9207D9F76C
:10046000FF24F39400E010E0CE2CDD248F2D90E0EB
:100470008C219D21892B19F08B8161E002C08B8139
:1004800060E00E941E0E8E81992787FD90952C8139
:100490003D81820F931FEE242E2D01972FEF8F3F6A
:1004A0009207D9F7FF0C0F5F1F4F08301105F1F6C7
:1004B0008B8161E00E941E0EBFBE8E81992787FD51
:1004C00090952C813D81820F931F2E2D01972FEF48
:1004D0008F3F9207D9F7DF91CF911F910F91FF9036
:1004E000EF90DF90CF90BF9008950F931F938C01F2
:1004F000862FF801628360E00E94FE0DF801828180
:1005000061E00E941E0E1F910F9108950F931F939B
:100510008C01862FF801638361E00E94FE0DF801D3
:10052000838161E00E941E0E1F910F910895FF923A
:100530000F931F938C01F62E8AEF91E0F8019183BF
:1005400080831582148216821782C801642F0E944C
:100550008602C8016F2D0E9475021F910F91FF90B6
:100560000895CF92DF92EF92FF920F931F93CF9354
:10057000DF938C012F933F934F935F936F937F9300
:10058000AF93BF93FC0182810E946B0E892B09F00F
:100590005FC0F8018481958196958795089720E042
:1005A00001972FEF8F3F9207D9F7FF24C0E0D0E0EB
:1005B000EE2481E0C82ED12CF80184819581069724
:1005C0002E2D01972FEF8F3F9207D9F782810E943E
:1005D0006B0E892B49F0C6010C2E02C0880F991FA3
:1005E0000A94E2F7F82A09C0C6010C2E02C0880F4F
:1005F000991F0A94E2F78095F8222196C830D10518
:10060000D9F6F8018481958120E001972FEF8F3F83
:100610009207D9F780914C0220914D0290E001960B
:100620008F73907030E08217930779F0E0914C025D
:10063000F0E0E45FFD4FF08280914C0290E0019683
:100640008F73907080934C0203C081E0F801878320
:10065000BF91AF917F916F915F914F913F912F919A
:10066000DF91CF911F910F91FF90EF90DF90CF908E
:1006700008951F920F920FB60F9211242F933F935C
:100680004F935F936F937F938F939F93AF93BF939A
:10069000EF93FF93E0910A02F0910B02309739F04B
:1006A000828190E008971CF4CF010E94B102FF9173
:1006B000EF91BF91AF919F918F917F916F915F91DA
:1006C0004F913F912F910F900FBE0F901F90189553
:1006D0001F920F920FB60F9211242F933F934F93B7
:1006E0005F936F937F938F939F93AF93BF93EF939A
:1006F000FF93E0910A02F0910B02309751F0828152
:1007000090E08E3091052CF046971CF4CF010E94AA
:10071000B102FF91EF91BF91AF919F918F917F9126
:100720006F915F914F913F912F910F900FBE0F905E
:100730001F9018951F920F920FB60F9211242F93AE
:100740003F934F935F936F937F938F939F93AF9359
:10075000BF93EF93FF93E0910A02F0910B02309761
:1007600051F0828190E0883091052CF00E971CF4B6
:10077000CF010E94B102FF91EF91BF91AF919F9184
:100780008F917F916F915F914F913F912F910F903A
:100790000FBE0F901F901895FC0160834183128259
:1007A0001382148215820895AF92BF92DF92EF9266
:1007B000FF920F931F93CF93DF93EC01B62E8A81A4
:1007C0009B81AC81BD810097A105B10581F1EE80CF
:1007D000FF808DEF9FEFE80EF91E898160E00E9497
:1007E0001E0EC7010E94B60DDD24D39400E010E078
:1007F000AB2CBB248D2D90E08A219B21892B19F0F5
:10080000898161E002C0898160E00E941E0EC701FB
:100810000E94B60DDD0C0F5F1F4F0830110551F718
:10082000898161E00E941E0EC7010E94B60DDF9112
:10083000CF911F910F91FF90EF90DF90BF90AF90FD
:1008400008952F923F924F925F926F927F928F9274
:100850009F92AF92BF92CF92DF92EF92FF920F934F
:100860001F93DF93CF93CDB7DEB7A0970FB6F89461
:10087000DEBF0FBECDBF1C016A017B0141155105D2
:100880006105710521F460E30E94D4034FC0882400
:1008900099245401422E55246624772401E010E067
:1008A0000C0F1D1F080D191DC701B601A3019201F0
:1008B0000E944F14F80160830894811C911CA11CB4
:1008C000B11CC701B601A30192010E944F14C901D6
:1008D000DA016C017D01C114D104E104F104F1F6E7
:1008E00081E0E82EF12CEC0EFD1EE80CF91C3E0117
:1008F0000894611C711CD501C4010197A109B109BB
:100900006C01C818D9080FC0F601EE0DFF1D6081FB
:100910006A3010F4605D01C0695CC1010E94D403BB
:100920000894E108F1086E147F0471F7A0960FB6E1
:10093000F894DEBF0FBECDBFCF91DF911F910F9115
:10094000FF90EF90DF90CF90BF90AF909F908F90EF
:100950007F906F905F904F903F902F900895EF920F
:10096000FF920F931F93CF93DF93EC017A018B01DA
:1009700077FF0BC06DE20E94D40310950095F094B0
:10098000E094E11CF11C011D111DCE01B801A7016D
:100990002AE00E942104DF91CF911F910F91FF90D7
:1009A000EF900895AB01662757FD6095762F0E9462
:1009B000AF0408952115310521F4642F0E94D4035A
:1009C00008952A30310519F40E94AF0408950E9459
:1009D000210408950F931F93CF93DF938C01EB01B4
:1009E00004C02196C8010E94D40368816623C9F718
:1009F000DF91CF911F910F9108950F931F938C0159
:100A00009A01AB01FC01228333834483558360E464
:100A100072E48FE090E00E947114F801378326831E
:100A2000818161E00E941E0EF801868197810E94FB
:100A3000B60D1F910F910895CF92DF92EF92FF9222
:100A40000F931F937C018B016A014EEF50E060E031
:100A500070E020E030E00E94DA04F70164857585DB
:100A6000882777FD8095982F0E948C0DF70182854D
:100A70009385C81AD90A20E830E0C20ED31E081B9D
:100A8000190B035F1F4F000F111F0E0D1F1DF801E3
:100A9000408151814C0D5D1D662757FD6095762F75
:100AA000C70120E030E00E94DA04F7016485758513
:100AB000882777FD8095982F0E948C0D1F910F91AC
:100AC000FF90EF90DF90CF900895EF92FF920F93F9
:100AD0001F938C0179010E941C05C801B7010E9477
:100AE000D2041F910F91FF90EF900895EF92FF9223
:100AF0000F931F938C0179010E941C05C801B70157
:100B00000E94EA041F910F91FF90EF9008950F93B8
:100B10001F93CF93DF93EC018E899F8986179707E8
:100B200009F440C077FF02C060E070E08B016536D9
:100B3000710514F004E610E0CE014CE750E060E0EF
:100B400070E020E030E00E94DA046C857D85882723
:100B500077FD8095982F0E948C0D9801220F331FEE
:100B6000C80145E0880F991F4A95E1F7821B930B56
:100B700064E670E00E943C14AB0140585F4F66276A
:100B800057FD6095762FCE0120E030E00E94DA0418
:100B90006C857D85882777FD8095982F0E948C0D28
:100BA0001F8B0E8BDF91CF911F910F9108950F93A3
:100BB0001F938C014EEF50E060E070E020E030E0E9
:100BC0000E94DA04F80164857585882777FD809591
:100BD000982F0E948C0DC8014CE050E060E070E05E
:100BE00020E030E00E94DA04F801648575858827EA
:100BF00077FD8095982F0E948C0D1F910F9108957D
:100C00000F931F938C014EEF50E060E070E020E006
:100C100030E00E94DA04F80164857585882777FD45
:100C20008095982F0E948C0DC80141E050E060E053
:100C300070E020E030E00E94DA04F8012485358578
:100C4000B901F3E0660F771FFA95E1F7220F331F22
:100C5000620F731F882777FD8095982F0E948C0D57
:100C60001F910F910895EF92FF921F93CF93DF93FF
:100C7000EC017B01142F888561E00E94FE0D6C85DC
:100C80007D85882777FD8095982F0E948C0DCE0159
:100C900040E855E260E070E00E94FD046C857D85CF
:100CA000882777FD8095982F0E948C0D112319F0CD
:100CB000CE010E940006CE01B7010E948705CE0139
:100CC0000E94D705DF91CF911F91FF90EF9008957B
:100CD0008F929F92AF92BF92CF92DF92EF92FF924C
:100CE0000F931F937C01B62EA72E4A0169014B2D4D
:100CF0000E94CC03F701B086A1861387028784E0A7
:100D000090E09587848797868686D18AC08A81E01D
:100D100090E0938B828B958B848B84E690E0978B0D
:100D2000868B138E128E80E490E0958F848FD78E01
:100D3000C68EC80ED91ED1A2C0A21F910F91FF90DE
:100D4000EF90DF90CF90BF90AF909F908F900895DD
:100D50000F931F938EE492E067E070E042E050E072
:100D600020E130E001E010E00E94680682E792E0B6
:100D700062E043E00E9497021F910F9108951F9334
:100D80001092D60282E792E00E94C601182F8F3F90
:100D9000C9F385EA93E0612F0E9474101A3091F331
:100DA0008091D602893511F01D3049F4E82FFF27D4
:100DB000E7FDF095E658FD4F10821F910895E82F4A
:100DC000FF27E7FDF095E658FD4F10838F5F809376
:100DD000D602D8CF0F931F930EE412E0C80164E649
:100DE00070E041E00E94330668EB7BE080E090E039
:100DF0000E948C0DC8016BE470E00E94870584E0BE
:100E000061E00E94FE0D05EA13E0C80140EC52E1EA
:100E100060E070E00E94F70E82E792E040EC52E161
:100E200060E070E00E94A600C80160E071E00E94EE
:100E3000AB1084E060E00E941E0E1F910F91089598
:100E40006F927F928F929F92AF92BF92CF92DF92DA
:100E5000EF92FF920F931F935B016C018A010E9436
:100E60006E129B01AC017B0185EA93E0B9010E94FF
:100E7000751185EA93E06BE071E00E947C10C60179
:100E8000B50120E030E040E050E00E9451139701AE
:100E9000442737FD4095542F38018824992488230E
:100EA0004CF0CA01B9010E94A1129B01AC01C6011C
:100EB000B50106C0CA01B9010E94A112A60195019F
:100EC0000E949D117B018C01C401B3010E949F12FD
:100ED0009B01AC01C801B7010E9455130E94731217
:100EE000AB0160E070E085EA93E02AE030E00E9428
:100EF00092111F910F91FF90EF90DF90CF90BF90D4
:100F0000AF909F908F907F906F9008959F92AF9237
:100F1000BF92CF92DF92EF92FF920F931F93CF93E6
:100F2000DF938091E9028134F1F185EA93E06DE08D
:100F300071E00E947C100E94BF068AE792E066E1A1
:100F400071E046E050E00E949800009709F089C5E2
:100F500081E892E09093D5028093D402FC0104C012
:100F600080538A3020F4319680818823C9F781E844
:100F700092E06CE270E00E948D00FC013196F093EB
:100F8000D502E093D402319781818093E9023396B0
:100F9000F093D502E093D40285EA93E06DE171E02D
:100FA0000E94AB105EC585EA93E06DE071E00E949F
:100FB0007C100E94BF068AE792E066E171E046E09D
:100FC00050E00E949800009709F079C081E892E013
:100FD0009093D5028093D402EE24FF248701EC0184
:100FE0001CC08C2D80538A30D8F4C801B7012AE088
:100FF00030E040E050E00E941D147B018C018C2DFC
:10100000992787FD9095C097AA2797FDA095BA2F9D
:10101000E80EF91E0A1F1B1F2196C880CC2009F775
:1010200080E8E81688E3F80681E0080780E0180702
:1010300050F0C801B70120E137E240E050E00E94E3
:101040004F14285009C0C801B70120E137E240E041
:1010500050E00E944F14205F2093D702C801B701CF
:1010600024E630E040E050E00E944F14CA01B9018C
:1010700024E630E040E050E00E944F146093D80234
:10108000C801B70124E630E040E050E00E944F1470
:101090006093D90281E892E06CE270E00E948D00DA
:1010A000FC013196F093D502E093D402319781810F
:1010B0008093E9023396F093D502E093D4028091B5
:1010C000F2029091F30205977CF485EA93E061E3E4
:1010D00071E00E94AB108091F2029091F3020196B0
:1010E0009093F3028093F20285EA93E06DE071E061
:1010F0000E947C100E94BF068AE792E066E171E0E0
:1011000046E050E00E949800009709F079C081E81D
:1011100092E09093D5028093D402EE24FF248701BD
:10112000EC011CC08C2D80538A30D8F4C801B70163
:101130002AE030E040E050E00E941D147B018C0169
:101140008C2D992787FD9095C097AA2797FDA0958C
:10115000BA2FE80EF91E0A1F1B1F2196C880CC204B
:1011600009F780E8E81688E3F80681E0080780E0E0
:10117000180750F0C801B70120E137E240E050E025
:101180000E944F14285009C0C801B70120E137E27E
:1011900040E050E00E944F14205F2093D702C80126
:1011A000B70124E630E040E050E00E944F14CA014D
:1011B000B90124E630E040E050E00E944F14609313
:1011C000D802C801B70124E630E040E050E00E94B8
:1011D0004F146093D90281E892E06CE270E00E94C3
:1011E0008D00FC013196F093D502E093D402319743
:1011F00081818093E9023396F093D502E093D40283
:1012000085EA93E062E471E00E947C1085EA93E055
:101210006091E9020E949B100091D402F090D502E7
:10122000802F9F2D9C01E90120E030E040E050E05C
:101230001CC0812F80538A30D8F4CA01B9012AE03A
:1012400030E040E050E00E941D149B01AC01812F72
:10125000992787FD9095C097AA2797FDA095BA2F4B
:10126000280F391F4A1F5B1F21961881112309F788
:101270002093DD023093DE024093DF025093E002C0
:10128000211531054105510509F4B6C0CA01B9015E
:1012900020E137E240E050E00E941D14D62EB72E28
:1012A000A82E992E6093DD027093DE028093DF02F8
:1012B0009093E002802F9F2D6EE270E00E948D00DF
:1012C0009C012F5F3F4F3093D5022093D4022150D1
:1012D0003040E901EE24FF2487011CC021968C2DAB
:1012E00080538A30D0F4C801B7012AE030E040E0F2
:1012F00050E00E941D147B018C018C2D992787FDE5
:101300009095C097AA2797FDA095BA2FE80EF91ED1
:101310000A1F1B1FC980CC2009F72D2D3B2D4A2DFC
:10132000592D2E0D3F1D401F511F2093DD0230937C
:10133000DE024093DF025093E0022093F4023093E8
:10134000F5024093F6025093F702B901CA0120E476
:1013500032E44FE050E00E947114CA01B90120E468
:1013600032E44FE050E00E941D147B018C01609339
:10137000FC027093FD028093FE029093FF020E9494
:10138000A11220E034E244E759E40E9406125B0116
:101390006C016091F4027091F5028091F6029091D7
:1013A000F7026E197F09800B910B0E94A11220E0B9
:1013B0003CE742E159E40E9406129B01AC01C601E0
:1013C000B5010E949E119B01AC01609304037093D0
:1013D000050380930603909307038091E70283350A
:1013E00059F4DA01C901B0588093040390930503BE
:1013F000A0930603B09307038091D4029091D50285
:101400006CE270E00E948D00FC0101969093D50281
:101410008093D40221812C3211F02093E7026CE2F8
:1014200070E00E948D007C010894E11CF11CF09298
:10143000D502E092D402EC0120E030E040E050E040
:101440001CC02196812F80538A30D0F4CA01B90183
:101450002AE030E040E050E00E941D149B01AC0106
:10146000812F992787FD9095C097AA2797FDA09572
:10147000BA2F280F391F4A1F5B1F1981112309F743
:101480002093E1023093E2024093E3025093E4029E
:10149000211531054105510509F4B5C0CA01B9014D
:1014A00020E137E240E050E00E941D14A62ED72E26
:1014B000B82E992E6093E1027093E2028093E302CA
:1014C0009093E402C7016EE270E00E948D009C01DF
:1014D0002F5F3F4F3093D5022093D40221503040EC
:1014E000E901EE24FF2487011CC021968C2D805336
:1014F0008A30D0F4C801B7012AE030E040E050E083
:101500000E941D147B018C018C2D992787FD9095DD
:10151000C097AA2797FDA095BA2FE80EF91E0A1FBB
:101520001B1FC980CC2009F72A2D3D2D4B2D592D8D
:101530002E0D3F1D401F511F2093E1023093E20208
:101540004093E3025093E4022093F8023093F902AF
:101550004093FA025093FB02B901CA0120E432E43D
:101560004FE050E00E947114CA01B90120E432E456
:101570004FE050E00E941D147B018C01609300033A
:101580007093010380930203909303030E94A112BE
:1015900020E034E244E759E40E9406125B016C014A
:1015A0006091F8027091F9028091FA029091FB0229
:1015B0006E197F09800B910B0E94A11220E03CE77D
:1015C00042E159E40E9406129B01AC01C601B5013B
:1015D0000E949E119B01AC01609308037093090364
:1015E00080930A0390930B038091E802873559F4A6
:1015F000DA01C901B0588093080390930903A093BE
:101600000A03B0930B038091D4029091D5026CE24F
:1016100070E00E948D00FC0101969093D5028093AA
:10162000D40221812C3211F02093E8026CE270E0A8
:101630000E948D007C010894E11CF11CF092D502FF
:10164000E092D402EC0120E030E040E050E01CC029
:101650002196812F80538A30D0F4CA01B9012AE043
:1016600030E040E050E00E941D149B01AC01812F4E
:10167000992787FD9095C097AA2797FDA095BA2F27
:10168000280F391F4A1F5B1F1981112309F7209367
:10169000E5022093EA021092EB02C7016CE270E0CF
:1016A0000E948D007C010894E11CF11CF092D5028F
:1016B000E092D402EC0120E030E040E050E01CC0B9
:1016C0002196812F80538A30D0F4CA01B9012AE0D3
:1016D00030E040E050E00E941D149B01AC01812FDE
:1016E000992787FD9095C097AA2797FDA095BA2FB7
:1016F000280F391F4A1F5B1F1981112309F72093F7
:10170000E6022093EC021092ED02C7016CE270E059
:101710000E948D009C012F5F3F4F3093D502209394
:10172000D40221503040E901EE24FF2487011CC07F
:1017300021968C2D80538A30D0F4C801B7012AE05D
:1017400030E040E050E00E941D147B018C018C2DA4
:10175000992787FD9095C097AA2797FDA095BA2F46
:10176000E80EF91E0A1F1B1FC980CC2009F78091C3
:10177000D702813150F0C801B70120E137E240E0E3
:1017800050E00E944F14215008C0C801B70120E169
:1017900037E240E050E00E944F142093DC02C80181
:1017A000B70124E630E040E050E00E944F14CA0147
:1017B000B90124E630E040E050E00E944F1460930D
:1017C000DB02C801B70124E630E040E050E00E94AF
:1017D0004F1460536093DA026091EE017091EF0153
:1017E0008091F0019091F101209104033091050363
:1017F00040910603509107030E949D1122E539E6AE
:101800004EED52E40E9455135B016C0160930C0392
:1018100070930D0380930E0390930F036091F20178
:101820007091F3018091F4019091F50120910803EA
:101830003091090340910A0350910B030E949D11BE
:1018400024E237E94AEA52E40E9455137B018C01F5
:10185000609310037093110380931203909313030A
:10186000C601B501A60195010E9455135B016C01EB
:10187000C801B701A80197010E9455139B01AC0153
:10188000C601B5010E949E110E94BC137B018C0110
:1018900060931403709315038093160390931703BA
:1018A0000E946E126B017093EF026093EE02C8010A
:1018B000B70120E030E048EC52E40E9455137B0170
:1018C0008C0184E690E0C89EB001C99E700DD89E40
:1018D000700D1124882777FD8095982F0E94A11202
:1018E0009B01AC01C801B7010E949D110E946E12BC
:1018F0007093F1026093F00285EA93E062E571E093
:101900000E947C106091040370910503809106038E
:101910009091070340E157E20E94200785EA93E097
:101920006AE671E00E947C106091080370910903DF
:1019300080910A0390910B0340E157E20E94200737
:1019400085EA93E063E871E00E947C1060911403E3
:1019500070911503809116039091170344E650E0AF
:101960000E94200785EA93E061EA71E00E947C1002
:101970006091EE027091EF0285EA93E00E9475118A
:1019800085EA93E06BE071E00E947C106091F002C8
:101990007091F10285EA93E00E9475116091140341
:1019A0007091150380911603909117032DEC3CEC78
:1019B0004CEC5DE30E94021288234CF48EE492E02A
:1019C00061E070E041E050E023EB31E048C08EE49C
:1019D00092E061E070E041E050E024EC31E00E94F0
:1019E00076058EE492E061E070E041E050E023EDA6
:1019F00031E00E9476058EE492E062E070E041E022
:101A000050E023EE31E00E9476052091EE02309105
:101A1000EF028EE492E062E070E045E050E00E9468
:101A200065058EE492E062E070E048E050E02BE073
:101A300031E00E9476052091F0023091F1028EE4AF
:101A400092E062E070E049E050E00E9465058EE4BB
:101A500092E062E070E04CE050E028EE31E00E945D
:101A60007605DF91CF911F910F91FF90EF90DF905E
:101A7000CF90BF90AF909F9008950E94C40D0E9498
:101A8000EA060E948607FDCF1F920F920FB60F92B3
:101A900011242F933F938F939F93AF93BF93809184
:101AA0001C0390911D03A0911E03B0911F03309160
:101AB00020030196A11DB11D232F2D5F2D3720F08E
:101AC0002D570196A11DB11D2093200380931C0367
:101AD00090931D03A0931E03B0931F0380911803DE
:101AE00090911903A0911A03B0911B030196A11DB7
:101AF000B11D8093180390931903A0931A03B09318
:101B00001B03BF91AF919F918F913F912F910F90A8
:101B10000FBE0F901F901895EF92FF920F931F9397
:101B20007B018C018FB7F89440911C0350911D03E9
:101B300060911E0370911F038FBF2FB7F89480919F
:101B40001C0390911D03A0911E03B0911F032FBF92
:101B5000841B950BA60BB70BE816F9060A071B07A3
:101B600060F71F910F91FF90EF900895019759F042
:101B7000FC01EE0FFF1FEE0FFF1F32978FB7F89497
:101B80003197F1F78FBF0895789484B5826084BD52
:101B900084B5816084BD85B5826085BD85B5816071
:101BA00085BDEEE6F0E0808181608083E1E8F0E0D1
:101BB000808182608083808181608083E0E8F0E0C2
:101BC000808181608083E1EBF0E0808184608083AC
:101BD000E0EBF0E0808181608083EAE7F0E08081E3
:101BE0008460808380818260808380818160808343
:101BF0008081806880831092C1000895282F30E092
:101C0000C90186569F4FFC0194912A573F4FF90115
:101C10008491882391F0E82FF0E0EE0FFF1FE85940
:101C2000FF4FA591B491662329F48C919095892357
:101C30008C9308958C91892B8C930895482F50E0B4
:101C4000CA0182559F4FFC012491CA0186569F4FBD
:101C5000FC0194914A575F4FFA0134913323D1F13B
:101C6000222331F1233021F4809180008F7705C049
:101C7000243031F4809180008F7D8093800018C0E3
:101C8000213019F484B58F7704C0223021F484B553
:101C90008F7D84BD0DC0263021F48091B0008F77F8
:101CA00005C0273029F48091B0008F7D8093B0006B
:101CB000E32FF0E0EE0FFF1FEE58FF4FA591B49118
:101CC000662329F48C91909589238C9308958C91A7
:101CD000892B8C930895682F70E0CB0182559F4F1C
:101CE000FC012491CB0186569F4FFC0144916A5719
:101CF0007F4FFB019491992319F420E030E038C024
:101D0000222331F1233021F4809180008F7705C0A8
:101D1000243031F4809180008F7D8093800018C042
:101D2000213019F484B58F7704C0223021F484B5B2
:101D30008F7D84BD0DC0263021F48091B0008F7757
:101D400005C0273029F48091B0008F7D8093B000CA
:101D5000892F90E0880F991F84589F4FFC01A5910F
:101D6000B4918C9120E030E0842311F021E030E048
:101D7000C90108951F920F920FB60F9211242F934D
:101D80003F934F935F936F937F938F939F93AF9303
:101D9000BF93EF93FF934091C600E091A103F091B0
:101DA000A203CF01019660E870E00E943C149C0100
:101DB0008091A3039091A4032817390739F0EF5DB0
:101DC000FC4F40833093A2032093A103FF91EF9136
:101DD000BF91AF919F918F917F916F915F914F9143
:101DE0003F912F910F900FBE0F901F9018955F920B
:101DF0006F927F928F929F92AF92BF92CF92DF921B
:101E0000EF92FF920F931F93CF93DF93EC013A0170
:101E10004B01413482E458078FE0680780E078077F
:101E20000CF07FC060E874E88EE190E0A4019301BB
:101E30000E9471142150304040405040CA01B90105
:101E400022E030E040E050E00E94711459016A0144
:101E5000A6019501209530954095509594E0220F6C
:101E6000331F441F551F9A95D1F760E074E284EF49
:101E700090E00E947114CA01B9012FEF30E040E0F8
:101E800050E00E941D14A40193010E947114C90125
:101E900081509F4F181619061CF4522E5A9403C0F5
:101EA00055245394521A60E079E08DE390E0A40148
:101EB00093010E9471142150304040405040CA01AB
:101EC000B90122E030E040E050E00E94711420951A
:101ED00030954095509583E0220F331F441F551FC6
:101EE0008A95D1F760E074E284EF90E00E9471146B
:101EF000CA01B9012FEF30E040E050E00E941D140C
:101F0000A40193010E947114C90181509F4F1816BA
:101F100019061CF4822F815002C081E0821B8515B6
:101F200000F5E885F98581E090E00A8802C0880F15
:101F3000991F0A94E2F7808360E079E08DE390E0F6
:101F4000A40193010E947114215030404040504040
:101F5000CA01B90122E030E040E050E00E94711473
:101F600004C0E885F98510829501EC81FD813083FC
:101F7000EE81FF812083EA85FB85208141E050E0EE
:101F8000CA010E8402C0880F991F0A94E2F7282B19
:101F90002083EA85FB852081CA010F8402C0880F57
:101FA000991F0A94E2F7282B2083EA85FB8580811C
:101FB000088802C0440F551F0A94E2F7842B8083DF
:101FC000DF91CF911F910F91FF90EF90DF90CF9015
:101FD000BF90AF909F908F907F906F905F9008958B
:101FE000FC01A085B18521898C9190E0022E02C070
:101FF000959587950A94E2F780FFF6CF0484F585DE
:10200000E02D6083089584E092E09093A60380938E
:10201000A50381E293E09093A8038093A70385EC46
:1020200090E09093AA038093A90384EC90E09093AE
:10203000AC038093AB0380EC90E09093AE0380936D
:10204000AD0381EC90E09093B0038093AF0386ECF6
:1020500090E09093B2038093B10384E08093B30344
:1020600083E08093B40387E08093B50385E0809399
:10207000B60381E08093B70308950F931F93CF9326
:10208000DF938C01EB0109C02196D801ED91FC9101
:102090000190F081E02DC801099568816623A1F7C0
:1020A000DF91CF911F910F910895EF92FF920F93BF
:1020B0001F93CF93DF938C017B01EA010CC0D70102
:1020C0006D917D01D801ED91FC910190F081E02DA1
:1020D000C80109952197209791F7DF91CF911F9122
:1020E0000F91FF90EF900895DC01ED91FC9101902C
:1020F000F081E02D09950895DC01ED91FC910280BD
:10210000F381E02D099508950F931F938C01DC0155
:10211000ED91FC910190F081E02D6DE00995D801E1
:10212000ED91FC910190F081E02DC8016AE00995E4
:102130001F910F9108950F931F938C01DC01ED9176
:10214000FC910190F081E02D0995C8010E94841056
:102150001F910F9108950F931F938C010E947C1083
:10216000C8010E9484101F910F9108952F923F92F1
:102170004F925F926F927F928F929F92AF92BF9297
:10218000CF92DF92EF92FF920F931F93DF93CF9343
:10219000CDB7DEB7A0970FB6F894DEBF0FBECDBFA8
:1021A0001C016A017B01411551056105710549F466
:1021B000DC01ED91FC910190F081E02D60E3099547
:1021C00054C0882499245401422E5524662477242F
:1021D00001E010E00C0F1D1F080D191DC701B6010D
:1021E000A30192010E944F14F80160830894811C9E
:1021F000911CA11CB11CC701B601A30192010E9450
:102200004F14C901DA016C017D01C114D104E1044C
:10221000F104F1F681E0E82EF12CEC0EFD1EE80C45
:10222000F91C3E010894611C711CD501C401019781
:10223000A109B1096C01C818D90814C0F601EE0D46
:10224000FF1D60816A3010F4605D01C0695CD101DE
:10225000ED91FC910190F081E02DC1010995089468
:10226000E108F1086E147F0449F7A0960FB6F894C0
:10227000DEBF0FBECDBFCF91DF911F910F91FF90B9
:10228000EF90DF90CF90BF90AF909F908F907F9016
:102290006F905F904F903F902F900895EF92FF9234
:1022A0000F931F93CF93DF93EC017A018B0177FF9C
:1022B0000FC0E881F9810190F081E02D6DE2099570
:1022C00010950095F094E094E11CF11C011D111D86
:1022D000CE01B801A7012AE00E94B610DF91CF918C
:1022E0001F910F91FF90EF900895AB01662757FD66
:1022F0006095762F0E944E110895DC01211531055D
:1023000041F4ED91FC910190F081E02D642F09954D
:1023100008952A30310519F40E944E1108950E9443
:10232000B61008950F931F938C010E947D11C80170
:102330000E9484101F910F9108955058BB27AA271F
:102340000ED075C166D130F06BD120F031F49F3FD3
:1023500011F41EF45BC10EF4E095E7FB51C1E92FC7
:1023600077D180F3BA17620773078407950718F0CF
:1023700071F49EF58FC10EF4E0950B2EBA2FA02DAF
:102380000B01B90190010C01CA01A0011124FF2722
:10239000591B99F0593F50F4503E68F11A16F0401D
:1023A000A22F232F342F4427585FF3CF469537951C
:1023B0002795A795F0405395C9F77EF41F16BA0BE1
:1023C000620B730B840BBAF09150A1F0FF0FBB1F8F
:1023D000661F771F881FC2F70EC0BA0F621F731FD8
:1023E000841F48F4879577956795B795F7959E3F35
:1023F00008F0B3CF9395880F08F09927EE0F9795C3
:1024000087950895D9D008F481E008950CD00FC1C4
:1024100007D140F0FED030F021F45F3F19F0F0C05A
:10242000511139C1F3C014D198F39923C9F355233D
:10243000B1F3951B550BBB27AA27621773078407B7
:1024400038F09F5F5F4F220F331F441FAA1FA9F36D
:1024500033D00E2E3AF0E0E830D091505040E6955F
:10246000001CCAF729D0FE2F27D0660F771F881FC0
:10247000BB1F261737074807AB07B0E809F0BB0BAF
:10248000802DBF01FF2793585F4F2AF09E3F5105D3
:1024900068F0B6C000C15F3FECF3983EDCF3869570
:1024A00077956795B795F7959F5FC9F7880F911D49
:1024B0009695879597F90895E1E0660F771F881F35
:1024C000BB1F621773078407BA0720F0621B730BE8
:1024D000840BBA0BEE1F88F7E095089504D068943A
:1024E000B111D9C00895BCD088F09F5790F0B92F92
:1024F0009927B751A0F0D1F0660F771F881F991F59
:102500001AF0BA95C9F712C0B13081F0C3D0B1E06A
:102510000895C0C0672F782F8827B85F39F0B93F7A
:10252000CCF3869577956795B395D9F73EF490955A
:102530008095709561957F4F8F4F9F4F0895E894D8
:1025400009C097FB3EF490958095709561957F4FFB
:102550008F4F9F4F9923A9F0F92F96E9BB279395A9
:10256000F695879577956795B795F111F8CFFAF4B9
:10257000BB0F11F460FF1BC06F5F7F4F8F4F9F4FEA
:1025800016C0882311F096E911C0772321F09EE848
:10259000872F762F05C0662371F096E8862F70E0AE
:1025A00060E02AF09A95660F771F881FDAF7880F88
:1025B0009695879597F90895990F0008550FAA0BDE
:1025C000E0E8FEEF16161706E807F907C0F0121646
:1025D0001306E407F50798F0621B730B840B950B49
:1025E00039F40A2661F0232B242B252B21F408959E
:1025F0000A2609F4A140A6958FEF811D811D08953B
:1026000097F99F6780E870E060E008959FEF80ECA5
:10261000089500240A941616170618060906089548
:1026200000240A9412161306140605060895092EAE
:102630000394000C11F4882352F0BB0F40F4BF2B1D
:1026400011F460FF04C06F5F7F4F8F4F9F4F08955D
:1026500057FD9058440F551F59F05F3F71F0479553
:10266000880F97FB991F61F09F3F79F08795089538
:10267000121613061406551FF2CF4695F1DF08C057
:10268000161617061806991FF1CF86957105610574
:1026900008940895E894BB2766277727CB0197F91C
:1026A00008958ADF08F48FEF08950BD0C0CFB1DF13
:1026B00028F0B6DF18F0952309F0A2CFA7CF112498
:1026C000EACFC6DFA0F3959FD1F3950F50E0551FD9
:1026D000629FF001729FBB27F00DB11D639FAA2777
:1026E000F00DB11DAA1F649F6627B00DA11D661FC6
:1026F000829F2227B00DA11D621F739FB00DA11DE7
:10270000621F839FA00D611D221F749F3327A00DA0
:10271000611D231F849F600D211D822F762F6A2F3C
:1027200011249F5750408AF0E1F088234AF0EE0FC1
:10273000FF1FBB1F661F771F881F91505040A9F7CE
:102740009E3F510570F05CCFA6CF5F3FECF3983E03
:10275000DCF3869577956795B795F795E7959F5F35
:10276000C1F7FE2B880F911D9695879597F90895CF
:1027700011F40EF44BCF4AC073DFD0F39923D9F391
:10278000CEF39F57550B87FF51D056959795B0E0E4
:1027900020F4660F771F881FBB1F1F930F93002421
:1027A0009001A0018001F001A0E80E0F1F1F0A1E7A
:1027B000511D601B710B8009B50B48F4600F711F30
:1027C000801DB51F0E1B1F0B0A0A510907C02E0FD3
:1027D0003F1F4A1F0E0F1F1F0A1E511D660F771F36
:1027E000881FBB1FA695F795E795F8F606171707FC
:1027F00008065B07211D311D411D0F911F91B90175
:10280000842F9158880F9695879508959F3F49F09A
:10281000915028F4869577956795B7959F5F803896
:102820009F4F880F9695879597F90895915050403E
:10283000660F771F881FD2F70895629FD001739F9C
:10284000F001829FE00DF11D649FE00DF11D929F4C
:10285000F00D839FF00D749FF00D659FF00D99278B
:10286000729FB00DE11DF91F639FB00DE11DF91FAF
:10287000BD01CF011124089597FB092E07260AD028
:1028800077FD04D049D006D000201AF470956195E8
:102890007F4F0895F6F7909581959F4F0895A1E297
:1028A0001A2EAA1BBB1BFD010DC0AA1FBB1FEE1FCA
:1028B000FF1FA217B307E407F50720F0A21BB30B15
:1028C000E40BF50B661F771F881F991F1A9469F791
:1028D00060957095809590959B01AC01BD01CF01ED
:1028E000089597FB092E05260ED057FD04D0D7DF9B
:1028F0000AD0001C38F450954095309521953F4FF3
:102900004F4F5F4F0895F6F79095809570956195BC
:102910007F4F8F4F9F4F0895AA1BBB1B51E107C0EC
:10292000AA1FBB1FA617B70710F0A61BB70B881F5F
:10293000991F5A95A9F780959095BC01CD010895EE
:10294000EE0FFF1F0590F491E02D0994F894FFCF4E
:1029500047505320706172736572002E000A0D7229
:102960006561643A2000244750524D43004750535C
:10297000206973206C6F636174696E6720796F756D
:1029800000416C6D6F7374204C6F636B6564204FF6
:102990006E00475053205374617475732069733A05
:1029A00020004C6174697475646520696E2044650B
:1029B00067726565732069733A004C6F6E6769745E
:1029C00075646520696E204465677265657320696A
:1029D000733A0044697374616E63652066726F6D4B
:1029E0002044657374696E6174696F6E2069733A0F
:1029F0000044697374616E636520697320616C7350
:102A00006F3A0053454920515541204455444521D2
:102A100021212100202020202020202020202020D3
:102A2000202000496E636F72726563742E20596FA7
:102A300075200061726520006B6D4F46460020E7EF
:102A40000742B7ACEBC200000000F7013D10551083
:0A2A500000000000F00F3D105510CB
:00000001FF
