:100000000C9463000C948B000C948B000C94C7032D
:100010000C9495030C9466030C948B000C948B0049
:100020000C948B000C948B000C948B000C948B0024
:100030000C948B000C948B000C948B000C948B0014
:100040000C94A10B0C948B000C94090D0C948B0058
:100050000C948B000C948B000C948B000C948B00F4
:100060000C948B000C948B000000000024002700EF
:100070002A0000000000250028002B0000000000DE
:1000800023002600290004040404040404040202DA
:100090000202020203030303030301020408102007
:1000A0004080010204081020010204081020000012
:1000B0000007000201000003040600000000000029
:1000C00000008905520E11241FBECFEFD8E0DEBF1D
:1000D000CDBF11E0A0E0B1E0ECE6F5E202C0059092
:1000E0000D92A23EB107D9F713E0A2EEB1E001C034
:1000F0001D92A539B107E1F710E0C6ECD0E004C0CD
:100100002297FE010E94B012C23CD107C9F70E949B
:100110009A0B0C94B4120C940000FC018191861788
:1001200021F08823D9F7992708953197CF010895B1
:10013000FB01DC014150504030F08D91019080195D
:1001400019F40020B9F7881B990B0895F999FECF8F
:1001500072BD61BDF89A80B50895F999FECF1FBAB6
:1001600072BD61BD40BD0FB6F894FA9AF99A0FBE00
:100170000895FC011682403488E3580780E0680740
:1001800080E0780709F495C0413488E3580780E09F
:10019000680780E07807BCF5403689E0580780E0C2
:1001A000680780E0780709F48DC0413689E0580778
:1001B00080E0680780E078079CF44C3281E05807C3
:1001C00080E0680780E0780709F482C0403B84E063
:1001D000580780E0680780E0780709F07CC075C0A8
:1001E000403C82E1580780E0680780E0780709F426
:1001F00066C0403885E2580780E0680780E07807ED
:1002000009F069C059C042318AE7580780E06807A1
:1002100080E0780709F442C043318AE7580780E05C
:10022000680780E0780794F440308BE4580780E05A
:10023000680780E07807D1F1403880E7580780E010
:10024000680780E0780709F046C02BC0403081EE97
:10025000580780E0680780E07807A1F0403082EC22
:10026000580781E0680780E0780749F0403086E968
:10027000580780E0680780E0780769F50AC088E0E1
:1002800090E004C08DEF86838FE190E095838483B6
:1002900024C08DEF868383E390E0F8CF8EE390E077
:1002A000F5CF8CEF868386E490E0F0CF8CE690E08B
:1002B000EDCF88E990E0EACF82EE90E0E7CF80EDE5
:1002C00091E0E4CF8CEA93E0E1CF8CE497E0DECFDD
:1002D0008CE09DE1DBCF15821482A481B58110975B
:1002E00009F451C04150514E604070400CF04BC079
:1002F0003281383090F48091680084608093680087
:1003000020916D0081E090E002C0880F991F3A951E
:10031000E2F7282B20936D002FC03E30B0F480917F
:10032000680081608093680040916B00232F30E06B
:100330002850304081E090E002C0880F991F2A9534
:10034000E2F7482B40936B0017C03631A8F4809138
:10035000680082608093680040916C00232F30E039
:100360002E50304081E090E002C0880F991F2A95FE
:10037000E2F7482B40936C00CD0120E001972FEF6E
:100380008F3F9207D9F78091E3019091E4018E1796
:100390009F0771F017829FB7F89410922502809101
:1003A000250280932602F093E401E093E3019FBFCE
:1003B0000895FC018091E3019091E4018E179F075D
:1003C00079F017829FB7F894109225028091250248
:1003D00080932602F093E401E093E3019FBF06C0FF
:1003E0009091260280912502981719F42FEF3FEF84
:1003F0000FC0E0912602F0E0EB51FE4F208180918A
:10040000260290E001968F7390708093260230E070
:10041000C9010895BF92CF92DF92EF92FF920F939E
:100420001F93CF93DF93EC01E62E8C819D81892B66
:1004300009F464C08091E3019091E4018C179D0759
:1004400071F01F829FB7F8941092250280912502C7
:1004500080932602D093E401C093E3019FBFBFB60F
:10046000F8948B8160E00E946D0C8E81992787FD46
:1004700090952C813D81820F931F20E001972FEFF3
:100480008F3F9207D9F7FF24F39400E010E0CE2CC1
:10049000DD248F2D90E08C219D21892B19F08B81FB
:1004A00061E002C08B8160E00E946D0C8E81992713
:1004B00087FD90952C813D81820F931FEE242E2D78
:1004C00001972FEF8F3F9207D9F7FF0C0F5F1F4F58
:1004D00008301105F1F68B8161E00E946D0CBFBE02
:1004E0008E81992787FD90952C813D81820F931FE6
:1004F0002E2D01972FEF8F3F9207D9F7DF91CF91E4
:100500001F910F91FF90EF90DF90CF90BF900895D3
:100510000F931F938C01862FF801628360E00E9485
:100520004D0CF801828161E00E946D0C1F910F91CA
:1005300008950F931F938C01862FF801638361E068
:100540000E944D0CF801838161E00E946D0C1F91A7
:100550000F910895FF920F931F938C01F62E87EC55
:1005600091E0F801918380831582148216821782AC
:10057000C801642F0E949902C8016F2D0E94880251
:100580001F910F91FF900895FF920F931F938C017D
:10059000F62E87EC91E0F801918380831582148216
:1005A00016821782C801642F0E949902C8016F2D1C
:1005B0000E9488021F910F91FF900895CF92DF92C1
:1005C000EF92FF920F931F93CF93DF938C012F93A2
:1005D0003F934F935F936F937F93AF93BF93FC01D0
:1005E00082810E94BA0C892B09F05FC0F8018481D6
:1005F000958196958795089720E001972FEF8F3F7B
:100600009207D9F7FF24C0E0D0E0EE2481E0C82EA5
:10061000D12CF8018481958106972E2D01972FEF1B
:100620008F3F9207D9F782810E94BA0C892B49F03B
:10063000C6010C2E02C0880F991F0A94E2F7F82A0F
:1006400009C0C6010C2E02C0880F991F0A94E2F758
:100650008095F8222196C830D105D9F6F801848119
:10066000958120E001972FEF8F3F9207D9F7809176
:1006700025022091260290E001968F73907030E061
:100680008217930779F0E0912502F0E0EB51FE4FDD
:10069000F0828091250290E001968F739070809394
:1006A000250203C081E0F8018783BF91AF917F915C
:1006B0006F915F914F913F912F91DF91CF911F915A
:1006C0000F91FF90EF90DF90CF9008951F920F92BF
:1006D0000FB60F9211242F933F934F935F936F9315
:1006E0007F938F939F93AF93BF93EF93FF93E0918B
:1006F000E301F091E401309739F0828190E00897AE
:100700001CF4CF010E94DE02FF91EF91BF91AF91E7
:100710009F918F917F916F915F914F913F912F9119
:100720000F900FBE0F901F9018951F920F920FB64B
:100730000F9211242F933F934F935F936F937F9367
:100740008F939F93AF93BF93EF93FF93E091E30158
:10075000F091E401309751F0828190E08E30910564
:100760002CF046971CF4CF010E94DE02FF91EF911E
:10077000BF91AF919F918F917F916F915F914F91B9
:100780003F912F910F900FBE0F901F9018951F92C1
:100790000F920FB60F9211242F933F934F935F93B5
:1007A0006F937F938F939F93AF93BF93EF93FF9339
:1007B000E091E301F091E401309751F0828190E003
:1007C000883091052CF00E971CF4CF010E94DE02B8
:1007D000FF91EF91BF91AF919F918F917F916F9119
:1007E0005F914F913F912F910F900FBE0F901F90EF
:1007F0001895CF92DF92EF92FF920F931F937C0197
:100800008B016A014EEF50E060E070E020E030E0E4
:100810000E949A0FF70164857585882777FD80957A
:10082000982F0E94E90BF70182859385C81AD90A8F
:1008300020E830E0C20ED31E081B190B035F1F4FC8
:10084000000F111F0E0D1F1DF801408151814C0D2D
:100850005D1D662757FD6095762FC70120E030E0CB
:100860000E949A0FF70164857585882777FD80952A
:10087000982F0E94E90B1F910F91FF90EF90DF904E
:10088000CF900895EF92FF920F931F938C017901FF
:100890000E94F903C801B7010E94920F1F910F91A6
:1008A000FF90EF900895EF92FF920F931F938C01AA
:1008B00079010E94F903C801B7010E94CB0E1F9174
:1008C0000F91FF90EF9008950F931F93CF93DF93B5
:1008D000EC018E899F898617970709F440C077FF3E
:1008E00002C060E070E08B016536710514F004E62B
:1008F00010E0CE014CE750E060E070E020E030E036
:100900000E949A0F6C857D85882777FD8095982FAA
:100910000E94E90B9801220F331FC80145E0880FA0
:10092000991F4A95E1F7821B930B64E670E00E94E1
:100930004A12AB0140585F4F662757FD6095762FEE
:10094000CE0120E030E00E949A0F6C857D858827DB
:1009500077FD8095982F0E94E90B1F8B0E8BDF91FE
:10096000CF911F910F9108950F931F938C014EEF1C
:1009700050E060E070E020E030E00E949A0FF80163
:1009800064857585882777FD8095982F0E94E90BEF
:10099000C8014CE050E060E070E020E030E00E94F0
:1009A0009A0FF80164857585882777FD8095982FC3
:1009B0000E94E90B1F910F9108950F931F938C01D3
:1009C0004EEF50E060E070E020E030E00E949A0FCF
:1009D000F80164857585882777FD8095982F0E949A
:1009E000E90BC80141E050E060E070E020E030E059
:1009F0000E949A0FF80124853585B901F3E0660F4E
:100A0000771FFA95E1F7220F331F620F731F8827B4
:100A100077FD8095982F0E94E90B1F910F91089503
:100A2000EF92FF921F93CF93DF93EC017B01142F82
:100A3000888561E00E944D0C6C857D85882777FD57
:100A40008095982F0E94E90BCE0140E855E260E0C6
:100A500070E00E94B9006C857D85882777FD8095C0
:100A6000982F0E94E90B112319F0CE010E94DD049A
:100A7000CE01B7010E946404CE010E94B404DF914C
:100A8000CF911F91FF90EF9008958F929F92AF9218
:100A9000BF92CF92DF92EF92FF920F931F937C0150
:100AA000B62EA72E4A0169014B2D0E94C40281ED8A
:100AB00091E0F70191838083B086A1861387028736
:100AC00084E090E09587848797868686D18AC08A5D
:100AD00081E090E0938B828B958B848B84E690E011
:100AE000978B868B138E128E80E490E0958F848F87
:100AF000D78EC68EC80ED91ED1A2C0A21F910F914B
:100B0000FF90EF90DF90CF90BF90AF909F908F902D
:100B100008950F931F9387E292E067E070E042E050
:100B200050E020E130E001E010E00E9445058BE458
:100B300092E062E043E00E94AA021F910F910895A3
:100B40001F931092AF028BE492E00E94D901182FFC
:100B50008F3FC9F382E893E0612F0E94C30E1A30E1
:100B600091F38091AF02893511F01D3049F4E82FDF
:100B7000FF27E7FDF095ED5AFD4F10821F91089574
:100B8000E82FFF27E7FDF095ED5AFD4F10838F5FAB
:100B90008093AF02D8CF6F927F928F929F92AF9245
:100BA000BF92CF92DF92EF92FF920F931F93CF935A
:100BB000DF9382E893E060E071E00E94CB0E0E9438
:100BC000A00583E592E069E071E046E050E00E9414
:100BD0009800009709F06AC58AE592E09093AE020A
:100BE0008093AD02EE24FF248701EC011CC08A2D06
:100BF00080538A30D8F4C801B7012AE030E040E0E1
:100C000050E00E942B127B018C018A2D992787FDD1
:100C10009095C097AA2797FDA095BA2FE80EF91EC8
:100C20000A1F1B1F2196A880AA2009F780E8E81652
:100C300088E3F80681E0080780E0180750F0C80153
:100C4000B70120E137E240E050E00E945D122850F9
:100C500009C0C801B70120E137E240E050E00E943E
:100C60005D12205F2093B002C801B70124E630E096
:100C700040E050E00E945D12CA01B90124E630E074
:100C800040E050E00E945D126093B102C801B701DC
:100C900024E630E040E050E00E945D126093B20232
:100CA0008AE592E06CE270E00E948D00FC013196D2
:100CB000F093AE02E093AD02319781818093C2023E
:100CC00023E0E22EF12CEE0EFF1EF092AE02E09237
:100CD000AD02813431F4EF0120E030E040E050E03B
:100CE00027C087E292E00E94DD0487E292E060E1A3
:100CF00071E00E94CB0EDAC42196812F80538A3096
:100D0000D0F4CA01B9012AE030E040E050E00E948E
:100D10002B129B01AC01812F992787FD9095C097DD
:100D2000AA2797FDA095BA2F280F391F4A1F5B1FCE
:100D30001B81112309F72093B6023093B702409329
:100D4000B8025093B902211531054105510509F446
:100D5000B5C0CA01B90120E137E240E050E00E948D
:100D60002B12962E872E782E692E6093B6027093E2
:100D7000B7028093B8029093B902C7016EE270E0A7
:100D80000E948D009C012F5F3F4F3093AE02209355
:100D9000AD0221503040E901EE24FF2487011CC040
:100DA00021968A2D80538A30D0F4C801B7012AE0F9
:100DB00030E040E050E00E942B127B018C018A2D34
:100DC000992787FD9095C097AA2797FDA095BA2FE0
:100DD000E80EF91E0A1F1B1FA980AA2009F7292D5A
:100DE000382D472D562D2E0D3F1D401F511F20938E
:100DF000B6023093B7024093B8025093B9022093E1
:100E0000CF023093D0024093D1025093D202B90165
:100E1000CA0120E432E44FE050E00E947F12CA0190
:100E2000B90120E432E44FE050E00E942B127B0134
:100E30008C016093D7027093D8028093D90290936B
:100E4000DA020E94B31020E034E244E759E40E9441
:100E500018105B016C016091CF027091D0028091FB
:100E6000D1029091D2026E197F09800B910B0E94E2
:100E7000B31020E03CE742E159E40E9418109B01C6
:100E8000AC01C601B5010E94B00F9B01AC0160939B
:100E9000DF027093E0028093E1029093E20280917E
:100EA000C002833559F4DA01C901B0588093DF02DA
:100EB0009093E002A093E102B093E2028091AD0230
:100EC0009091AE026CE270E00E948D00FC010196F0
:100ED0009093AE028093AD0221812C3211F02093C9
:100EE000C0026CE270E00E948D007C010894E11C5D
:100EF000F11CF092AE02E092AD02EC0120E030E095
:100F000040E050E01CC02196812F80538A30D0F4FD
:100F1000CA01B9012AE030E040E050E00E942B1203
:100F20009B01AC01812F992787FD9095C097AA2737
:100F300097FDA095BA2F280F391F4A1F5B1F1981F3
:100F4000112309F72093BA023093BB024093BC02ED
:100F50005093BD02211531054105510509F4B5C075
:100F6000CA01B90120E137E240E050E00E942B12B3
:100F7000962E872E782E692E6093BA027093BB024C
:100F80008093BC029093BD02C7016EE270E00E94A4
:100F90008D009C012F5F3F4F3093AE022093AD0236
:100FA00021503040E901EE24FF2487011CC0219626
:100FB0008A2D80538A30D0F4C801B7012AE030E08E
:100FC00040E050E00E942B127B018C018A2D992772
:100FD00087FD9095C097AA2797FDA095BA2FE80E98
:100FE000F91E0A1F1B1FA980AA2009F7292D382DD9
:100FF000472D562D2E0D3F1D401F511F2093BA0225
:101000003093BB024093BC025093BD022093D302A5
:101010003093D4024093D5025093D602B901CA014D
:1010200020E432E44FE050E00E947F12CA01B9018F
:1010300020E432E44FE050E00E942B127B018C014F
:101040006093DB027093DC028093DD029093DE02FA
:101050000E94B31020E034E244E759E40E941810E3
:101060005B016C016091D3027091D4028091D50232
:101070009091D6026E197F09800B910B0E94B310DC
:1010800020E03CE742E159E40E9418109B01AC01CA
:10109000C601B5010E94B00F9B01AC016093E30251
:1010A0007093E4028093E5029093E6028091C1027E
:1010B000873559F4DA01C901B0588093E30290935F
:1010C000E402A093E502B093E6028091AD02909114
:1010D000AE026CE270E00E948D00FC0101969093DC
:1010E000AE028093AD0221812C3211F02093C10217
:1010F0006CE270E00E948D007C010894E11CF11C00
:10110000F092AE02E092AD02EC0120E030E040E06F
:1011100050E01CC02196812F80538A30D0F4CA0140
:10112000B9012AE030E040E050E00E942B129B0120
:10113000AC01812F992787FD9095C097AA2797FD2D
:10114000A095BA2F280F391F4A1F5B1F1981112341
:1011500009F72093BE022093C3021092C402C70174
:101160006CE270E00E948D007C010894E11CF11C8F
:10117000F092AE02E092AD02EC0120E030E040E0FF
:1011800050E01CC02196812F80538A30D0F4CA01D0
:10119000B9012AE030E040E050E00E942B129B01B0
:1011A000AC01812F992787FD9095C097AA2797FDBD
:1011B000A095BA2F280F391F4A1F5B1F19811123D1
:1011C00009F72093BF022093C5021092C602C701FF
:1011D0006CE270E00E948D009C012F5F3F4F3093C6
:1011E000AE022093AD0221503040E901EE24FF24ED
:1011F00087011CC021968A2D80538A30D0F4C80103
:10120000B7012AE030E040E050E00E942B127B0161
:101210008C018A2D992787FD9095C097AA2797FD65
:10122000A095BA2FE80EF91E0A1F1B1FA980AA203D
:1012300009F78091B002813150F0C801B70120E177
:1012400037E240E050E00E945D12215008C0C80122
:10125000B70120E137E240E050E00E945D122093A8
:10126000B502C801B70124E630E040E050E00E943A
:101270005D12CA01B90124E630E040E050E00E946E
:101280005D126093B402C801B70124E630E040E08B
:1012900050E00E945D1260536093B3026091B1010F
:1012A0007091B2018091B3019091B4012091DF025D
:1012B0003091E0024091E1025091E2020E94AF0FB2
:1012C00022E539E64EED52E40E9463115B016C01A8
:1012D0006093E7027093E8028093E9029093EA0238
:1012E0006091B5017091B6018091B7019091B801FC
:1012F0002091E3023091E4024091E5025091E60230
:101300000E94AF0F24E237E94AEA52E40E946311D7
:101310007B018C016093EB027093EC028093ED02F1
:101320009093EE02C601B501A60195010E946311DA
:101330005B016C01C801B701A80197010E9463110C
:101340009B01AC01C601B5010E94B00F0E94CA11F9
:101350003B014C016093EF027093F0028093F10225
:101360009093F2020E9480107B018C016093C7026F
:10137000F092C802C401B30120E030E040E251E441
:101380000E9463115B016C019701B70193E0660F46
:10139000771F9A95E1F7220F331F620F731F88277B
:1013A00077FD8095982F0E94B3109B01AC01C60178
:1013B000B5010E94AF0F0E9480107093CA02609323
:1013C000C9028091CB029091CC02823091050CF43D
:1013D0004AC1C401B3012091B9013091BA014091D1
:1013E000BB015091BC010E9414108823ACF587E228
:1013F00092E00E94DD0487E292E061E070E041E06B
:1014000050E024E231E00E94530487E292E062E07F
:1014100070E041E050E02CE231E00E94530468EBC0
:101420007BE080E090E00E94E90B87E292E00E947E
:10143000DD0487E292E061E070E041E050E024E208
:1014400031E00E94530487E292E062E070E041E004
:1014500050E02CE231E0F5C06091F3027091F402AB
:1014600082EE91E00E94A600482F50E05093CE02F9
:101470004093CD028091BF019091C001841B950BD8
:10148000181619060CF45FC087E292E00E94DD0492
:1014900087E292E061E070E041E050E02DE331E06E
:1014A0000E94530487E292E062E070E041E050E085
:1014B0002BE431E00E94530468E873E180E090E09F
:1014C0000E94E90B87E292E00E94DD0487E292E04D
:1014D00061E070E041E050E028E531E00E94530413
:1014E00068E873E180E090E00E94E90B87E292E017
:1014F00061E070E041E050E02DE331E00E945304F0
:1015000087E292E062E070E041E050E02BE431E0FD
:101510000E94530468E873E180E090E00E94E90BC8
:1015200087E292E00E94DD0487E292E061E070E0F1
:1015300041E050E028E531E00E94530468E873E19F
:1015400080E090E088C04F5F5F4F5093CE024093A1
:10155000CD026091F3027091F40282EE91E00E945C
:10156000AD008091BF019091C0012091CD023091DA
:10157000CE02821B930B9093C0018093BF0187E240
:1015800092E00E94DD0464E670E080E090E00E945A
:10159000E90B87E292E061E070E041E050E029E68B
:1015A00031E00E94530487E292E062E070E041E0A3
:1015B00050E029E731E00E9453046091C702709126
:1015C000C80287E292E00E94920F87E292E06EE703
:1015D00071E00E94CB0E6091C9027091CA0287E24D
:1015E00092E00E94920F87E292E062E070E04BE0AE
:1015F00050E020E831E00E94530468E873E180E0A5
:1016000090E00E94E90B87E292E00E94DD042091C5
:10161000BF013091C00187E292E061E070E041E0FB
:1016200050E00E94420487E292E067E871E00E9485
:10163000CB0E87E292E062E070E041E050E021E909
:1016400031E00E9453046091BD017091BE01882772
:1016500077FD8095982F0E94E90B8091C10161E090
:101660000E946D0C23C001969093CC028093CB0214
:1016700087E292E00E94DD0487E292E061E070E0A0
:1016800041E050E02CE931E00E94530487E292E00F
:1016900062E070E041E050E028EA31E00E9453044B
:1016A00064EF71E080E090E00E94E90BDF91CF9160
:1016B0001F910F91FF90EF90DF90CF90BF90AF9070
:1016C0009F908F907F906F9008950F931F9307E2E4
:1016D00012E0C80164E670E041E00E94100568EB8A
:1016E0007BE080E090E00E94E90BC8016BE470E0D1
:1016F0000E9464048091C10161E00E944D0C84E06D
:1017000061E00E944D0C82E893E040E855E260E021
:1017100070E00E94460D8BE492E040EC52E160E004
:1017200070E00E94B90084E060E00E946D0C1F919F
:101730000F9108950E94130C0E94650B0E94CB0527
:10174000FDCF1F920F920FB60F9211242F933F934C
:101750008F939F93AF93BF938091F9029091FA0278
:10176000A091FB02B091FC023091FD020196A11DF7
:10177000B11D232F2D5F2D3720F02D570196A11D70
:10178000B11D2093FD028093F9029093FA02A09379
:10179000FB02B093FC028091F5029091F602A091B9
:1017A000F702B091F8020196A11DB11D8093F502D8
:1017B0009093F602A093F702B093F802BF91AF9115
:1017C0009F918F913F912F910F900FBE0F901F907F
:1017D0001895EF92FF920F931F937B018C018FB7A7
:1017E000F8944091F9025091FA026091FB027091D5
:1017F000FC028FBF2FB7F8948091F9029091FA0202
:10180000A091FB02B091FC022FBF841B950BA60B8D
:10181000B70BE816F9060A071B0760F71F910F912F
:10182000FF90EF900895789484B5826084BD84B56C
:10183000816084BD85B5826085BD85B5816085BDCB
:10184000EEE6F0E0808181608083E1E8F0E0808175
:1018500082608083808181608083E0E8F0E0808125
:1018600081608083E1EBF0E0808184608083E0EB45
:10187000F0E0808181608083EAE7F0E0808184602D
:101880008083808182608083808181608083808189
:10189000806880831092C1000895282F30E0C9012C
:1018A00086569F4FFC0194912A573F4FF90184912E
:1018B000882391F0E82FF0E0EE0FFF1FE859FF4F6B
:1018C000A591B491662329F48C91909589238C93EA
:1018D00008958C91892B8C930895482F50E0CA016C
:1018E00082559F4FFC012491CA0186569F4FFC01EF
:1018F00094914A575F4FFA0134913323D1F1222357
:1019000031F1233021F4809180008F7705C024309D
:1019100031F4809180008F7D8093800018C0213049
:1019200019F484B58F7704C0223021F484B58F7DFB
:1019300084BD0DC0263021F48091B0008F7705C0A2
:10194000273029F48091B0008F7D8093B000E32F81
:10195000F0E0EE0FFF1FEE58FF4FA591B491662304
:1019600029F48C91909589238C9308958C91892BDF
:101970008C930895682F70E0CB0182559F4FFC0136
:101980002491CB0186569F4FFC0144916A577F4FAB
:10199000FB019491992319F420E030E038C0222310
:1019A00031F1233021F4809180008F7705C02430FD
:1019B00031F4809180008F7D8093800018C02130A9
:1019C00019F484B58F7704C0223021F484B58F7D5B
:1019D00084BD0DC0263021F48091B0008F7705C002
:1019E000273029F48091B0008F7D8093B000892F3B
:1019F00090E0880F991F84589F4FFC01A591B491E6
:101A00008C9120E030E0842311F021E030E0C90126
:101A100008951F920F920FB60F9211242F933F93A8
:101A20004F935F936F937F938F939F93AF93BF93E6
:101A3000EF93FF934091C600E0917E03F0917F0306
:101A4000CF01019660E870E00E944A129C018091EB
:101A50008003909181032817390739F0E250FD4F38
:101A6000408330937F0320937E03FF91EF91BF91DA
:101A7000AF919F918F917F916F915F914F913F9126
:101A80002F910F900FBE0F901F9018955F926F923D
:101A90007F928F929F92AF92BF92CF92DF92EF92FE
:101AA000FF920F931F93CF93DF93EC013A014B0109
:101AB000413482E458078FE0680780E078070CF033
:101AC0007FC060E874E88EE190E0A40193010E9479
:101AD0007F122150304040405040CA01B90122E0FD
:101AE00030E040E050E00E947F1259016A01A601F7
:101AF0009501209530954095509594E0220F331F25
:101B0000441F551F9A95D1F760E074E284EF90E08E
:101B10000E947F12CA01B9012FEF30E040E050E08F
:101B20000E942B12A40193010E947F12C9018150CF
:101B30009F4F181619061CF4522E5A9403C05524B0
:101B40005394521A60E079E08DE390E0A401930190
:101B50000E947F122150304040405040CA01B901DC
:101B600022E030E040E050E00E947F122095309566
:101B70004095509583E0220F331F441F551F8A95CF
:101B8000D1F760E074E284EF90E00E947F12CA0116
:101B9000B9012FEF30E040E050E00E942B12A40189
:101BA00093010E947F12C90181509F4F1816190698
:101BB0001CF4822F815002C081E0821B851500F544
:101BC000E885F98581E090E00A8802C0880F991FB6
:101BD0000A94E2F7808360E079E08DE390E0A4016D
:101BE00093010E947F122150304040405040CA0172
:101BF000B90122E030E040E050E00E947F1204C0D2
:101C0000E885F98510829501EC81FD813083EE81B4
:101C1000FF812083EA85FB85208141E050E0CA01F5
:101C20000E8402C0880F991F0A94E2F7282B2083A4
:101C3000EA85FB852081CA010F8402C0880F991FA5
:101C40000A94E2F7282B2083EA85FB8580810888A7
:101C500002C0440F551F0A94E2F7842B8083DF9162
:101C6000CF911F910F91FF90EF90DF90CF90BF9099
:101C7000AF909F908F907F906F905F900895FC0140
:101C8000A085B18521898C9190E0022E02C09595A6
:101C900087950A94E2F780FFF6CF0484F585E02D5E
:101CA000608308958BED91E090938303809382038A
:101CB0008EEF92E0909385038093840385EC90E00F
:101CC000909387038093860384EC90E0909389033C
:101CD0008093880380EC90E090938B0380938A0339
:101CE00081EC90E090938D0380938C0386EC90E0E0
:101CF00090938F0380938E0384E08093900383E01E
:101D00008093910387E08093920385E0809393030F
:101D100081E08093940308950F931F93CF93DF93F3
:101D20008C01EB0109C02196D801ED91FC91019045
:101D3000F081E02DC801099568816623A1F7DF9144
:101D4000CF911F910F910895EF92FF920F931F93E0
:101D5000CF93DF938C017B01EA010CC0D7016D9119
:101D60007D01D801ED91FC910190F081E02DC80139
:101D700009952197209791F7DF91CF911F910F91AE
:101D8000FF90EF900895DC01ED91FC910190F081BE
:101D9000E02D09950895DC01ED91FC910280F3811D
:101DA000E02D099508952F923F924F925F926F9286
:101DB0007F928F929F92AF92BF92CF92DF92EF92DB
:101DC000FF920F931F93DF93CF93CDB7DEB7A0970A
:101DD0000FB6F894DEBF0FBECDBF1C016A017B01B8
:101DE000411551056105710549F4DC01ED91FC9146
:101DF0000190F081E02D60E3099554C08824992476
:101E00005401422E55246624772401E010E00C0F83
:101E10001D1F080D191DC701B601A30192010E94E3
:101E20005D12F80160830894811C911CA11CB11CF7
:101E3000C701B601A30192010E945D12C901DA0136
:101E40006C017D01C114D104E104F104F1F681E0DB
:101E5000E82EF12CEC0EFD1EE80CF91C3E01089456
:101E6000611C711CD501C4010197A109B1096C0164
:101E7000C818D90814C0F601EE0DFF1D60816A3044
:101E800010F4605D01C0695CD101ED91FC9101909D
:101E9000F081E02DC10109950894E108F1086E1464
:101EA0007F0449F7A0960FB6F894DEBF0FBECDBFF2
:101EB000CF91DF911F910F91FF90EF90DF90CF9026
:101EC000BF90AF909F908F907F906F905F904F905A
:101ED0003F902F900895EF92FF920F931F93CF930F
:101EE000DF93EC017A018B0177FF0FC0E881F98164
:101EF0000190F081E02D6DE2099510950095F09428
:101F0000E094E11CF11C011D111DCE01B801A701D7
:101F10002AE00E94D30EDF91CF911F910F91FF9085
:101F2000EF900895AB01662757FD6095762F0E94CC
:101F30006B0F0895DC012115310541F4ED91FC9101
:101F40000190F081E02D642F099508952A30310524
:101F500019F40E946B0F08950E94D30E08955058F3
:101F6000BB27AA270ED075C166D130F06BD120F007
:101F700031F49F3F11F41EF45BC10EF4E095E7FBD2
:101F800051C1E92F77D180F3BA176207730784072D
:101F9000950718F071F49EF58FC10EF4E0950B2EA5
:101FA000BA2FA02D0B01B90190010C01CA01A001AB
:101FB0001124FF27591B99F0593F50F4503E68F106
:101FC0001A16F040A22F232F342F4427585FF3CF47
:101FD000469537952795A795F0405395C9F77EF418
:101FE0001F16BA0B620B730B840BBAF09150A1F061
:101FF000FF0FBB1F661F771F881FC2F70EC0BA0FE7
:10200000621F731F841F48F4879577956795B7956E
:10201000F7959E3F08F0B3CF9395880F08F0992766
:10202000EE0F979587950895D9D008F481E008952B
:102030000CD00FC107D140F0FED030F021F45F3F4B
:1020400019F0F0C0511139C1F3C014D198F399239C
:10205000C9F35523B1F3951B550BBB27AA2762176C
:102060007307840738F09F5F5F4F220F331F441FB1
:10207000AA1FA9F333D00E2E3AF0E0E830D09150E9
:102080005040E695001CCAF729D0FE2F27D0660FD6
:10209000771F881FBB1F261737074807AB07B0E815
:1020A00009F0BB0B802DBF01FF2793585F4F2AF02B
:1020B0009E3F510568F0B6C000C15F3FECF3983E0B
:1020C000DCF3869577956795B795F7959F5FC9F788
:1020D000880F911D9695879597F90895E1E0660F11
:1020E000771F881FBB1F621773078407BA0720F08A
:1020F000621B730B840BBA0BEE1F88F7E0950895F3
:1021000004D06894B111D9C00895BCD088F09F570D
:1021100090F0B92F9927B751A0F0D1F0660F771F33
:10212000881F991F1AF0BA95C9F712C0B13081F013
:10213000C3D0B1E00895C0C0672F782F8827B85F5B
:1021400039F0B93FCCF3869577956795B395D9F774
:102150003EF490958095709561957F4F8F4F9F4F7E
:102160000895E89409C097FB3EF49095809570958A
:1021700061957F4F8F4F9F4F9923A9F0F92F96E9D3
:10218000BB279395F695879577956795B795F11148
:10219000F8CFFAF4BB0F11F460FF1BC06F5F7F4FE5
:1021A0008F4F9F4F16C0882311F096E911C07723F7
:1021B00021F09EE8872F762F05C0662371F096E800
:1021C000862F70E060E02AF09A95660F771F881FCF
:1021D000DAF7880F9695879597F90895990F000873
:1021E000550FAA0BE0E8FEEF16161706E807F907E9
:1021F000C0F012161306E407F50798F0621B730B84
:10220000840B950B39F40A2661F0232B242B252B04
:1022100021F408950A2609F4A140A6958FEF811DA7
:10222000811D089597F99F6780E870E060E0089548
:102230009FEF80EC089500240A94161617061806DE
:102240000906089500240A941216130614060506BA
:102250000895092E0394000C11F4882352F0BB0F4B
:1022600040F4BF2B11F460FF04C06F5F7F4F8F4FAE
:102270009F4F089557FD9058440F551F59F05F3FE9
:1022800071F04795880F97FB991F61F09F3F79F098
:1022900087950895121613061406551FF2CF46951A
:1022A000F1DF08C0161617061806991FF1CF86959C
:1022B0007105610508940895E894BB276627772780
:1022C000CB0197F908950BD0C4CFB5DF28F0BADF62
:1022D00018F0952309F0A6CFABCF1124EECFCADFBB
:1022E000A0F3959FD1F3950F50E0551F629FF00129
:1022F000729FBB27F00DB11D639FAA27F00DB11D82
:10230000AA1F649F6627B00DA11D661F829F22270A
:10231000B00DA11D621F739FB00DA11D621F839F91
:10232000A00D611D221F749F3327A00D611D231F67
:10233000849F600D211D822F762F6A2F11249F57B5
:1023400050408AF0E1F088234AF0EE0FFF1FBB1FD8
:10235000661F771F881F91505040A9F79E3F510577
:1023600070F060CFAACF5F3FECF3983EDCF3869528
:1023700077956795B795F795E7959F5FC1F7FE2B22
:10238000880F911D9695879597F9089511F40EF48D
:102390004FCF4AC077DFD0F39923D9F3CEF39F57BD
:1023A000550B87FF51D056959795B0E020F4660FF6
:1023B000771F881FBB1F1F930F9300249001A0015C
:1023C0008001F001A0E80E0F1F1F0A1E511D601BA7
:1023D000710B8009B50B48F4600F711F801DB51F8C
:1023E0000E1B1F0B0A0A510907C02E0F3F1F4A1F61
:1023F0000E0F1F1F0A1E511D660F771F881FBB1F60
:10240000A695F795E795F8F60617170708065B07F0
:10241000211D311D411D0F911F91B901842F91582C
:10242000880F9695879508959F3F49F0915028F41D
:10243000869577956795B7959F5F80389F4F880FF2
:102440009695879597F9089591505040660F771F9C
:10245000881FD2F70895629FD001739FF001829F79
:10246000E00DF11D649FE00DF11D929FF00D839F23
:10247000F00D749FF00D659FF00D9927729FB00DC0
:10248000E11DF91F639FB00DE11DF91FBD01CF01D3
:102490001124089597FB092E07260AD077FD04D052
:1024A00049D006D000201AF4709561957F4F0895A9
:1024B000F6F7909581959F4F0895A1E21A2EAA1BD9
:1024C000BB1BFD010DC0AA1FBB1FEE1FFF1FA217E4
:1024D000B307E407F50720F0A21BB30BE40BF50BE1
:1024E000661F771F881F991F1A9469F7609570956A
:1024F000809590959B01AC01BD01CF01089597FB9C
:10250000092E05260ED057FD04D0D7DF0AD0001CB7
:1025100038F450954095309521953F4F4F4F5F4F80
:102520000895F6F790958095709561957F4F8F4F40
:102530009F4F0895AA1BBB1B51E107C0AA1FBB1FD9
:10254000A617B70710F0A61BB70B881F991F5A953F
:10255000A9F780959095BC01CD010895EE0FFF1F5E
:0C2560000590F491E02D0994F894FFCF51
:10256C000A0D726561643A2000244750524D4300B5
:10257C00475053206973206C6F636174696E6720D8
:10258C00796F75004172726976616C00506173737A
:10259C00776F72643A20313233343536004E6F2007
:1025AC004D6F7265205472696573004C6566742EAC
:1025BC0020534F525259210052657475726E20741B
:1025CC006F2053656E64657200496E636F7272653D
:1025DC0063742E20596F75200061726520002E00E7
:1025EC006B6D206F66660020417474656D7074733A
:1025FC000052656D61696E696E67210043616C63A1
:10260C00756C6174696E670044697374616E63659F
:10261C00001EE70742B3ACEBC2CDCCCC3D30751EEF
:10262C00000600000000000A028C0EA40E00000040
:10263C00000A028C0EA40E000000003F0E8C0EA4AB
:02264C000E007E
:00000001FF
