:100000000C9462000C948A000C948A000C948A0070
:100010000C948A000C948A000C948A000C948A0038
:100020000C948A000C948A000C948A000C94D101E0
:100030000C948A000C948A000C948A000C948A0018
:100040000C94EA020C948A000C948A000C948A00A6
:100050000C948A000C948A000C948A000C948A00F8
:100060000C948A000C948A000000000024002700F1
:100070002A0000000000250028002B0000000000DE
:1000800023002600290004040404040404040202DA
:100090000202020203030303030301020408102007
:1000A0004080010204081020010204081020000012
:1000B0000007000201000003040600000000000029
:1000C00000008E0211241FBECFEFD8E0DEBFCDBFEF
:1000D00011E0A0E0B1E0E6ECF9E002C005900D927D
:1000E000A030B107D9F711E0A0E0B1E001C01D9246
:1000F000A233B107E1F710E0C4ECD0E004C02297CE
:10010000FE010E94DD04C23CD107C9F70E94E30250
:100110000C94E1040C940000FC01809100018C30EF
:1001200090F480838F5F80930001815090E0FC0108
:10013000EE0FFF1FE80FF91FEF5FFE4F88EB9BE00C
:100140009283818308958FEF80830895FC0120813D
:100150002C30C0F58181992787FD909548E850E0C3
:10016000481B590B440F551F440F551F6417750743
:1001700084F08281992787FD909548E552E0481BDD
:10018000590B440F551F440F551F641775070CF486
:10019000AB01CA01AA2797FDA095BA2F0697A1091E
:1001A000B109880F991FAA1FBB1F4FB7F89430E001
:1001B000F901EE0FFF1FE20FF31FEF5FFE4F928377
:1001C00081834FBF0895AF92BF92CF92DF92EF929B
:1001D000FF920F931F93CF93DF93EC019B0182E07B
:1001E000603278070CF048C077FF03C020E030E0B1
:1001F00005C0653B710514F024EB30E000D000D061
:10020000B901882777FD8095982F2981332727FD0D
:100210003095B8E8AB2EB12CA21AB30AAA0CBB1CBD
:10022000AA0CBB1CCC24B7FCC094DC2CEA81FF27B1
:10023000E7FDF09528E532E02E1B3F0B220F331F20
:10024000220F331F442737FD4095542FEDB7FEB7DB
:10025000218332834383548320E030E040E050E048
:10026000E4EBEE2EF12C012D112D0E9403049B01D5
:100270000F900F900F900F90CE01B9010E94A60031
:10028000DF91CF911F910F91FF90EF90DF90CF9072
:10029000BF90AF900895CF92DF92EF92FF921F939D
:1002A000CF93DF93EC01162F7A01690188818C309E
:1002B00008F064C0862F61E00E949603888190E078
:1002C000FC01EE0FFF1FE80FF91FEF5FFE4F1F73DA
:1002D0008081807C812B808380E292E08E199F094F
:1002E00064E070E00E947704698380E699E08C19ED
:1002F0009D0964E070E00E9477046A83A8818A2FD8
:100300006CE00E946B04682F70E0AB01440F551F36
:10031000460F571F440F551F440F551F20E030E074
:10032000C901840F951FFC01EE0FFF1FE80FF91F95
:10033000EF5FFE4F808186FD15C02F5F3F4F2C3051
:10034000310571F724C01092800082E08093810013
:100350001092850010928400B19A80916F008260A3
:1003600080936F008A2F90E0FC01EE0FFF1FE80FD3
:10037000F91FEF5FFE4F8081806480838881DF9169
:10038000CF911F91FF90EF90DF90CF900895672B52
:10039000D1F2E8CF40E252E020E639E00E944B0182
:1003A00008951F920F920FB60F9211242F933F932F
:1003B0004F935F936F937F938F939F93AF93BF936D
:1003C000EF93FF938091250187FF05C01092850070
:1003D000109284002BC020912501332727FD3095F2
:1003E0008091000190E02817390704F580912501DC
:1003F000992787FD9095FC01EE0FFF1FE80FF91F6D
:10040000EF5FFE4F808186FF11C080912501992703
:1004100087FD9095FC01EE0FFF1FE80FF91FEF5FBE
:10042000FE4F80818F7360E00E94B60380912501AA
:100430008F5F8093250120912501332727FD30957B
:100440008091000190E0281739070CF04EC0809190
:1004500025018C300CF049C020918400309185003A
:1004600080912501992787FD9095FC01EE0FFF1FD4
:10047000E80FF91FEF5FFE4F81819281280F391F2E
:10048000309389002093880080912501992787FD6A
:100490009095FC01EE0FFF1FE80FF91FEF5FFE4F75
:1004A000808186FF2AC080912501992787FD90953C
:1004B000FC01EE0FFF1FE80FF91FEF5FFE4F808179
:1004C0008F7361E00E94B60318C080E49CE905C008
:1004D0008091840090918500049690938900809388
:1004E00088008FEF8093250108C08091840090914F
:1004F000850084549C4948F3EBCFFF91EF91BF9165
:10050000AF919F918F917F916F915F914F913F91AB
:100510002F910F900FBE0F901F90189586E291E0DB
:100520000E948C0008950F931F9306E211E0C8010A
:1005300064EB70E00E94E30068EB7BE080E090E019
:100540000E943203C80160E070E00E94E30068EBA3
:100550007BE080E090E00E943203C80164EB70E031
:100560000E94E30068EB7BE080E090E00E943203B1
:10057000C80168E770E00E94E30068EB7BE080E080
:1005800090E00E943203C8016CE370E00E94E30037
:1005900068EB7BE080E090E00E943203C80160E0FD
:1005A00070E00E94E30068EB7BE080E090E00E9456
:1005B00032031F910F91089586E291E069E070E0A7
:1005C0000E94CA0108950E945C030E94DC020E94FE
:1005D0009302FDCF1F920F920FB60F9211242F930B
:1005E0003F938F939F93AF93BF9380912D019091F1
:1005F0002E01A0912F01B09130013091310101966F
:10060000A11DB11D232F2D5F2D3720F02D570196F1
:10061000A11DB11D2093310180932D0190932E01D6
:10062000A0932F01B09330018091290190912A016C
:10063000A0912B01B0912C010196A11DB11D8093B9
:10064000290190932A01A0932B01B0932C01BF9113
:10065000AF919F918F913F912F910F900FBE0F906F
:100660001F901895EF92FF920F931F937B018C01BF
:100670008FB7F89440912D0150912E0160912F0178
:10068000709130018FBF2FB7F89480912D01909118
:100690002E01A0912F01B09130012FBF841B950B2B
:1006A000A60BB70BE816F9060A071B0760F71F91A0
:1006B0000F91FF90EF900895789484B5826084BD87
:1006C00084B5816084BD85B5826085BD85B5816056
:1006D00085BDEEE6F0E0808181608083E1E8F0E0B6
:1006E000808182608083808181608083E0E8F0E0A7
:1006F000808181608083E1EBF0E080818460808391
:10070000E0EBF0E0808181608083EAE7F0E08081C7
:100710008460808380818260808380818160808327
:100720008081806880831092C1000895282F30E076
:10073000C90186569F4FFC0194912A573F4FF901FA
:100740008491882391F0E82FF0E0EE0FFF1FE85925
:10075000FF4FA591B491662329F48C91909589233C
:100760008C9308958C91892B8C930895482F50E099
:10077000CA0182559F4FFC012491CA0186569F4FA2
:10078000FC0194914A575F4FFA0134913323D1F120
:10079000222331F1233021F4809180008F7705C02E
:1007A000243031F4809180008F7D8093800018C0C8
:1007B000213019F484B58F7704C0223021F484B538
:1007C0008F7D84BD0DC0263021F48091B0008F77DD
:1007D00005C0273029F48091B0008F7D8093B00050
:1007E000E32FF0E0EE0FFF1FEE58FF4FA591B491FD
:1007F000662329F48C91909589238C9308958C918C
:10080000892B8C9308952F923F924F925F926F9213
:100810007F928F929F92AF92BF92CF92DF92EF9290
:10082000FF920F931F93DF93CF93CDB7DEB73B01BA
:100830004C0119012A016D897E898F89988D6A1969
:100840007B098C099D09621A730A840A950AA4011E
:1008500093010E944C04E218F30804091509A80149
:1008600097010E948A042A0D3B1D4C1D5D1DB90194
:10087000CA01CF91DF911F910F91FF90EF90DF9010
:10088000CF90BF90AF909F908F907F906F905F9030
:100890004F903F902F900895629FD001739FF00179
:1008A000829FE00DF11D649FE00DF11D929FF00D00
:1008B000839FF00D749FF00D659FF00D9927729F37
:1008C000B00DE11DF91F639FB00DE11DF91FBD01C2
:1008D000CF0111240895991B79E004C0991F961740
:1008E00008F0961B881F7A95C9F78095089597FBA5
:1008F000092E07260AD077FD04D027D006D0002085
:100900001AF4709561957F4F0895F6F7909581954B
:100910009F4F089597FB092E05260ED057FD04D052
:1009200028D00AD0001C38F4509540953095219578
:100930003F4F4F4F5F4F0895F6F790958095709514
:1009400061957F4F8F4F9F4F0895AA1BBB1B51E1AD
:1009500007C0AA1FBB1FA617B70710F0A61BB70B2F
:10096000881F991F5A95A9F780959095BC01CD01D4
:100970000895A1E21A2EAA1BBB1BFD010DC0AA1FE0
:10098000BB1FEE1FFF1FA217B307E407F50720F0F8
:10099000A21BB30BE40BF50B661F771F881F991F73
:1009A0001A9469F760957095809590959B01AC01BC
:1009B000BD01CF010895EE0FFF1F0590F491E02DCA
:0609C0000994F894FFCF3A
:00000001FF
