:100000000C9462000C948A000C948A000C948A0070
:100010000C948A000C948A000C948A000C948A0038
:100020000C948A000C948A000C948A000C948A0028
:100030000C948A000C948A000C948A000C948A0018
:100040000C9444020C948A000C940E030C948A00C5
:100050000C948A000C948A000C948A000C948A00F8
:100060000C948A000C948A0008000000BE92244977
:10007000123EABAAAA2ABECDCCCC4C3E00000080DA
:10008000BEABAAAAAA3E00000000BF000000803F4D
:100090000000000000084178D3BB4387D1133D190D
:1000A0000E3CC3BD4282AD2B3E68EC8276BED98F3A
:1000B000E1A93E4C80EFFFBE01C4FF7F3F0000007E
:1000C0000000570411241FBECFEFD8E0DEBFCDBF24
:1000D00011E0A0E0B1E0E4EDF1E102C005900D9285
:1000E000AA34B107D9F711E0AAE4B1E001C01D922A
:1000F000AE3EB107E1F710E0C4ECD0E004C02297B7
:10010000FE010E94E408C23CD107C9F70E943D02EB
:100110000C94E8080C9400008BED91E040E855E267
:1001200060E070E00E944B0308958F929F92AF921F
:10013000BF92CF92DF92EF92FF920F931F93CF93D4
:10014000DF937B018C01842E0E949B069B01AC01F6
:10015000EB018BED91E0B9010E94B105882009F413
:1001600079C08BED91E060E071E00E94C804982CAA
:1001700081E0A82EB12CC12CD12CC601B5012AE0FA
:1001800030E040E050E00E945F085B016C019A940F
:10019000A1F7C801B70120E030E040E050E00E9444
:1001A0007E079E01442737FD4095542F88234CF04D
:1001B000CA01B9010E94CE069B01AC01C801B7017A
:1001C00006C0CA01B9010E94CE06A80197010E948B
:1001D000CE057B018C01C601B5010E94CC069B01B6
:1001E000AC01C801B7010E94C7070E94A006D62E25
:1001F000E72EF82E092F182D1150262F372F482FB4
:10020000592FC901DA01BC01CD0101C011502AE00A
:1002100030E040E050E00E949108C901DA01BC01E1
:10022000CD01611571058105910581F707C08BED41
:1002300091E062E071E00E94C80411501123B9F707
:100240008BED91E04D2D5E2D6F2D702F2AE030E06B
:100250000E94B905DF91CF911F910F91FF90EF9010
:10026000DF90CF90BF90AF909F908F9008952F9286
:100270003F924F925F926F927F928F929F92AF9236
:10028000BF92CF92DF92EF92FF920F931F93CF9383
:10029000DF93EC011C01442437FC4094542C60E0B3
:1002A00070E48CE990E0A20191010E94B308390149
:1002B0004A0180EF98EDAFEFBFEF680E791E8A1EFE
:1002C0009B1EC401B3010E94CE060E9487077B01DA
:1002D0008C0123E73FE745E759E30E94C7072BEE70
:1002E0003FEF43E95AE30E94CF055B016C01C8016F
:1002F000B70129E537E44CEB53E30E94C707A80197
:1003000097010E94C707A80197010E94C7079B0198
:10031000AC01C601B5010E94CF059B01AC0160E0B4
:1003200070E080E89FE30E9433066B017C010BEDD7
:1003300011E0C80164E071E00E94C804C801BE0178
:100340000E94B105C8016AE071E00E94C804C801BA
:1003500060E171E00E94C804C201B1010E94CE06B2
:1003600020E030E040EA50E40E94C70720E030E09F
:1003700040E85AE30E94C70745E00E949500C80183
:100380006AE171E00E94C804C801B401A3010E949F
:100390008A05C80169E271E00E94C804C701B6017C
:1003A00023E333E948E853E40E94CE05DF91CF917F
:1003B0001F910F91FF90EF90DF90CF90BF90AF9083
:1003C0009F908F907F906F905F904F903F902F9075
:1003D00008950F931F9380E00E94F0020E9437015E
:1003E00060934A0170934B0180934C0190934D01AF
:1003F00045E00E94950060914A0170914B01809107
:100400004C0190914D0120E030E040E151E40E9428
:10041000C70720E030E040EA50E40E94330620E0C5
:1004200030E040E052E40E94CF0560934A017093AF
:100430004B0180934C0190934D010BED11E0C801ED
:100440006EE271E00E94C80460914A0170914B0114
:1004500080914C0190914D0143E00E949500C801AC
:100460006DE371E00E94E70468EE73E080E090E0E5
:100470000E948C021F910F9108950E94B6020E9463
:100480008C000E94E901FDCF1F920F920FB60F92D0
:1004900011242F933F938F939F93AF93BF9380919A
:1004A000520190915301A0915401B09155013091A6
:1004B00056010196A11DB11D232F2D5F2D3720F070
:1004C0002D570196A11DB11D209356018093520115
:1004D00090935301A0935401B093550180914E0124
:1004E00090914F01A0915001B09151010196A11D31
:1004F000B11D80934E0190934F01A0935001B09392
:100500005101BF91AF919F918F913F912F910F908A
:100510000FBE0F901F901895EF92FF920F931F93AD
:100520007B018C018FB7F894409152015091530197
:1005300060915401709155018FBF2FB7F89480914D
:10054000520190915301A0915401B09155012FBFD8
:10055000841B950BA60BB70BE816F9060A071B07B9
:1005600060F71F910F91FF90EF900895789484B5F4
:10057000826084BD84B5816084BD85B5826085BD9F
:1005800085B5816085BDEEE6F0E080818160808385
:10059000E1E8F0E0808182608083808181608083F7
:1005A000E0E8F0E0808181608083E1EBF0E0808131
:1005B00084608083E0EBF0E0808181608083EAE703
:1005C000F0E080818460808380818260808380818C
:1005D000816080838081806880831092C10008954B
:1005E0008F7090913E019295990F990F907C982B66
:1005F00090937C0080917A00806480937A0080914F
:100600007A0086FDFCCF2091780040917900942FEC
:1006100080E030E0282B392BC90108951F920F92FA
:100620000FB60F9211242F933F934F935F936F93C5
:100630007F938F939F93AF93BF93EF93FF934091DB
:10064000C600E091D701F091D801CF01019660E892
:1006500070E00E947E089C018091D9019091DA019E
:100660002817390739F0E95AFE4F40833093D801F3
:100670002093D701FF91EF91BF91AF919F918F91FF
:100680007F916F915F914F913F912F910F900FBE8E
:100690000F901F9018955F926F927F928F929F920A
:1006A000AF92BF92CF92DF92EF92FF920F931F9380
:1006B000CF93DF93EC013A014B01413482E45807B8
:1006C0008FE0680780E078070CF07FC060E874E88E
:1006D0008EE190E0A40193010E94B30821503040C4
:1006E00040405040CA01B90122E030E040E050E013
:1006F0000E94B30859016A01A60195012095309521
:100700004095509594E0220F331F441F551F9A9532
:10071000D1F760E074E284EF90E00E94B308CA0170
:10072000B9012FEF30E040E050E00E945F08A401E3
:1007300093010E94B308C90181509F4F18161906F2
:100740001CF4522E5A9403C055245394521A60E05C
:1007500079E08DE390E0A40193010E94B308215059
:10076000304040405040CA01B90122E030E040E052
:1007700050E00E94B308209530954095509583E055
:10078000220F331F441F551F8A95D1F760E074E292
:1007900084EF90E00E94B308CA01B9012FEF30E066
:1007A00040E050E00E945F08A40193010E94B3085A
:1007B000C90181509F4F181619061CF4822F8150D1
:1007C00002C081E0821B851500F5E885F98581E08E
:1007D00090E00A8802C0880F991F0A94E2F780838C
:1007E00060E079E08DE390E0A40193010E94B308FA
:1007F0002150304040405040CA01B90122E030E071
:1008000040E050E00E94B30804C0E885F9851082FA
:100810009501EC81FD813083EE81FF812083EA85A3
:10082000FB85208141E050E0CA010E8402C0880FA0
:10083000991F0A94E2F7282B2083EA85FB85208103
:10084000CA010F8402C0880F991F0A94E2F7282B6F
:100850002083EA85FB858081088802C0440F551FEC
:100860000A94E2F7842B8083DF91CF911F910F913F
:10087000FF90EF90DF90CF90BF90AF909F908F90C0
:100880007F906F905F900895FC01A085B1852189CC
:100890008C9190E0022E02C0959587950A94E2F71C
:1008A00080FFF6CF0484F585E02D6083089583E40E
:1008B00091E09093DC018093DB0187E591E09093D8
:1008C000DE018093DD0185EC90E09093E001809360
:1008D000DF0184EC90E09093E2018093E10180ECF1
:1008E00090E09093E4018093E30181EC90E0909399
:1008F000E6018093E50186EC90E09093E801809317
:10090000E70184E08093E90183E08093EA0187E0D6
:100910008093EB0185E08093EC0181E08093ED0111
:1009200008950F931F93CF93DF938C01EB0109C0C0
:100930002196D801ED91FC910190F081E02DC80144
:10094000099568816623A1F7DF91CF911F910F91DF
:100950000895EF92FF920F931F93CF93DF938C0133
:100960007B01EA010CC0D7016D917D01D801ED91A9
:10097000FC910190F081E02DC80109952197209705
:1009800091F7DF91CF911F910F91FF90EF90089514
:10099000DC01ED91FC910280F381E02D0995089531
:1009A0000F931F938C01DC01ED91FC910190F0817C
:1009B000E02D6DE00995D801ED91FC910190F08159
:1009C000E02DC8016AE009951F910F9108950F93DA
:1009D0001F938C010E94C804C8010E94D0041F917B
:1009E0000F9108952F923F924F925F926F927F9254
:1009F0008F929F92AF92BF92CF92DF92EF92FF922F
:100A00000F931F93DF93CF93CDB7DEB7A0970FB6A9
:100A1000F894DEBF0FBECDBF1C016A017B014115FA
:100A200051056105710549F4DC01ED91FC910190DE
:100A3000F081E02D60E3099554C088249924540185
:100A4000422E55246624772401E010E00C0F1D1F70
:100A5000080D191DC701B601A30192010E9491085A
:100A6000F80160830894811C911CA11CB11CC70172
:100A7000B601A30192010E949108C901DA016C013B
:100A80007D01C114D104E104F104F1F681E0E82E06
:100A9000F12CEC0EFD1EE80CF91C3E010894611CC3
:100AA000711CD501C4010197A109B1096C01C818D5
:100AB000D90814C0F601EE0DFF1D60816A3010F4F4
:100AC000605D01C0695CD101ED91FC910190F08104
:100AD000E02DC10109950894E108F1086E147F0426
:100AE00049F7A0960FB6F894DEBF0FBECDBFCF91E9
:100AF000DF911F910F91FF90EF90DF90CF90BF900B
:100B0000AF909F908F907F906F905F904F903F90AD
:100B10002F900895EF92FF920F931F93CF93DF933F
:100B2000EC017A018B0177FF0FC0E881F981019018
:100B3000F081E02D6DE2099510950095F094E09418
:100B4000E11CF11C011D111DCE01B801A7012AE015
:100B50000E94F204DF91CF911F910F91FF90EF90CF
:100B60000895AB01662757FD6095762F0E948A0590
:100B70000895DC012115310541F4ED91FC910190BE
:100B8000F081E02D642F099508952A30310519F47C
:100B90000E948A0508950E94F20408955058BB27C8
:100BA000AA270ED071C162D130F067D120F031F4A4
:100BB0009F3F11F41EF457C10EF4E095E7FB4DC1C1
:100BC000E92F73D180F3BA1762077307840795077B
:100BD00018F071F49EF58BC10EF4E0950B2EBA2F30
:100BE000A02D0B01B90190010C01CA01A001112433
:100BF000FF27591B99F0593F50F4503E68F11A16DF
:100C0000F040A22F232F342F4427585FF3CF46956F
:100C100037952795A795F0405395C9F77EF41F1691
:100C2000BA0B620B730B840BBAF09150A1F0FF0F5B
:100C3000BB1F661F771F881FC2F70EC0BA0F621F47
:100C4000731F841F48F4879577956795B795F79537
:100C50009E3F08F0B3CF9395880F08F09927EE0FC9
:100C60009795879508950CD00FC107D140F0FED01D
:100C700030F021F45F3F19F0F0C0511139C1F3C0D9
:100C800014D198F39923C9F35523B1F3951B550B50
:100C9000BB27AA2762177307840738F09F5F5F4F4F
:100CA000220F331F441FAA1FA9F333D00E2E3AF090
:100CB000E0E830D091505040E695001CCAF729D0AA
:100CC000FE2F27D0660F771F881FBB1F26173707F9
:100CD0004807AB07B0E809F0BB0B802DBF01FF2729
:100CE00093585F4F2AF09E3F510568F0B6C000C18F
:100CF0005F3FECF3983EDCF3869577956795B79563
:100D0000F7959F5FC9F7880F911D9695879597F97D
:100D10000895E1E0660F771F881FBB1F62177307F6
:100D20008407BA0720F0621B730B840BBA0BEE1F0B
:100D300088F7E095089504D06894B111D9C008955A
:100D4000BCD088F09F5790F0B92F9927B751A0F0E9
:100D5000D1F0660F771F881F991F1AF0BA95C9F74F
:100D600012C0B13081F0C3D0B1E00895C0C0672F88
:100D7000782F8827B85F39F0B93FCCF386957795FF
:100D80006795B395D9F73EF49095809570956195E8
:100D90007F4F8F4F9F4F0895E89409C097FB3EF413
:100DA00090958095709561957F4F8F4F9F4F9923B8
:100DB000A9F0F92F96E9BB279395F6958795779536
:100DC0006795B795F111F8CFFAF4BB0F11F460FFF6
:100DD0001BC06F5F7F4F8F4F9F4F16C0882311F04E
:100DE00096E911C0772321F09EE8872F762F05C062
:100DF000662371F096E8862F70E060E02AF09A95FD
:100E0000660F771F881FDAF7880F9695879597F9F1
:100E10000895990F0008550FAA0BE0E8FEEF16168B
:100E20001706E807F907C0F012161306E407F507DE
:100E300098F0621B730B840B950B39F40A2661F052
:100E4000232B242B252B21F408950A2609F4A140F5
:100E5000A6958FEF811D811D089597F99F6780E802
:100E600070E060E008959FEF80EC089500240A94FC
:100E70001616170618060906089500240A94121675
:100E80001306140605060895092E0394000C11F4A8
:100E9000882352F0BB0F40F4BF2B11F460FF04C055
:100EA0006F5F7F4F8F4F9F4F089557FD9058440FAE
:100EB000551F59F05F3F71F04795880F97FB991FB9
:100EC00061F09F3F79F08795089512161306140676
:100ED000551FF2CF4695F1DF08C016161706180603
:100EE000991FF1CF86957105610508940895E894DE
:100EF000BB2766277727CB0197F908958ADF08F487
:100F00008FEF08950EF0A6C0AECF6894A6CFD5DFC0
:100F1000C8F39923D1F3C6F3DF93CF931F930F93B5
:100F2000FF92C92FDD2788232AF02197660F771FAC
:100F3000881FDAF720E030E040E85FEB9FE3883974
:100F400020F0803E30F021968F7729DEE8E6F0E051
:100F500003C025DEE5E9F0E08DD08B01BE01EC0198
:100F6000FB2E6F5771097595771F880B990B16DF4C
:100F700028E132E741E35FE316D0AF2D9801AE01DF
:100F8000FF900F911F91CF91DF911ADE7DCF0BD093
:100F90007BCF6CDF28F071DF18F0952309F05DCF6F
:100FA00062CF1124A5CF81DFA0F3959FD1F3950FD8
:100FB00050E0551F629FF001729FBB27F00DB11DDD
:100FC000639FAA27F00DB11DAA1F649F6627B00D6D
:100FD000A11D661F829F2227B00DA11D621F739F56
:100FE000B00DA11D621F839FA00D611D221F749F64
:100FF0003327A00D611D231F849F600D211D822FAB
:10100000762F6A2F11249F5750408AF0E1F08823F1
:101010004AF0EE0FFF1FBB1F661F771F881F9150FE
:101020005040A9F79E3F510570F017CF61CF5F3F49
:10103000ECF3983EDCF3869577956795B795F79531
:10104000E7959F5FC1F7FE2B880F911D96958795B9
:1010500097F908959F3F49F0915028F48695779528
:101060006795B7959F5F80389F4F880F96958795B6
:1010700097F90895DF93CF931F930F93FF92EF9209
:10108000DF927B018C01689405C0DA2EEF018BDFC3
:10109000FE01E894A5912591359145915591AEF3C6
:1010A000EF018EDDFE019701A801DA9479F7DF9058
:1010B000EF90FF900F911F91CF91DF910895629F64
:1010C000D001739FF001829FE00DF11D649FE00D40
:1010D000F11D929FF00D839FF00D749FF00D659FA1
:1010E000F00D9927729FB00DE11DF91F639FB00DA0
:1010F000E11DF91FBD01CF011124089597FB092EB1
:1011000007260AD077FD04D049D006D000201AF473
:10111000709561957F4F0895F6F7909581959F4F53
:101120000895A1E21A2EAA1BBB1BFD010DC0AA1F28
:10113000BB1FEE1FFF1FA217B307E407F50720F040
:10114000A21BB30BE40BF50B661F771F881F991FBB
:101150001A9469F760957095809590959B01AC0104
:10116000BD01CF01089597FB092E05260ED057FD2E
:1011700004D0D7DF0AD0001C38F450954095309544
:1011800021953F4F4F4F5F4F0895F6F7909580950B
:10119000709561957F4F8F4F9F4F0895AA1BBB1B82
:1011A00051E107C0AA1FBB1FA617B70710F0A61B67
:1011B000B70B881F991F5A95A9F780959095BC0188
:1011C000CD010895EE0FFF1F0590F491E02D0994D5
:0411D000F894FFCFC1
:1011D4002E0030004144433A20002F313032340095
:1011E4002C20566F6C74733A20002C20526573695E
:1011F4007374616E63653A20006F686D73002C2010
:1012040046616872656E686569743A200000010081
:0A12140000000044049104A9040046
:00000001FF
