:100000000C9421010C9449010C9449010C94490170
:100010000C9449010C9449010C947E100C944901F4
:100020000C9449010C9449010C9449010C94490128
:100030000C9449010C9449010C9449010C94490118
:100040000C94FD120C9449010C9416140C94490163
:100050000C9449010C9449010C9449010C944901F8
:100060000C9449010C9449016E6F206D6F726520EC
:1000700068616E646C6572730A0D0063616E27744B
:10008000207772697465210024505352463135310E
:100090002C30312A33460D0A002450535246313059
:1000A000332C30352C30302C30302C30312A32315A
:1000B0000D0A0024505352463130332C30342C304A
:1000C000302C30302C30312A32300D0A002450537D
:1000D00052463130332C30332C30302C30312C30F0
:1000E000312A32360D0A0024505352463130332C17
:1000F00030322C30302C30312C30312A32370D0A4E
:100100000024505352463130332C30312C30302CB7
:1001100030312C30312A32360D0A002450535246E9
:100120003130332C30302C30302C30312C30312ADF
:1001300032350D0A0024505352463130352C3030C0
:100140002A33460D0A0024505352463130302C30A9
:10015000312C343830302C30382C30312C30302A9F
:1001600030450D0A00726561647921007772697407
:10017000696E6720746F20006572726F72206F70F5
:10018000656E696E672000636F756C646E742063C2
:100190007265617465200043616E2774206F70651D
:1001A0006E202F0043616E2774206F70656E20668D
:1001B000696C65737973004E6F2070617274697435
:1001C000696F6E21004361726420696E69742E202C
:1001D0006661696C656421000D0A4750536C6F6756
:1001E0006765720000000000240027002A0000005C
:1001F0000000250028002B0000000000230026003E
:100200002900040404040404040402020202020299
:1002100003030303030301020408102040800102CA
:10022000040810200102040810200000000700024A
:10023000010000030406000000000000000094100C
:100240009B1511241FBECFEFD8E0DEBFCDBF11E05C
:10025000A0E0B1E0EAE4FFE202C005900D92A03216
:10026000B107D9F714E0A0E2B1E001C01D92AA39AC
:10027000B107E1F712E0C2E4D2E004C02297FE0128
:100280000E949F17CE33D107C9F70E94F6120C9433
:10029000A3170C940000FB01DC0102C001900D9239
:1002A00041505040D8F70895DC0101C06D93415092
:1002B0005040E0F70895FC018191861721F08823D2
:1002C000D9F7992708953197CF010895FB01DC01F3
:1002D0008D91019080190110D9F3990B0895FB01BC
:1002E000DC0101900D920020E1F70895FB01DC0193
:1002F0004150504048F001900D920020C9F701C0D4
:100300001D9241505040E0F70895FC0181E090E0DB
:100310000190061609F4CF010020D1F70197089546
:10032000FB0151915523A9F0BF01DC014D91451707
:100330004111E1F759F4CD010190002049F04D91B0
:1003400040154111C9F3FB014111EFCF81E090E06D
:10035000019708950895CB010E94A8030895CB0149
:10036000BA01422F50E00E94460A0895DF93CF93CE
:10037000CDB7DEB768970FB6F894DEBF0FBECDBF1E
:10038000FC0184819581AE014F5F5F4F0E94F308AD
:1003900068960FB6F894DEBF0FBECDBFCF91DF9148
:1003A0000895EF92FF920F931F93CF93DF93EB018A
:1003B0008A0179010BC0C701B8010E94660100974C
:1003C00029F4CE010E94AE0381E006C0CE01B70140
:1003D0000E940E04882379F7DF91CF911F910F912E
:1003E000FF90EF900895EF92FF920F931F93DF938A
:1003F000CF93CDB7DEB768970FB6F894DEBF0FBEC8
:10040000CDBF8C017E010894E11CF11C97010E9474
:10041000D101882319F420E030E005C0C801B701FC
:100420000E94DE0B9C01C90168960FB6F894DEBFEE
:100430000FBECDBFCF91DF911F910F91FF90EF9035
:100440000895FC01AB0164817581828193810E94D2
:10045000F3010895EF92FF920F931F93DF93CF93D1
:10046000CDB7DEB768970FB6F894DEBF0FBECDBF2D
:100470008C01FC01828193817E010894E11CF11CB6
:10048000B7010E94C003F80182819381B7010E94E5
:10049000B70BF8019583848320E0892B09F021E0D4
:1004A000822F68960FB6F894DEBF0FBECDBFCF91F6
:1004B000DF911F910F91FF90EF9008950F931F937D
:1004C0008C01FC01808191810E944605F801938393
:1004D000828320E0892B09F021E0822F1F910F9168
:1004E00008950F93CF93DF93EC018BE29EE06BEFC7
:1004F0007EE045E45DE02BED3FE000E00E941A0C59
:1005000099838883892B69F48BE29EE06BEF7EE010
:1005100045E45DE02BED3FE00FEF0E941A0C99835C
:10052000888320E088819981892B09F021E0822F3E
:10053000DF91CF910F9108950E946B0F0895DC0118
:100540008C91853E39F1882329F1F901208131818F
:10055000828193812817390799F4448355836683F0
:1005600077831B968C911B978F3011F080E205C02A
:100570008C918295880F807E805E808780E00895D0
:100580001B968C918F3031F02F5F3F4F318320834A
:1005900081E0089581E00895EF92FF920F931F93F9
:1005A000CF93DF93EC017A018B018881853E09F4BA
:1005B000C7C0882309F4C4C0B901F90184899589A9
:1005C000A689B7890097A105B10521F4E48AF58AC7
:1005D000068B178B6115710509F4B2C0209709F4D9
:1005E000AFC09881992309F4ABC08B858F30C9F5D2
:1005F000892F90E08F7390702DE030E0AC01429F26
:10060000C001439F900D529F900D11249C012D50CD
:100610003040AC01415050404D30510500F5FB01D8
:10062000E20FF31F898180838B8181838D81828397
:100630008F818383898584838E858583888986835A
:100640008A8987838C8980878E898187888D828734
:100650008C8D8387640F751F8E8DFB01808381E0F5
:1006600070C0FB0180818823A9F5AE01DE0180E026
:1006700090E0282F3C91303251F0FB01E80FF91F38
:1006800030832F5F019611968830910591F7FB0119
:100690008081853011F485EE808388858032B1F0C9
:1006A000FB01E20FF11D8EE28083822F8F5F2C5FB2
:1006B000FA019085903249F0FB01E80FF11D90831B
:1006C0008F5F4F5F5F4F821799F7282FFB01E20F73
:1006D000F11D10828B85FB0185879B8D80E02A8D23
:1006E00030E0822B932B978786872D8D30E040E07A
:1006F00050E0542F432F322F22278E8D90E0A0E020
:10070000B0E0DC0199278827282B392B4A2B5B2B5B
:100710008C8D90E0A0E0B0E0282B392B4A2B5B2B8E
:100720008F8D90E0A0E0B0E0B82FAA279927882706
:10073000282B392B4A2B5B2B208B318B428B538BF5
:1007400080E0DF91CF911F910F91FF90EF9008957E
:10075000FC01009711F0118210820895FC010097AE
:1007600011F480E00895138E128E81E00895FC014B
:1007700080E1DF011D928A95E9F780E190E008951C
:10078000FB01892B61F06115710549F088E1DB01FE
:100790001D928A95E9F780E1858781E0089580E0E0
:1007A0000895DF93CF9300D0CDB7DEB7FC0100975B
:1007B00069F16230710550F1660F771F80E090E0BB
:1007C0002681378140855185620F731F841F951FD5
:1007D000AE014F5F5F4F22E030E00E942B0E882376
:1007E000A9F09A8180E0298130E0282B392B21154E
:1007F000310571F08FEF273F380741F0C90140966E
:10080000079720F08FEF283F380710F020E030E006
:10081000C9010F900F90CF91DF9108952F923F92D1
:100820004F925F926F927F928F929F92AF92BF9200
:10083000CF92DF92EF92FF920F931F93DF93CF93AC
:10084000CDB7DEB7E1970FB6F894DEBF0FBECDBFD0
:100850003C012B01009709F4D6C06115710509F41C
:10086000D2C0DC015096AD90BC9051978D909C9079
:1008700011975A96ED91FC915B97FBA7EAA7A114FB
:10088000B10409F03FC08114910409F4B9C0FE011C
:10089000319689E0DF011D928A95E9F72AA53BA5EB
:1008A0003C832B83D40152966D917D918D919C91C7
:1008B00055971AE0A12EB12CAC0EBD1E56960D9187
:1008C0001C915797061B170BA50120E230E0AFE9FA
:1008D000EA2EA2E0FA2E6F010E94FB0E882309F493
:1008E0008FC02D813E814F815885211531054105ED
:1008F000510509F485C0A1C0F2018081882309F067
:10090000B2C07EC08114910409F47AC0DC011F9644
:100910008C9184FF75C0F40120883188C101A0E06A
:10092000B0E08CA79DA7AEA7BFA7DE011196B9AB1B
:10093000A8ABEEEFFFEFAE0EBF1EB50180E090E07A
:1009400022E030E0A20EB31E2CA53DA54EA55FA56A
:100950000E941A179B01AC01D40156966D917D91AE
:100960008D919C915997620F731F841F951FE8A961
:10097000F9A929E011922A95E9F7AAA5BBA5BC839C
:10098000AB83AE01465F5F4F20E230E08101FFE9BB
:10099000EF2EF2E0FF2E6E010894C11CD11C0E94C4
:1009A000FB0E882369F12D813E814F8158852115E9
:1009B00031054105510549F4C401B5010E94D10337
:1009C0005C01009709F0B5CF1BC088E1F2011192DC
:1009D0008A95E9F70985CA01B901AE01465F5F4F03
:1009E00020E230E010E0ECECEE2EE2E0FE2E6201C0
:1009F0000E94FB0E882321F0D2018C918823D1F52F
:100A0000F301138E128E80E0E1960FB6F894DEBFEC
:100A10000FBECDBFCF91DF911F910F91FF90EF904F
:100A2000DF90CF90BF90AF909F908F907F906F900E
:100A30005F904F903F902F90089588E1D2011D92D2
:100A40008A95E9F70985CA01B901A50120E230E0DC
:100A500010E0BCECEB2EB2E0FB2E62010E94FB0E1C
:100A6000882371F249CFF301828D938D0196938F84
:100A7000828F0AC0D3015A968D919C915B97019603
:100A80005B969C938E935A9781E0BECF2F923F92B4
:100A90004F925F926F927F928F929F92AF92BF928E
:100AA000CF92DF92EF92FF920F931F93DF93CF933A
:100AB000CDB7DEB7E0970FB6F894DEBF0FBECDBF5F
:100AC0006C01009709F48FC1AAC1E1E3F1E08AE16A
:100AD000DF011D928A95E9F7D0923201C09231016F
:100AE000D60119962D913D914D915C911C97B9E0DD
:100AF000220F331F441F551FBA95D1F72AA33BA3DA
:100B00004CA35DA3CA01B901655F7F4F8F4F9F4F13
:100B1000AE014F5F5F4F29E130E00E942B0E88232A
:100B200009F484C1A9804A80BB81BEA30C81FD80E9
:100B30001E813F81588469847A849D8580E02C855C
:100B4000E22FF0E0E82BF92B8E883F88288DE98C86
:100B5000309709F46BC1432D50E060E070E0962FB0
:100B6000852F742F662769A77AA78BA79CA7822F4A
:100B700090E0A0E0B0E0BC015527442789A59AA5E4
:100B8000ABA5BCA5842B952BA62BB72B482D50E0ED
:100B900060E070E0842B952BA62BB72B89A79AA732
:100BA000ABA7BCA78E2D90E0A0E0B0E0782F662721
:100BB0005527442789A59AA5ABA5BCA5842B952BC1
:100BC000A62BB72B89A79AA7ABA7BCA70097A1050F
:100BD000B10589F4972D80E0662D70E0682B792BA4
:100BE0006115710509F422C1CB01A0E0B0E089A72D
:100BF0009AA7ABA7BCA7942D80E02A2C3324282ADF
:100C0000392A952D80E0A32FB0E0A82BB92BB8A7E7
:100C1000AFA39F2D80E0202F30E0822B932B9C01EF
:100C200040E050E02A8F3B8F4C8F5D8FBF0180E00A
:100C300090E0212F30E040E050E00E941A176E8FC4
:100C40007F8F88A399A3E9A4FAA40BA51CA54A8DBC
:100C50005B8D6C8D7D8DE41AF50A060B170B6E8D7E
:100C60007F8D88A199A1E61AF70A080B190BC1011B
:100C700001972FA138A545E0220F331F4A95E1F7D0
:100C8000820F931FB1010E94391780E090E0E61AAD
:100C9000F70A080B190B7EA1272F30E040E050E047
:100CA000C801B7010E94601729013A01D301C201AE
:100CB000855F9F40A040B0408050904FA040B04022
:100CC00008F0B4C086E0D60118968C9393E3892E81
:100CD00091E0992E88E1F40111928A95E9F751018A
:100CE000CC24DD2469A57AA58BA59CA5A601950138
:100CF0000E941A1760933301709334018093350179
:100D000090933601C601B5012A8D3B8D4C8D5D8DCA
:100D10000E941A177B018C012AA13BA14CA15DA165
:100D2000E20EF31E041F151FE0923701F092380106
:100D30000093390110933A0142E050E060E070E026
:100D4000440E551E661E771E440C551C661C771CEF
:100D500040923B0150923C0160923D0170923E01F5
:100D60003092400120923F015EA1852F90E0BC01AE
:100D7000269EC001279E900D369E900D11249093C3
:100D80004201809341016E8D7F8D88A199A1A601BA
:100D900095010E941A176E0D7F1D801F911F609391
:100DA0004301709344018093450190934601AFA1A4
:100DB000B8A59D0140E050E005E0220F331F441F1D
:100DC000551F0A95D1F7620F731F841F951F6093FB
:100DD0004701709348018093490190934A0194011F
:100DE0002250304002C020E030E0C901E0960FB64A
:100DF000F894DEBF0FBECDBFCF91DF911F910F9151
:100E0000FF90EF90DF90CF90BF90AF909F908F902A
:100E10007F906F905F904F903F902F9008958091BA
:100E2000310190913201892BF1F64FCE10923201AF
:100E300010923101D8CF2F923F924F925F926F92D2
:100E40007F928F929F92AF92BF92CF92DF92EF925A
:100E5000FF920F931F93DF93CF93CDB7DEB72A97FF
:100E60000FB6F894DEBF0FBECDBF2C013B011A01B7
:100E7000009709F4C6C0DC0116962D913D914D9165
:100E80005C9119972F83388749875A871A968D91D5
:100E90009D910D90BC91A02DB695A795979587959E
:100EA0009E838D83410100E010E0AA24BB2440C052
:100EB000C501880F991F6C01EE24FF242F8138850E
:100EC00049855A85C20ED31EE41EF51EC701B60120
:100ED000AE014F5F5F4F22E030E00E942B0E88236F
:100EE00009F48FC08981882301F58A818823E9F478
:100EF0008214930421F43FEF39833A8302C00983BB
:100F00001A83C701B601AE014F5F5F4F22E030E0A8
:100F10000E94450D882391F008948108910881145E
:100F2000910411F485010CC085010894A11CB11C29
:100F30004D815E81A416B50608F4BACF8928F1F474
:100F400052E06516710408F45EC009831A83660CCA
:100F5000771CB30180E090E02F81388549855A8560
:100F6000620F731F841F951FAE014F5F5F4F22E01A
:100F700030E00E94450D882309F045C0023011057C
:100F800008F43FC0D20116966D907D908D909C9094
:100F9000199793E0492E512C4C0E5D1E000F111F26
:100FA0006801EE24FF24C60CD71CE81CF91CC701FD
:100FB000B601A20122E030E00E942B0E882309F145
:100FC000BC80AA248B81082F10E00A291B29011557
:100FD0001105C9F0C8014096089798F0BFEF083F87
:100FE0001B0710F000E010E01B821C82C701B60155
:100FF000A20122E030E00E94450D0115110571F6B5
:1010000002C000E010E0C8012A960FB6F894DEBFD7
:101010000FBECDBFCF91DF911F910F91FF90EF9049
:10102000DF90CF90BF90AF909F908F907F906F9008
:101030005F904F903F902F9008959F92AF92BF92F4
:10104000CF92DF92EF92FF920F931F93DF93CF9394
:10105000CDB7DEB7A0970FB6F894DEBF0FBECDBFF9
:101060008B01892B09F4ABC06115710509F4A7C088
:10107000DB015496AD90BD90CD90DC905797E62E55
:10108000912EFB0101900020E9F73197FE2EF61A10
:10109000CE01019660E270E04BE050E00E94540106
:1010A000C8016EE270E00E948501FC010097E1F04A
:1010B0009C012F5F3F4F81818823B1F0D9010D90B2
:1010C0000020E9F71197A21BB30B8A2F8095F80E29
:1010D000BE01675F7F4F4A2FA43008F043E0CB0189
:1010E000B90150E00E944B01CE010196B8E0BF1556
:1010F00038F06E2D792D4F2D50E00E944B0128C005
:10110000DC018E2D992D9C01F90188E001900D9252
:101110008150E1F7F8012685822F90E0203A40F4D3
:10112000F4E095958795FA95E1F7982F905D07C0C3
:10113000E4E095958795EA95E1F7982F9F59822FDE
:101140008F708A3010F4805D01C08F599F8388872B
:101150008981853E11F485E0898385E1FE013C9615
:10116000DF011D928A95E9F7F80185858C878685D0
:101170008B8F87858C8F80898D8F80899189A289BB
:10118000B389292F3A2F4B2F55272E8F9D014427A6
:1011900055272F8F8B2F9927AA27BB2788A3C601F6
:1011A000B501AE014F5F5F4F20E230E00E94450D78
:1011B00090E0882309F491E081E0982701C090E055
:1011C000892FA0960FB6F894DEBF0FBECDBFCF918A
:1011D000DF911F910F91FF90EF90DF90CF90BF9024
:1011E000AF909F9008952F923F924F925F926F928F
:1011F0007F928F929F92AF92BF92CF92DF92EF92A7
:10120000FF920F931F93DF93CF93CDB7DEB7659710
:101210000FB6F894DEBF0FBECDBF7C018B015D8B96
:101220004C8B009709F418C16115710509F414C1BC
:10123000DB018C91882309F40FC1452B09F40CC103
:10124000DC88CD88C7016C897D890E940E048823C3
:1012500059F0C8016D2D7C2D0E946601009791F711
:10126000F701138E128EF8C0D7012D903C9088E1C3
:10127000EC89FD8911928A95E9F78D2D9C2DB80195
:101280004CE050E00E9476012114310409F4CCC0F6
:10129000AC89BD89FD0101900020E9F7EA1BFB0B39
:1012A000CF010B966DE070E00E943917F62FFF5FBB
:1012B000FA8BD70150964D905C9051974114510490
:1012C00051F0EE24FF248701AA24BB246501662483
:1012D000772443010BC0F101A288B388C488D58864
:1012E000E688F788008D118D350146011B8AAE1402
:1012F000BF04C006D10609F06FC04114510409F4BF
:1013000093C0A114B104C104D104F1F1C101B2012F
:101310000E94D1030097B9F5C101B20141E050E04C
:101320000E941B078C01009709F47EC0D1015096E2
:10133000ED90FC90519702501040B80180E090E091
:101340000E5F1F4F970140E050E00E941A173B01CB
:101350004C01F10186899789A08DB18D680E791EA7
:101360008A1E9B1E0230110508F461C0C401B3013E
:10137000AE014E5F5F4F970107EB13E0EE24FF24B1
:101380000E94DB0F54C02C01D1015096ED90FC90CF
:10139000519700E010E0EEEFFFEF4E0E5F1EB2013E
:1013A00080E090E022E030E0420E531EA801970159
:1013B0000E941A175B016C01F10186899789A08D43
:1013C000B18DA80EB91ECA1EDB1EEA0CFB1C0C1D3B
:1013D0001D1D350146011B8AC601B501AE014F5FD7
:1013E0005F4F21E030E00E942B0E8823E9F08981D5
:1013F000853E11F0882379F4FB89FF5FFB8B2A89F6
:10140000F217A8F480E290E0A0E0B0E0A80EB91EC8
:10141000CA1EDB1E6CCF80E290E0A0E0B0E0A80E18
:10142000B91ECA1EDB1E60CF662477244301AC8937
:10143000BD8954966D927D928D929C9257976114BE
:1014400071048104910441F0C101BD010E941D0895
:10145000882319F081E001C080E065960FB6F8940A
:10146000DEBF0FBECDBFCF91DF911F910F91FF90D7
:10147000EF90DF90CF90BF90AF909F908F907F9034
:101480006F905F904F903F902F9008952F923F92D2
:101490004F925F926F927F928F929F92AF92BF9284
:1014A000CF92DF92EF92FF920F931F93DF93CF9330
:1014B000CDB7DEB728970FB6F894DEBF0FBECDBF0D
:1014C0006C017C836B835E834D83009709F433C189
:1014D000672B09F430C1452B09F42DC1DC015A9664
:1014E0008D909D90AD90BC905D9752968D919D9101
:1014F0000D90BC91A02D88159905AA05BB0508F48F
:101500001AC1D601ED91FC911197208931893A8356
:1015100029835E968D919C915F9798878F8319019F
:1015200044245524892B09F053C050960D90BC914A
:10153000A02DB887AF83AB2BA9F481149104A1042B
:10154000B10409F0F8C0CF0160E070E041E050E084
:101550000E941B0798878F83F601918B808B892BC4
:1015600009F4E9C0D6015A96ED90FD900D911C91B9
:101570005D97E114F1040105110529F529C0E21870
:10158000F30804091509F601808191816F8178853E
:101590000E94D103009719F098878F8314C0E1143B
:1015A000F1040105110509F0C6C0D6018D919C9189
:1015B0006F81788541E050E00E941B07009709F495
:1015C000BAC098878F83E214F30404051505B8F6B2
:1015D000C501B401A20191010E9460173B018D80F9
:1015E0009E80A980BA80A618B7088A149B0408F4C4
:1015F0005401730100E010E0D601ED91FC91868961
:101600009789A08DB18DE80EF91E0A1F1B1FEF816F
:10161000F8853297BF0180E090E03296F887EF833B
:10162000A20191010E941A17E60EF71E081F191F4A
:10163000C801B7014B815C8195010E94450D88234B
:1016400009F44FC08A189B08C501A0E0B0E0F6017C
:10165000228D338D448D558D280F391F4A1F5B1FF6
:10166000D6015A962D933D934D935C935D97C5019A
:10167000860D971DE981FA818E179F0708F18D91DC
:101680009C916F8178850E94D103009719F098870B
:101690008F8314C08114910459F0D6018D919C91CF
:1016A0006F81788541E050E00E941B07009721F48C
:1016B000F601178E168E15C098878F8366247724BF
:1016C000EF81F885D6015F96FC93EE935E978114C7
:1016D000910439F02B813C812A0D3B1D3C832B83E7
:1016E00080CFF601828D938DA48DB58DE288F3882D
:1016F00004891589E816F9060A071B07B8F4828BD6
:10170000938BA48BB58B81919191BF010E941D0891
:10171000882361F4D6015A968D909C905B978E1821
:101720009F08F601E28EF38E048F158F4D815E8146
:101730004819590902C04FEF5FEFCA0128960FB64A
:10174000F894DEBF0FBECDBFCF91DF911F910F91F7
:10175000FF90EF90DF90CF90BF90AF909F908F90D1
:101760007F906F905F904F903F902F9008959C01D5
:10177000FB01009731F06115710519F0858584FD35
:1017800016C020E030E0C9010895ADE6B1E088E17F
:1017900001900D928150E1F730936C0120936B0121
:1017A00010928601109285012BE631E0ECCF8091FA
:1017B0006B0190916C01892B21F7E7CFCF93DF93D9
:1017C0009C01FB01009761F06115710549F0858569
:1017D00084FF29C005C088E690E061E00E943610D1
:1017E00020E030E0C901DF91CF910895CDE4D1E050
:1017F000DF0188E10D9009928150E1F730934C01AF
:1018000020934B01109265011092660110926701BE
:10181000109268018685978590936A01809369018B
:101820002BE431E0DFCF80914B0190914C01892B6B
:1018300091F6DCCF8F929F92AF92BF92CF92DF92C0
:10184000EF92FF920F93DF93CF93CDB7DEB7609700
:101850000FB6F894DEBF0FBECDBF7C016B015A01FD
:10186000490104300CF08CC007FD1DC0602F7727A4
:1018700067FD7095E4E0660F771FEA95E1F7625423
:101880007E4F882777FD8095982FAE014F5F5F4F81
:1018900020E130E0F7010995882309F471C08D81BA
:1018A000882309F46DC080912801882309F068C05D
:1018B0007CC08D81809328012A8530E040E050E093
:1018C000542F432F322F22278B8590E0A0E0B0E0E9
:1018D000DC0199278827282B392B4A2B5B2B8985FC
:1018E00090E0A0E0B0E0282B392B4A2B5B2B8C85B5
:1018F00090E0A0E0B0E0B82FAA2799278827282BEE
:10190000392B4A2B5B2B2093290130932A014093DA
:101910002B0150932C012E8530E040E050E0542FF5
:10192000432F322F22278F8590E0A0E0B0E0DC012A
:1019300099278827282B392B4A2B5B2B8D8590E004
:10194000A0E0B0E0282B392B4A2B5B2B888990E054
:10195000A0E0B0E0B82FAA2799278827282B392B99
:101960004A2B5B2B20932D0130932E0140932F01A6
:101970005093300103C08FEF809328019F0102C074
:1019800020E030E0C90160960FB6F894DEBF0FBECC
:10199000CDBFCF91DF910F91FF90EF90DF90CF906F
:1019A000BF90AF909F908F900895E0E2F1E081E1C9
:1019B000DF011D928A95E9F7F0922101E092200162
:1019C000D0922301C0922201B0922501A09224015D
:1019D000909227018092260107FF6BCFCCCF282F52
:1019E0008FEF8EBD0DB407FEFDCF8DB58F778DBD0A
:1019F0008EB5822F80648EBD0DB407FEFDCF8DB5F0
:101A00008F778DBD872F9927AA27BB278EBD0DB451
:101A100007FEFDCF8DB58F778DBDCB01AA27BB27E4
:101A20008EBD0DB407FEFDCF8DB58F778DBDBB2765
:101A3000A72F962F852F8EBD0DB407FEFDCF8DB538
:101A40008F778DBD4EBD0DB407FEFDCF8DB58F7761
:101A50008DBD222311F08FEF01C085E98EBD0DB43D
:101A600007FEFDCF8DB58F778DBD90E02FEF2EBD9A
:101A70000DB407FEFDCF8DB58F778DBD8EB58F3F31
:101A800019F49F5F9A3099F708952F923F924F92E1
:101A90005F926F927F928F929F92AF92BF92CF92FE
:101AA000DF92EF92FF920F931F93CF93DF934B013F
:101AB0005C012A01390133243A9422242394B0C0D2
:101AC000E12C4EEFF42E4FEF042F4FEF142FE820B0
:101AD000F9200A211B213FEFC32E31E0D32EC8206D
:101AE000D920C0E0D2E0CC19DD096C167D0608F4DF
:101AF000E30120918703309188034091890350913D
:101B00008A03E216F3060407150749F180918B0357
:101B1000882359F4CA01B90147E851E020E032E0D6
:101B20000E94450D882309F480C0C114D10421F41A
:101B300082E0C030D80758F4C801B70147E851E047
:101B400020E032E00E942B0E882309F46EC0E09260
:101B50008703F09288030093890310938A0387E830
:101B6000481681E0580671F0960129573E4FC90189
:101B7000B201AE010E944B0110928B036C167D06E0
:101B800009F455C02A9888E1B801A7010E94EF0C1A
:101B9000882311F02A9A49C08EEF8EBD0DB407FE3E
:101BA000FDCF8DB58F778DBDE7E8F1E081918EBDDA
:101BB0000DB407FEFDCF8DB58F778DBD83E0E7387F
:101BC000F807A1F73EBC0DB407FEFDCF8DB58F77AA
:101BD0008DBD3EBC0DB407FEFDCF8DB58F778DBD9D
:101BE0003EBC0DB407FEFDCF8DB58F778DBD8EB594
:101BF0008F3FB1F78EBD0DB407FEFDCF4C0E5D1EBD
:101C00008DB58F778DBD8EB52A9A6C1A7D0ACE015F
:101C1000A0E0B0E0880E991EAA1EBB1E20928B0386
:101C20006114710409F04CCF02C080E001C081E072
:101C3000DF91CF911F910F91FF90EF90DF90CF90A8
:101C4000BF90AF909F908F907F906F905F904F90DC
:101C50003F902F9008953F924F925F926F927F92A4
:101C60008F929F92AF92BF92CF92DF92EF92FF92AC
:101C70000F931F93CF93DF934B015C016A012901FE
:101C800033243A94A1C0E12C6EEFF62E6FEF062FAD
:101C90006FEF162FE820F9200A211B215FEF652E38
:101CA00051E0752E68207920C0E0D2E0C619D7092E
:101CB0004C165D0608F4E2012091870330918803F9
:101CC0004091890350918A03E216F3060407150731
:101CD00009F467C080918B03882359F4CA01B901C4
:101CE00047E851E020E032E00E94450D882309F4E6
:101CF00070C02A9881E1B801A7010E94EF0C8823E7
:101D000039F003C02150304029F42A9A80E061C0A4
:101D100020E030E03EBC0DB407FEFDCF8DB58F77DF
:101D20008DBD8EB58E3F71F7E7E8F1E03EBC0DB496
:101D300007FEFDCF8DB58F778DBD8EB5808383E097
:101D4000E638F80711F03196F1CFE0928703F09270
:101D500088030093890310938A03930129573E4F08
:101D6000C601B901AE010E944B013EBC0DB407FE95
:101D7000FDCF8DB58F778DBD8EB53EBC0DB407FE02
:101D8000FDCF8DB58F778DBD8EB52A9A3EBC0DB433
:101D900007FEFDCFCC0EDD1E8DB58F778DBD8EB5C8
:101DA0000AC0930129573E4FC601B901AE010E94F6
:101DB0004B01CC0EDD1E4C1A5D0ACE01A0E0B0E056
:101DC000880E991EAA1EBB1E4114510409F05BCF58
:101DD00081E0DF91CF911F910F91FF90EF90DF9005
:101DE000CF90BF90AF909F908F907F906F905F90BB
:101DF0004F903F9008952F923F924F925F926F9233
:101E00007F928F929F92AF92BF92CF92DF92EF928A
:101E1000FF920F931F93DF93CF9300D000D0CDB7E5
:101E2000DEB74B015C013A013C832B832701DA8248
:101E3000C98241155105A9F12115310591F102170A
:101E4000130778F1E114F10461F119013094219440
:101E500031083394021B130B6901EE24FF24C501E2
:101E6000B401A3012B813C810E942B0E8823C9F071
:101E7000C301B501A40129813A81F20109958823A2
:101E800091F0020D131D8B819C81800F911F2B817E
:101E90003C818217930738F08C0C9D1CAE1CBF1C34
:101EA000DECF80E001C081E00F900F900F900F9087
:101EB000CF91DF911F910F91FF90EF90DF90CF9026
:101EC000BF90AF909F908F907F906F905F904F905A
:101ED0003F902F900895CF93DF93239A259A229ACB
:101EE00024982A9A83E58CBD8DB58E7F8DBD20E028
:101EF00030E09FEF9EBD0DB407FEFDCF8DB58F770F
:101F00008DBD8EB52F5F3F4F2A30310599F72A9846
:101F1000C0E0D0E080E040E050E060E070E00E948F
:101F2000EF0C813031F081E0CF3FD807E1F021960E
:101F3000F1CFC0E0D0E081E040E050E060E070E050
:101F40000E94EF0C80FF06C08FE7CF3FD80759F003
:101F50002196F1CF80E140E052E060E070E00E9425
:101F6000EF0C882319F02A9A80E022C02A9A8CB5B7
:101F70008C7F8CBD8DB581608DBD8FEF9FEFAFEFF6
:101F8000BFEF8093870390938803A0938903B09356
:101F90008A0381E080938B0360E070E080E090E052
:101FA00047E851E020E032E00E942B0E811181E0F1
:101FB000DF91CF9108954F925F926F927F928F92AF
:101FC0009F92AF92BF92CF92DF92EF92FF920F93C8
:101FD0001F93CF93DF935B016C014A01E901380144
:101FE00027014115510571F10115110559F1FF2422
:101FF0002115310511F5FF24F3941FC0C401B6016A
:10200000A5019201F30109958C010097E9F0FF20E9
:1020100019F4C817D907B0F0C601B501A401980199
:102020000E94450D882371F0C801A0E0B0E0A80E21
:10203000B91ECA1EDB1EC01BD10BFF20F9F620976C
:10204000E9F602C080E001C081E0DF91CF911F91ED
:102050000F91FF90EF90DF90CF90BF90AF909F9047
:102060008F907F906F905F904F9008950F931F9384
:10207000CF93DF93EC01062F10E005C087E894E0D2
:102080000E940C161F5FFE01E10FF11D6491662393
:10209000A9F7002351F087E894E06AE00E94141643
:1020A00087E894E06DE00E941416DF91CF911F91B4
:1020B0000F910895982F2EE01EC0809160008861D6
:1020C0008093600020936000809160008064809322
:1020D000600083B7817F846083BF83B7816083BFE3
:1020E00083B7816083BF889583B78E7F83BF83B7B3
:1020F0008E7F83BF9150992301F708951F920F920D
:102100000FB60F9211248F93EF93FF93E0E6F0E068
:102110008081886180831082FF91EF918F910F9071
:102120000FBE0F901F9018958CE893E00E94AA01B3
:102130000895CF93DF9387E894E00E944C1588239D
:1021400009F4D9C087E894E00E946015982F809127
:10215000F703882331F007C087E894E00E946015F8
:10216000982F9432C9F78091F703C82FD0E0DE0191
:10217000A455BC4F9C939A3009F0ACC011961C92A8
:1021800011979E0124503040F901E455FC4F8081A5
:102190008A3239F087E894E04AE250E060E070E08B
:1021A000A4C0FD013397E081E03354F0EA3314F426
:1021B000E05307C0E13424F0E7341CF4E75301C0D6
:1021C000E0E0C655DC4F8881803354F08A3314F444
:1021D000805307C0813424F087341CF4875301C036
:1021E00080E0E295E07FE80F81E005C0A455BC4F98
:1021F0008C91E827892FA82FB0E0982F9F5FA21716
:10220000B307A4F38093F903EE2339F087E894E051
:102210004EE750E060E070E068C08CEA93E060E078
:1022200071E00E9490010097E9F08CEA93E06CE283
:1022300070E00E945B0101966CE270E00E945B011D
:10224000FC018181863539F484E060E00E94C91385
:102250001092F80307C084E061E00E94C91381E096
:102260008093F80387E894E06CEA73E00E941C1600
:1022700087E894E043E250E060E070E020E030E086
:102280000E94051783E061E00E94C9136091AA03D0
:102290007091AB038CE893E04CEA53E02091F70394
:1022A0000E94AF019091F703891731F08BE790E01E
:1022B00061E00E9436101FC083E060E00E94C913F5
:1022C0001092F70385E00E945A1082E060E00E94BD
:1022D000C91311C08F5F8093F7038A3461F487E8D4
:1022E00094E041E250E060E070E020E030E00E94E5
:1022F00005171092F703DF91CF9108951F93182FC0
:102300001092F90321C084E061E00E94C91383E0C8
:1023100061E00E94C91364E670E080E090E00E94F2
:10232000451384E060E00E94C91383E060E00E94EE
:10233000C91364E670E080E090E00E94451380914C
:10234000F9038F5F8093F9038091F9038117D8F225
:102350000BC068EC70E080E090E00E944513809133
:10236000F9038F5F8093F9038091F9038A3040F677
:10237000F0CF1F938091600088618093600010927D
:10238000600087E894E040EC52E160E070E00E9479
:10239000531488ED91E061E00E94361084E061E022
:1023A0000E94A91383E061E00E94A91382E061E02A
:1023B0000E94A91382E060E00E94C9138CE893E0B8
:1023C0000E949C02882341F485EC91E061E00E9428
:1023D000361081E00E947E118CE893E00E94710229
:1023E000882341F487EB91E061E00E94361082E09F
:1023F0000E947E118CE893E00E945E02882341F4E3
:1024000084EA91E061E00E94361083E00E947E1130
:102410008CE893E066E071E00E942A02882341F490
:1024200087E991E061E00E94361084E00E947E110D
:102430008CEA93E068E071E00E946F0180E3809392
:10244000B20310E328C01093B30316C08CE893E0E6
:102450006CEA73E00E942102BC019093AB0380936D
:10246000AA03009769F08CE893E00E94AB01809189
:10247000B3038F5F8093B3038091B3038A3334F344
:102480008091AA039091AB03892B49F08091B2030C
:102490008F5F8093B2038091B2038A33A4F28CE8F9
:1024A00093E06CEA73E00E94B601882371F487E838
:1024B00091E060E00E94361087E894E06CEA73E0F7
:1024C0000E943B1685E00E947E118CE893E06CEA46
:1024D00073E00E9421029093AB038093AA03892B9F
:1024E000B1F488E791E060E00E94361087E894E05C
:1024F0006CEA73E00E943B166091AA037091AB03F3
:102500008CE893E00E94AB0186E00E947E118CE68D
:1025100091E060E00E94361087E894E06CEA73E096
:102520000E943B1685E691E061E00E94361086E449
:1025300091E060E00E9436106AEF70E080E090E089
:102540000E94451385E391E060E00E9436106AEF37
:1025500070E080E090E00E9445138BE191E060E044
:102560000E9436106AEF70E080E090E00E94451310
:1025700081E091E060E00E9436106AEF70E080E058
:1025800090E00E94451387EE90E060E00E943610D4
:102590006AEF70E080E090E00E9445138DEC90E0DF
:1025A00060E00E9436106AEF70E080E090E00E94E8
:1025B000451383EB90E060E00E9436106AEF70E014
:1025C00080E090E00E94451389E990E060E00E947D
:1025D00036106AEF70E080E090E00E94451388E8D2
:1025E00090E060E00E9436101F9108950E946F13E2
:1025F0000E94B9110E949910FDCF1F920F920FB641
:102600000F9211242F933F938F939F93AF93BF9378
:102610008091FE039091FF03A0910004B09101040A
:10262000309102040196A11DB11D232F2D5F2D377E
:1026300020F02D570196A11DB11D20930204809317
:10264000FE039093FF03A0930004B09301048091D4
:10265000FA039091FB03A091FC03B091FD03019656
:10266000A11DB11D8093FA039093FB03A093FC037B
:10267000B093FD03BF91AF919F918F913F912F91A7
:102680000F900FBE0F901F901895EF92FF920F932F
:102690001F937B018C018FB7F8944091FE035091FA
:1026A000FF0360910004709101048FBF2FB7F8946D
:1026B0008091FE039091FF03A0910004B09101046A
:1026C0002FBF841B950BA60BB70BE816F9060A075C
:1026D0001B0760F71F910F91FF90EF90089578947A
:1026E00084B5826084BD84B5816084BD85B5826017
:1026F00085BD85B5816085BDEEE6F0E080818160B5
:102700008083E1E8F0E08081826080838081816065
:102710008083E0E8F0E0808181608083E1EBF0E09D
:10272000808184608083E0EBF0E080818160808341
:10273000EAE7F0E08081846080838081826080832A
:102740008081816080838081806880831092C10055
:102750000895282F30E0C9018A5E9D4FFC019491B5
:102760002E5F3D4FF9018491882391F0E82FF0E02E
:10277000EE0FFF1FEC51FE4FA591B491662329F493
:102780008C91909589238C9308958C91892B8C93AF
:102790000895482F50E0CA01865D9D4FFC012491A9
:1027A000CA018A5E9D4FFC0194914E5F5D4FFA0114
:1027B00034913323D1F1222331F1233021F480915C
:1027C00080008F7705C0243031F4809180008F7DA8
:1027D0008093800018C0213019F484B58F7704C02D
:1027E000223021F484B58F7D84BD0DC0263021F4C4
:1027F0008091B0008F7705C0273029F48091B00018
:102800008F7D8093B000E32FF0E0EE0FFF1FE251C9
:10281000FE4FA591B491662329F48C91909589235C
:102820008C9308958C91892B8C9308951F920F920D
:102830000FB60F9211242F933F934F935F936F9393
:102840007F938F939F93AF93BF93EF93FF934091A9
:10285000C600E0918304F0918404CF01019660E802
:1028600070E00E944D179C01809185049091860430
:102870002817390739F0ED5FFB4F4083309384040C
:1028800020938304FF91EF91BF91AF919F918F911E
:102890007F916F915F914F913F912F910F900FBE5C
:1028A0000F901F9018955F926F927F928F929F92D8
:1028B000AF92BF92CF92DF92EF92FF920F931F934E
:1028C000CF93DF93EC013A014B01413482E4580786
:1028D0008FE0680780E078070CF07FC060E874E85C
:1028E0008EE190E0A40193010E94821721503040B4
:1028F00040405040CA01B90122E030E040E050E0E1
:102900000E94821759016A01A60195012095309510
:102910004095509594E0220F331F441F551F9A9500
:10292000D1F760E074E284EF90E00E948217CA0160
:10293000B9012FEF30E040E050E00E941A17A401E7
:1029400093010E948217C90181509F4F18161906E2
:102950001CF4522E5A9403C055245394521A60E02A
:1029600079E08DE390E0A40193010E948217215049
:10297000304040405040CA01B90122E030E040E020
:1029800050E00E948217209530954095509583E045
:10299000220F331F441F551F8A95D1F760E074E260
:1029A00084EF90E00E948217CA01B9012FEF30E056
:1029B00040E050E00E941A17A40193010E94821780
:1029C000C90181509F4F181619061CF4822F81509F
:1029D00002C081E0821B851500F5E885F98581E05C
:1029E00090E00A8802C0880F991F0A94E2F780835A
:1029F00060E079E08DE390E0A40193010E948217EA
:102A00002150304040405040CA01B90122E030E03E
:102A100040E050E00E94821704C0E885F9851082EA
:102A20009501EC81FD813083EE81FF812083EA8571
:102A3000FB85208141E050E0CA010E8402C0880F6E
:102A4000991F0A94E2F7282B2083EA85FB852081D1
:102A5000CA010F8402C0880F991F0A94E2F7282B3D
:102A60002083EA85FB858081088802C0440F551FBA
:102A70000A94E2F7842B8083DF91CF911F910F910D
:102A8000FF90EF90DF90CF90BF90AF909F908F908E
:102A90007F906F905F900895DC011296ED91FC910C
:102AA0001397E058FF4F8191919180589F4F20815B
:102AB0003181821B930B60E870E00E944D170895EE
:102AC000CF93DF93DC011296ED91FC911397EF0108
:102AD000CE57DF4F48815981E058FF4F8081918167
:102AE000E058F0408417950719F42FEF3FEF0CC022
:102AF000E40FF51F2081CA01019660E870E00E9492
:102B00004D179983888330E0C901DF91CF910895F3
:102B1000FC01A085B18521898C9190E0022E02C034
:102B2000959587950A94E2F780FFF6CF0484F585A2
:102B3000E02D6083089589E191E09093880480936B
:102B4000870483E094E090938A048093890485EC61
:102B500090E090938C0480938B0484EC90E09093AD
:102B60008E0480938D0480EC90E090939004809389
:102B70008F0481EC90E0909392048093910486EC12
:102B800090E0909394048093930484E08093950460
:102B900083E08093960487E08093970485E0809398
:102BA000980481E08093990408950F931F93CF9325
:102BB000DF938C01EB0109C02196D801ED91FC91C6
:102BC0000190F081E02DC801099568816623A1F785
:102BD000DF91CF911F910F910895EF92FF920F9384
:102BE0001F93CF93DF938C017B01EA010CC0D701C7
:102BF0006D917D01D801ED91FC910190F081E02D66
:102C0000C80109952197209791F7DF91CF911F91E6
:102C10000F91FF90EF900895DC01ED91FC910190F0
:102C2000F081E02D09950895DC01ED91FC91019072
:102C3000F081E02D09950895DC01ED91FC91028071
:102C4000F381E02D099508950F931F938C01DC010A
:102C5000ED91FC910190F081E02D6DE00995D80196
:102C6000ED91FC910190F081E02DC8016AE0099599
:102C70001F910F9108950F931F938C010E941C16B2
:102C8000C8010E9424161F910F9108952F923F9220
:102C90004F925F926F927F928F929F92AF92BF926C
:102CA000CF92DF92EF92FF920F931F93DF93CF9318
:102CB000CDB7DEB7A0970FB6F894DEBF0FBECDBF7D
:102CC0001C016A017B01411551056105710549F43B
:102CD000DC01ED91FC910190F081E02D60E309951C
:102CE00054C0882499245401422E55246624772404
:102CF00001E010E00C0F1D1F080D191DC701B601E2
:102D0000A30192010E946017F80160830894811C5E
:102D1000911CA11CB11CC701B601A30192010E9424
:102D20006017C901DA016C017D01C114D104E1040D
:102D3000F104F1F681E0E82EF12CEC0EFD1EE80C1A
:102D4000F91C3E010894611C711CD501C401019756
:102D5000A109B1096C01C818D90814C0F601EE0D1B
:102D6000FF1D60816A3010F4605D01C0695CD101B3
:102D7000ED91FC910190F081E02DC101099508943D
:102D8000E108F1086E147F0449F7A0960FB6F89495
:102D9000DEBF0FBECDBFCF91DF911F910F91FF908E
:102DA000EF90DF90CF90BF90AF909F908F907F90EB
:102DB0006F905F904F903F902F900895EF92FF9209
:102DC0000F931F93CF93DF93EC017A018B0177FF71
:102DD0000FC0E881F9810190F081E02D6DE2099545
:102DE00010950095F094E094E11CF11C011D111D5B
:102DF000CE01B801A7012AE00E944616DF91CF91CB
:102E00001F910F91FF90EF900895DC01211531057E
:102E100041F4ED91FC910190F081E02D642F099532
:102E200008952A30310519F40E94DE1608950E9493
:102E300046160895629FD001739FF001829FE00DB6
:102E4000F11D649FE00DF11D929FF00D839FF00D29
:102E5000749FF00D659FF00D9927729FB00DE11DD5
:102E6000F91F639FB00DE11DF91FBD01CF011124B2
:102E70000895AA1BBB1B51E107C0AA1FBB1FA617C1
:102E8000B70710F0A61BB70B881F991F5A95A9F713
:102E900080959095BC01CD01089597FB092E0726DA
:102EA0000AD077FD04D0E5DF06D000201AF4709533
:102EB00061957F4F0895F6F7909581959F4F0895FE
:102EC000A1E21A2EAA1BBB1BFD010DC0AA1FBB1F2E
:102ED000EE1FFF1FA217B307E407F50720F0A21BA0
:102EE000B30BE40BF50B661F771F881F991F1A940D
:102EF00069F760957095809590959B01AC01BD0137
:102F0000CF01089597FB092E05260ED057FD04D05A
:102F1000D7DF0AD0001C38F45095409530952195A4
:102F20003F4F4F4F5F4F0895F6F7909580957095FE
:102F300061957F4F8F4F9F4F0895EE0FFF1F0590B4
:0A2F4000F491E02D0994F894FFCFFE
:102F4A004750524D43002F004750534C4F473030A3
:102F5A002E54585400000000008815D515ED1500B0
:00000001FF
