:100000000C9463000C948B000C948B000C948B006C
:100010000C948B000C948B000C948B000C948B0034
:100020000C948B000C948B000C948B000C94D201DC
:100030000C948B000C948B000C948B000C948B0014
:100040000C9442030C948B000C944F040C948B0082
:100050000C948B000C948B000C948B000C948B00F4
:100060000C948B000C948B000000000024002700EF
:100070002A0000000000250028002B0000000000DE
:1000800023002600290004040404040404040202DA
:100090000202020203030303030301020408102007
:1000A0004080010204081020010204081020000012
:1000B0000007000201000003040600000000000029
:1000C00000008F02980511241FBECFEFD8E0DEBFDD
:1000D000CDBF11E0A0E0B1E0EEEAFFE002C0059084
:1000E0000D92AA32B107D9F711E0AAE2B1E001C03E
:1000F0001D92A73FB107E1F710E0C6ECD0E004C0C5
:100100002297FE010E94D107C23CD107C9F70E9485
:100110003B030C94D5070C940000FC0180912A014C
:100120008C3090F480838F5F80932A01815090E01F
:10013000FC01EE0FFF1FE80FF91FE55DFE4F88EB96
:100140009BE09283818308958FEF80830895FC0163
:1001500020812C30C0F58181992787FD909548E852
:1001600050E0481B590B440F551F440F551F64178F
:10017000750784F08281992787FD909548E552E0C4
:10018000481B590B440F551F440F551F6417750723
:100190000CF4AB01CA01AA2797FDA095BA2F0697C8
:1001A000A109B109880F991FAA1FBB1F4FB7F89467
:1001B00030E0F901EE0FFF1FE20FF31FE55DFE4F88
:1001C000928381834FBF0895AF92BF92CF92DF9207
:1001D000EF92FF920F931F93CF93DF93EC019B015C
:1001E00082E0603278070CF048C077FF03C020E05F
:1001F00030E005C0653B710514F024EB30E000D021
:1002000000D0B901882777FD8095982F2981332761
:1002100027FD3095B8E8AB2EB12CA21AB30AAA0C70
:10022000BB1CAA0CBB1CCC24B7FCC094DC2CEA8100
:10023000FF27E7FDF09528E532E02E1B3F0B220F4C
:10024000331F220F331F442737FD4095542FEDB73E
:10025000FEB7218332834383548320E030E040E0C3
:1002600050E0E4EBEE2EF12C012D112D0E94F7064B
:100270009B010F900F900F900F90CE01B9010E943B
:10028000A700DF91CF911F910F91FF90EF90DF902A
:10029000CF90BF90AF900895CF92DF92EF92FF92F0
:1002A0001F93CF93DF93EC01162F7A0169018881A8
:1002B0008C3008F064C0862F61E00E94E2038881E0
:1002C00090E0FC01EE0FFF1FE80FF91FE55DFE4F08
:1002D0001F738081807C812B808380E292E08E1965
:1002E0009F0964E070E00E946B07698380E699E0F3
:1002F0008C199D0964E070E00E946B076A83A881F5
:100300008A2F6CE00E945F07682F70E0AB01440FFA
:10031000551F460F571F440F551F440F551F20E010
:1003200030E0C901840F951FFC01EE0FFF1FE80F9D
:10033000F91FE55DFE4F808186FD15C02F5F3F4FA1
:100340002C30310571F724C01092800082E0809338
:1003500081001092850010928400B19A80916F0004
:10036000826080936F008A2F90E0FC01EE0FFF1FE8
:10037000E80FF91FE55DFE4F8081806480838881EE
:10038000DF91CF911F91FF90EF90DF90CF90089574
:10039000672BD1F2E8CF40E252E020E639E00E943C
:1003A0004C0108951F920F920FB60F9211242F93B4
:1003B0003F934F935F936F937F938F939F93AF93ED
:1003C000BF93EF93FF9380914F0187FF05C0109279
:1003D0008500109284002BC020914F01332727FD08
:1003E000309580912A0190E02817390704F5809113
:1003F0004F01992787FD9095FC01EE0FFF1FE80F35
:10040000F91FE55DFE4F808186FF11C080914F018D
:10041000992787FD9095FC01EE0FFF1FE80FF91F4C
:10042000E55DFE4F80818F7360E00E940204809141
:100430004F018F5F80934F0120914F01332727FD9C
:10044000309580912A0190E0281739070CF04EC0B2
:1004500080914F018C300CF049C020918400309184
:10046000850080914F01992787FD9095FC01EE0F43
:10047000FF1FE80FF91FE55DFE4F81819281280F74
:10048000391F309389002093880080914F0199276C
:1004900087FD9095FC01EE0FFF1FE80FF91FE55D4A
:1004A000FE4F808186FF2AC080914F01992787FDEA
:1004B0009095FC01EE0FFF1FE80FF91FE55DFE4F61
:1004C00080818F7361E00E94020418C080E49CE97F
:1004D00005C08091840090918500049690938900D6
:1004E000809388008FEF80934F0108C08091840033
:1004F0009091850084549C4948F3EBCFFF91EF9194
:10050000BF91AF919F918F917F916F915F914F912B
:100510003F912F910F900FBE0F901F90189580E57F
:1005200091E00E948D0008958F929F92AF92BF92AA
:10053000CF92DF92EF92FF920F931F93CF93DF93AF
:1005400080E00E94C403EC0181E00E94C4034C01DE
:1005500000D000D06091530170915401882777FD3D
:100560008095982F23EB30E040E050E0EDB7FEB7E8
:10057000218332834383548320E030E040E050E025
:10058000F4EBEF2EF12C012D112DE1E0AE2EB12C6C
:10059000C12CD12C0E94F7069B01709354016093EB
:1005A0005301CE0188199909909356018093550102
:1005B0000F900F900F900F90893C91057CF0B9013E
:1005C0006B5F7F4F709354016093530180E591E01E
:1005D0000E94E4008DE060E00E940204C4018C1BD4
:1005E0009D0B893C91058CF06091530170915401F1
:1005F00065507040709354016093530180E591E021
:100600000E94E4008DE060E002C08DE061E00E94A5
:10061000020484EE91E060E071E00E94090684EE3D
:1006200091E0BE010E94E70684EE91E06FE071E088
:100630000E94090684EE91E0B4010E94E706DF9172
:10064000CF911F910F91FF90EF90DF90CF90BF90CF
:10065000AF909F908F90089584EE91E040E855E22E
:1006600060E070E00E948C0480E591E069E070E059
:100670000E94CB0108950E948A030E942C030E94CD
:100680009402FDCF1F920F920FB60F9211242F9359
:100690003F938F939F93AF93BF9380915B01909112
:1006A0005C01A0915D01B0915E0130915F01019606
:1006B000A11DB11D232F2D5F2D3720F02D57019641
:1006C000A11DB11D20935F0180935B0190935C019C
:1006D000A0935D01B0935E01809157019091580104
:1006E000A0915901B0915A010196A11DB11D8093AD
:1006F000570190935801A0935901B0935A01BF91AB
:10070000AF919F918F913F912F910F900FBE0F90BE
:100710001F901895789484B5826084BD84B58160FB
:1007200084BD85B5826085BD85B5816085BDEEE6F9
:10073000F0E0808181608083E1E8F0E08081826088
:100740008083808181608083E0E8F0E08081816047
:100750008083E1EBF0E0808184608083E0EBF0E077
:10076000808181608083EAE7F0E08081846080831B
:1007700080818260808380818160808380818068C5
:1007800080831092C10008958F7090911F019295FF
:10079000990F990F907C982B90937C0080917A0010
:1007A000806480937A0080917A0086FDFCCF20914E
:1007B000780040917900942F80E030E0282B392B8D
:1007C000C9010895282F30E0C90186569F4FFC01CA
:1007D00094912A573F4FF9018491882391F0E82F93
:1007E000F0E0EE0FFF1FE859FF4FA591B49166238B
:1007F00029F48C91909589238C9308958C91892B61
:100800008C930895482F50E0CA0182559F4FFC01F8
:100810002491CA0186569F4FFC0194914A575F4F1D
:10082000FA0134913323D1F1222331F1233021F421
:10083000809180008F7705C0243031F48091800052
:100840008F7D8093800018C0213019F484B58F7794
:1008500004C0223021F484B58F7D84BD0DC02630C4
:1008600021F48091B0008F7705C0273029F4809162
:10087000B0008F7D8093B000E32FF0E0EE0FFF1FFC
:10088000EE58FF4FA591B491662329F48C91909571
:1008900089238C9308958C91892B8C9308951F92B2
:1008A0000F920FB60F9211242F933F934F935F93A4
:1008B0006F937F938F939F93AF93BF93EF93FF9328
:1008C0004091C600E091E001F091E101CF01019675
:1008D00060E870E00E946B079C018091E2019091BA
:1008E000E3012817390739F0E05AFE4F408330936F
:1008F000E1012093E001FF91EF91BF91AF919F91B2
:100900008F917F916F915F914F913F912F910F90B8
:100910000FBE0F901F9018955F926F927F928F92EB
:100920009F92AF92BF92CF92DF92EF92FF920F937E
:100930001F93CF93DF93EC013A014B01413482E4E2
:1009400058078FE0680780E078070CF07FC060E808
:1009500074E88EE190E0A40193010E94A007215069
:10096000304040405040CA01B90122E030E040E050
:1009700050E00E94A00759016A01A6019501209547
:1009800030954095509594E0220F331F441F551F1A
:100990009A95D1F760E074E284EF90E00E94A0079E
:1009A000CA01B9012FEF30E040E050E00E9440075B
:1009B000A40193010E94A007C90181509F4F1816FE
:1009C00019061CF4522E5A9403C055245394521AFB
:1009D00060E079E08DE390E0A40193010E94A0071C
:1009E0002150304040405040CA01B90122E030E07F
:1009F00040E050E00E94A00720953095409550952A
:100A000083E0220F331F441F551F8A95D1F760E002
:100A100074E284EF90E00E94A007CA01B9012FEFB1
:100A200030E040E050E00E944007A40193010E94A2
:100A3000A007C90181509F4F181619061CF4822F78
:100A4000815002C081E0821B851500F5E885F9859B
:100A500081E090E00A8802C0880F991F0A94E2F7AB
:100A6000808360E079E08DE390E0A40193010E942F
:100A7000A0072150304040405040CA01B90122E057
:100A800030E040E050E00E94A00704C0E885F9850E
:100A900010829501EC81FD813083EE81FF812083FE
:100AA000EA85FB85208141E050E0CA010E8402C046
:100AB000880F991F0A94E2F7282B2083EA85FB858B
:100AC0002081CA010F8402C0880F991F0A94E2F79F
:100AD000282B2083EA85FB858081088802C0440F8B
:100AE000551F0A94E2F7842B8083DF91CF911F91E9
:100AF0000F91FF90EF90DF90CF90BF90AF909F90BD
:100B00008F907F906F905F900895FC01A085B185D4
:100B100021898C9190E0022E02C0959587950A94C8
:100B2000E2F780FFF6CF0484F585E02D6083089519
:100B300084E291E09093E5018093E40180E691E006
:100B40009093E7018093E60185EC90E09093E901B2
:100B50008093E80184EC90E09093EB018093EA01AC
:100B600080EC90E09093ED018093EC0181EC90E0BB
:100B70009093EF018093EE0186EC90E09093F10169
:100B80008093F00184E08093F20183E08093F3018D
:100B900087E08093F40185E08093F50181E0809304
:100BA000F60108950F931F93CF93DF938C01EB0110
:100BB00009C02196D801ED91FC910190F081E02DC2
:100BC000C801099568816623A1F7DF91CF911F9134
:100BD0000F910895EF92FF920F931F93CF93DF939E
:100BE0008C017B01EA010CC0D7016D917D01D80118
:100BF000ED91FC910190F081E02DC80109952197BC
:100C0000209791F7DF91CF911F910F91FF90EF9077
:100C10000895DC01ED91FC910280F381E02D0995AE
:100C200008950F931F938C01DC01ED91FC910190CD
:100C3000F081E02D6DE00995D801ED91FC910190D6
:100C4000F081E02DC8016AE009951F910F91089588
:100C50002F923F924F925F926F927F928F929F92CC
:100C6000AF92BF92CF92DF92EF92FF920F931F93BA
:100C7000DF93CF93CDB7DEB7A0970FB6F894DEBF62
:100C80000FBECDBF1C016A017B01411551056105F5
:100C9000710549F4DC01ED91FC910190F081E02DAA
:100CA00060E3099554C0882499245401422E5524A8
:100CB0006624772401E010E00C0F1D1F080D191D9C
:100CC000C701B601A30192010E947E07F80160836B
:100CD0000894811C911CA11CB11CC701B601A30181
:100CE00092010E947E07C901DA016C017D01C114E5
:100CF000D104E104F104F1F681E0E82EF12CEC0ED0
:100D0000FD1EE80CF91C3E010894611C711CD50104
:100D1000C4010197A109B1096C01C818D90814C010
:100D2000F601EE0DFF1D60816A3010F4605D01C0B8
:100D3000695CD101ED91FC910190F081E02DC10140
:100D400009950894E108F1086E147F0449F7A0960C
:100D50000FB6F894DEBF0FBECDBFCF91DF911F91CC
:100D60000F91FF90EF90DF90CF90BF90AF909F904A
:100D70008F907F906F905F904F903F902F9008954D
:100D8000EF92FF920F931F93CF93DF93EC017A01C1
:100D90008B0177FF0FC0E881F9810190F081E02D90
:100DA0006DE2099510950095F094E094E11CF11C1A
:100DB000011D111DCE01B801A7012AE00E942806DD
:100DC000DF91CF911F910F91FF90EF9008950F93B6
:100DD0001F938C01AB01662757FD6095762F0E940B
:100DE000C006C8010E9411061F910F9108952F920D
:100DF0003F924F925F926F927F928F929F92AF92AB
:100E0000BF92CF92DF92EF92FF920F931F93DF93E7
:100E1000CF93CDB7DEB73B014C0119012A016D8993
:100E20007E898F89988D6A197B098C099D09621AC0
:100E3000730A840A950AA40193010E944007E218EC
:100E4000F30804091509A80197010E94A0072A0DBB
:100E50003B1D4C1D5D1DB901CA01CF91DF911F9152
:100E60000F91FF90EF90DF90CF90BF90AF909F9049
:100E70008F907F906F905F904F903F902F9008954C
:100E8000629FD001739FF001829FE00DF11D649F6E
:100E9000E00DF11D929FF00D839FF00D749FF00DFA
:100EA000659FF00D9927729FB00DE11DF91F639F9B
:100EB000B00DE11DF91FBD01CF0111240895991B4B
:100EC00079E004C0991F961708F0961B881F7A9541
:100ED000C9F78095089597FB092E07260AD077FD5C
:100EE00004D049D006D000201AF4709561957F4F48
:100EF0000895F6F7909581959F4F0895A1E21A2ED7
:100F0000AA1BBB1BFD010DC0AA1FBB1FEE1FFF1FAD
:100F1000A217B307E407F50720F0A21BB30BE40BFD
:100F2000F50B661F771F881F991F1A9469F7609544
:100F30007095809590959B01AC01BD01CF010895FE
:100F400097FB092E05260ED057FD04D0D7DF0AD017
:100F5000001C38F450954095309521953F4F4F4FE8
:100F60005F4F0895F6F790958095709561957F4F46
:100F70008F4F9F4F0895AA1BBB1B51E107C0AA1FAB
:100F8000BB1FA617B70710F0A61BB70B881F991F2A
:100F90005A95A9F780959095BC01CD010895EE0F63
:0E0FA000FF1F0590F491E02D0994F894FFCF07
:100FAE004C6566742056616C75652069732000521D
:100FBE00696768742056616C75652069732000013D
:0A0FCE00000000008505D205EA05C9
:00000001FF
