:100000000C9463000C948B000C948B000C949A035A
:100010000C9468030C9439030C948B000C948B00A3
:100020000C948B000C948B000C948B000C948B0024
:100030000C948B000C948B000C948B000C948B0014
:100040000C94C7090C948B000C943D0B0C948B0002
:100050000C948B000C948B000C948B000C948B00F4
:100060000C948B000C948B000000000024002700EF
:100070002A0000000000250028002B0000000000DE
:1000800023002600290004040404040404040202DA
:100090000202020203030303030301020408102007
:1000A0004080010204081020010204081020000012
:1000B0000007000201000003040600000000000029
:1000C00000009E06860C11241FBECFEFD8E0DEBFD5
:1000D000CDBF11E0A0E0B1E0E8E6FBE102C0059091
:1000E0000D92AA33B107D9F712E0AAE3B1E001C03B
:1000F0001D92AA3BB107E1F710E0C6ECD0E004C0C6
:100100002297FE010E94AE0DC23CD107C9F70E94A2
:10011000C0090C94B20D0C940000FC01819186176B
:1001200021F08823D9F7992708953197CF010895B1
:10013000FB01DC014150504030F08D91019080195D
:1001400019F40020B9F7881B990B0895FC01168259
:10015000403488E3580780E0680780E0780709F4B6
:1001600095C0413488E3580780E0680780E078074D
:10017000BCF5403689E0580780E0680780E07807E2
:1001800009F48DC0413689E0580780E0680780E0B7
:1001900078079CF44C3281E0580780E0680780E0E3
:1001A000780709F482C0403B84E0580780E0680784
:1001B00080E0780709F07CC075C0403C82E15807B8
:1001C00080E0680780E0780709F466C0403885E27F
:1001D000580780E0680780E0780709F069C059C0D7
:1001E00042318AE7580780E0680780E0780709F421
:1001F00042C043318AE7580780E0680780E078070B
:1002000094F440308BE4580780E0680780E078077A
:10021000D1F1403880E7580780E0680780E0780730
:1002200009F046C02BC0403081EE580780E06807D7
:1002300080E07807A1F0403082EC580781E0680741
:1002400080E0780749F0403086E9580780E0680789
:1002500080E0780769F50AC088E090E004C08DEF7F
:1002600086838FE190E09583848324C08DEF86831D
:1002700083E390E0F8CF8EE390E0F5CF8CEF8683B8
:1002800086E490E0F0CF8CE690E0EDCF88E990E056
:10029000EACF82EE90E0E7CF80ED91E0E4CF8CEA08
:1002A00093E0E1CF8CE497E0DECF8CE09DE1DBCF03
:1002B00015821482A481B581109709F451C0415070
:1002C000514E604070400CF04BC03281383090F499
:1002D0008091680084608093680020916D0081E0C7
:1002E00090E002C0880F991F3A95E2F7282B2093DF
:1002F0006D002FC03E30B0F4809168008160809323
:10030000680040916B00232F30E02850304081E09E
:1003100090E002C0880F991F2A95E2F7482B40937E
:100320006B0017C03631A8F480916800826080931A
:10033000680040916C00232F30E02E50304081E067
:1003400090E002C0880F991F2A95E2F7482B40934E
:100350006C00CD0120E001972FEF8F3F9207D9F776
:1003600080913A0190913B018E179F0771F017829F
:100370009FB7F89410927C0180917C0180937D015D
:10038000F0933B01E0933A019FBF0895FC018091F7
:100390003A0190913B018E179F0779F017829FB722
:1003A000F89410927C0180917C0180937D01F09300
:1003B0003B01E0933A019FBF06C090917D0180917F
:1003C0007C01981719F42FEF3FEF0FC0E0917D01EA
:1003D000F0E0E45CFE4F208180917D0190E0019689
:1003E0008F73907080937D0130E0C9010895BF92B2
:1003F000CF92DF92EF92FF920F931F93CF93DF93F1
:10040000EC01E62E8C819D81892B09F464C08091DA
:100410003A0190913B018C179D0771F01F829FB7A5
:10042000F89410927C0180917C0180937D01D0939F
:100430003B01C0933A019FBFBFB6F8948B8160E047
:100440000E94A10A8E81992787FD90952C813D817C
:10045000820F931F20E001972FEF8F3F9207D9F76C
:10046000FF24F39400E010E0CE2CDD248F2D90E0EB
:100470008C219D21892B19F08B8161E002C08B8139
:1004800060E00E94A10A8E81992787FD90952C81BA
:100490003D81820F931FEE242E2D01972FEF8F3F6A
:1004A0009207D9F7FF0C0F5F1F4F08301105F1F6C7
:1004B0008B8161E00E94A10ABFBE8E81992787FDD2
:1004C00090952C813D81820F931F2E2D01972FEF48
:1004D0008F3F9207D9F7DF91CF911F910F91FF9036
:1004E000EF90DF90CF90BF9008950F931F938C01F2
:1004F000862FF801628360E00E94810AF801828100
:1005000061E00E94A10A1F910F9108950F931F931C
:100510008C01862FF801638361E00E94810AF80153
:10052000838161E00E94A10A1F910F910895FF92BB
:100530000F931F938C01F62E8AE291E0F8019183CC
:1005400080831582148216821782C801642F0E944C
:100550008602C8016F2D0E9475021F910F91FF90B6
:100560000895CF92DF92EF92FF920F931F93CF9354
:10057000DF938C012F933F934F935F936F937F9300
:10058000AF93BF93FC0182810E94EE0A892B09F090
:100590005FC0F8018481958196958795089720E042
:1005A00001972FEF8F3F9207D9F7FF24C0E0D0E0EB
:1005B000EE2481E0C82ED12CF80184819581069724
:1005C0002E2D01972FEF8F3F9207D9F782810E943E
:1005D000EE0A892B49F0C6010C2E02C0880F991F24
:1005E0000A94E2F7F82A09C0C6010C2E02C0880F4F
:1005F000991F0A94E2F78095F8222196C830D10518
:10060000D9F6F8018481958120E001972FEF8F3F83
:100610009207D9F780917C0120917D0190E00196AD
:100620008F73907030E08217930779F0E0917C012E
:10063000F0E0E45CFE4FF08280917C0190E0019656
:100640008F73907080937C0103C081E0F8018783F1
:10065000BF91AF917F916F915F914F913F912F919A
:10066000DF91CF911F910F91FF90EF90DF90CF908E
:1006700008951F920F920FB60F9211242F933F935C
:100680004F935F936F937F938F939F93AF93BF939A
:10069000EF93FF93E0913A01F0913B01309739F0ED
:1006A000828190E008971CF4CF010E94B102FF9173
:1006B000EF91BF91AF919F918F917F916F915F91DA
:1006C0004F913F912F910F900FBE0F901F90189553
:1006D0001F920F920FB60F9211242F933F934F93B7
:1006E0005F936F937F938F939F93AF93BF93EF939A
:1006F000FF93E0913A01F0913B01309751F08281F4
:1007000090E08E3091052CF046971CF4CF010E94AA
:10071000B102FF91EF91BF91AF919F918F917F9126
:100720006F915F914F913F912F910F900FBE0F905E
:100730001F9018951F920F920FB60F9211242F93AE
:100740003F934F935F936F937F938F939F93AF9359
:10075000BF93EF93FF93E0913A01F0913B01309703
:1007600051F0828190E0883091052CF00E971CF4B6
:10077000CF010E94B102FF91EF91BF91AF919F9184
:100780008F917F916F915F914F913F912F910F903A
:100790000FBE0F901F901895FC0160834183128259
:1007A0001382148215820895AF92BF92DF92EF9266
:1007B000FF920F931F93CF93DF93EC01B62E8A81A4
:1007C0009B81AC81BD810097A105B10581F1EE80CF
:1007D000FF808DEF9FEFE80EF91E898160E00E9497
:1007E000A10AC7010E94390ADD24D39400E010E079
:1007F000AB2CBB248D2D90E08A219B21892B19F0F5
:10080000898161E002C0898160E00E94A10AC7017C
:100810000E94390ADD0C0F5F1F4F0830110551F798
:10082000898161E00E94A10AC7010E94390ADF9113
:10083000CF911F910F91FF90EF90DF90BF90AF90FD
:1008400008952F923F924F925F926F927F928F9274
:100850009F92AF92BF92CF92DF92EF92FF920F934F
:100860001F93DF93CF93CDB7DEB7A0970FB6F89461
:10087000DEBF0FBECDBF1C016A017B0141155105D2
:100880006105710521F460E30E94D4034FC0882400
:1008900099245401422E55246624772401E010E067
:1008A0000C0F1D1F080D191DC701B601A3019201F0
:1008B0000E945B0DF80160830894811C911CA11CAF
:1008C000B11CC701B601A30192010E945B0DC901D1
:1008D000DA016C017D01C114D104E104F104F1F6E7
:1008E00081E0E82EF12CEC0EFD1EE80CF91C3E0117
:1008F0000894611C711CD501C4010197A109B109BB
:100900006C01C818D9080FC0F601EE0DFF1D6081FB
:100910006A3010F4605D01C0695CC1010E94D403BB
:100920000894E108F1086E147F0471F7A0960FB6E1
:10093000F894DEBF0FBECDBFCF91DF911F910F9115
:10094000FF90EF90DF90CF90BF90AF909F908F90EF
:100950007F906F905F904F903F902F900895EF920F
:10096000FF920F931F93CF93DF93EC017A018B01DA
:1009700077FF0BC06DE20E94D40310950095F094B0
:10098000E094E11CF11C011D111DCE01B801A7016D
:100990002AE00E942104DF91CF911F910F91FF90D7
:1009A000EF9008952115310521F4642F0E94D4039E
:1009B00008952A30310519F40E94AF0408950E9469
:1009C000210408950F931F93CF93DF938C01EB01C4
:1009D00004C02196C8010E94D40368816623C9F728
:1009E000DF91CF911F910F9108950F931F938C0169
:1009F0009A01AB01FC01228333834483558360E475
:100A000072E48FE090E00E947D0DF8013783268329
:100A1000818161E00E94A10AF801868197810E948C
:100A2000390A1F910F910895CF92DF92EF92FF92B2
:100A30000F931F937C018B016A014EEF50E060E041
:100A400070E020E030E00E94D204F70164857585F3
:100A5000882777FD8095982F0E940F0AF7018285DD
:100A60009385C81AD90A20E830E0C20ED31E081BAD
:100A7000190B035F1F4F000F111F0E0D1F1DF801F3
:100A8000408151814C0D5D1D662757FD6095762F85
:100A9000C70120E030E00E94D204F701648575852B
:100AA000882777FD8095982F0E940F0A1F910F913C
:100AB000FF90EF90DF90CF900895FF920F931F93D8
:100AC0008C01F22E0E941405C8016F2D0E94D403E0
:100AD0001F910F91FF900895EF92FF920F931F9334
:100AE0008C0179010E941405C801B7010E94E2043B
:100AF0001F910F91FF90EF9008950F931F93CF9345
:100B0000DF93EC018E899F898617970709F440C00F
:100B100077FF02C060E070E08B016536710514F06C
:100B200004E610E0CE014CE750E060E070E020E029
:100B300030E00E94D2046C857D85882777FD809502
:100B4000982F0E940F0A9801220F331FC80145E019
:100B5000880F991F4A95E1F7821B930B64E670E0BA
:100B60000E94480DAB0140585F4F662757FD6095C6
:100B7000762FCE0120E030E00E94D2046C857D8586
:100B8000882777FD8095982F0E940F0A1F8B0E8B68
:100B9000DF91CF911F910F9108950F931F938C01B7
:100BA0004EEF50E060E070E020E030E00E94D204C0
:100BB000F80164857585882777FD8095982F0E94B8
:100BC0000F0AC8014CE050E060E070E020E030E047
:100BD0000E94D204F80164857585882777FD809589
:100BE000982F0E940F0A1F910F9108950F931F9342
:100BF0008C014EEF50E060E070E020E030E00E94B9
:100C0000D204F80164857585882777FD8095982F33
:100C10000E940F0AC80141E050E060E070E020E06F
:100C200030E00E94D204F80124853585B901F3E053
:100C3000660F771FFA95E1F7220F331F620F731FBC
:100C4000882777FD8095982F0E940F0A1F910F919A
:100C50000895EF92FF921F93CF93DF93EC017B01F6
:100C6000142F888561E00E94810A6C857D85882724
:100C700077FD8095982F0E940F0ACE0140E855E23B
:100C800060E070E00E94F5046C857D85882777FD23
:100C90008095982F0E940F0A112319F0CE010E940F
:100CA000F605CE01B7010E947D05CE010E94CD055B
:100CB000DF91CF911F91FF90EF9008958F929F92B7
:100CC000AF92BF92CF92DF92EF92FF920F931F935A
:100CD0007C01B62EA72E4A0169014B2D0E94CC0340
:100CE000F701B086A1861387028784E090E095879C
:100CF000848797868686D18AC08A81E090E0938B2C
:100D0000828B958B848B84E690E0978B868B138EF9
:100D1000128E80E490E0958F848FD78EC68EC80E99
:100D2000D91ED1A2C0A21F910F91FF90EF90DF902A
:100D3000CF90BF90AF909F908F9008950F931F9387
:100D40008EE791E067E070E042E050E020E130E0C3
:100D500001E010E00E945E0682EA91E062E043E07A
:100D60000E9497021F910F9108951F9310920602FF
:100D700082EA91E00E94C601182F8F3FC9F387EAEB
:100D800092E0612F0E94F70C1A3091F380910602D5
:100D9000893511F01D3049F4E82FFF27E7FDF09564
:100DA000E655FE4F10821F910895E82FFF27E7FDBB
:100DB000F095E655FE4F10838F5F80930602D8CFE3
:100DC000AF92BF92CF92DF92EF92FF920F931F9359
:100DD000CF93DF930E94B5068AEA91E060E071E06C
:100DE00046E050E00E949800009709F08AC281EB2B
:100DF00091E09093050280930402EC01EE24FF241D
:100E000087011CC08D2D80538A30D8F4C801B701EA
:100E10002AE030E040E050E00E94290D7B018C0187
:100E20008D2D992787FD9095C097AA2797FDA095AE
:100E3000BA2FE80EF91E0A1F1B1F2196D880DD204D
:100E400009F7C801B70120E137E240E050E00E9415
:100E50005B0D20930702C801B70124E630E040E0B3
:100E600050E00E945B0DCA01B90124E630E040E089
:100E700050E00E945B0D60930802C801B70124E6B0
:100E800030E040E050E00E945B0D6093090281EB8E
:100E900091E06CE270E00E948D00FC013196F093CD
:100EA0000502E0930402319781818093190283E067
:100EB000A82EB12CAE0EBF1EB0920502A092040265
:100EC000EF0120E030E040E050E01CC02196812F8F
:100ED00080538A30D0F4CA01B9012AE030E040E002
:100EE00050E00E94290D9B01AC01812F992787FDBD
:100EF0009095C097AA2797FDA095BA2F280F391F64
:100F00004A1F5B1F1B81112309F720930D023093A9
:100F10000E0240930F025093100221153105410536
:100F2000510509F451C0CA01B90120E137E240E09E
:100F300050E00E94290D6B017C0160930D027093BB
:100F40000E0280930F0290931002C5016EE270E0D2
:100F50000E948D009C012F5F3F4F3093050220932C
:100F6000040221503040E90120E030E040E050E050
:100F70001CC02196812F80538A30D0F4CA01B90158
:100F80002AE030E040E050E00E94290D9B01AC01D6
:100F9000812F992787FD9095C097AA2797FDA09547
:100FA000BA2F280F391F4A1F5B1F1981112309F718
:100FB0002C0D3D1D4E1D5F1D20930D0230930E0222
:100FC00040930F0250931002809104029091050209
:100FD0006CE270E00E948D00FC0101969093050286
:100FE0008093040221812C3211F0209317026CE2CD
:100FF00070E00E948D005C010894A11CB11CB092AD
:101000000502A0920402EC0120E030E040E050E054
:101010001CC02196812F80538A30D0F4CA01B901B7
:101020002AE030E040E050E00E94290D9B01AC0135
:10103000812F992787FD9095C097AA2797FDA095A6
:10104000BA2F280F391F4A1F5B1F1981112309F777
:101050002093110230931202409313025093140212
:10106000211531054105510509F451C0CA01B901E5
:1010700020E137E240E050E00E94290D6B017C0145
:1010800060931102709312028093130290931402E2
:10109000C5016EE270E00E948D009C012F5F3F4F02
:1010A000309305022093040221503040E90120E0F2
:1010B00030E040E050E01CC02196812F80538A3000
:1010C000D0F4CA01B9012AE030E040E050E00E94CB
:1010D000290D9B01AC01812F992787FD9095C09721
:1010E000AA2797FDA095BA2F280F391F4A1F5B1F0B
:1010F0001981112309F72C0D3D1D4E1D5F1D2093F5
:101100001102309312024093130250931402809103
:101110000402909105026CE270E00E948D00FC01D7
:101120000196909305028093040221812C3211F0E4
:10113000209318026CE270E00E948D007C010894FC
:10114000E11CF11CF0920502E0920402EC0120E0A7
:1011500030E040E050E01CC02196812F80538A305F
:10116000D0F4CA01B9012AE030E040E050E00E942A
:10117000290D9B01AC01812F992787FD9095C09780
:10118000AA2797FDA095BA2F280F391F4A1F5B1F6A
:101190001981112309F720931502C7016CE270E051
:1011A0000E948D007C010894E11CF11CF092050264
:1011B000E0920402EC0120E030E040E050E01CC08E
:1011C0002196812F80538A30D0F4CA01B9012AE0D8
:1011D00030E040E050E00E94290D9B01AC01812FDE
:1011E000992787FD9095C097AA2797FDA095BA2FBC
:1011F000280F391F4A1F5B1F1981112309F72093FC
:101200001602C7016CE270E00E948D009C012F5F06
:101210003F4F309305022093040221503040E901F2
:10122000EE24FF2487011CC021968D2D80538A3027
:10123000D0F4C801B7012AE030E040E050E00E945D
:10124000290D7B018C018D2D992787FD9095C097E5
:10125000AA2797FDA095BA2FE80EF91E0A1F1B1F9B
:10126000D980DD2009F7C801B70120E137E240E06D
:1012700050E00E945B0D20930C02C801B70124E6E8
:1012800030E040E050E00E945B0DCA01B90124E665
:1012900030E040E050E00E945B0D60930B02C8011B
:1012A000B70124E630E040E050E00E945B0D60931F
:1012B0000A028EE791E061E070E041E050E027E053
:1012C00031E00E946C058EE791E061E070E04AE059
:1012D00050E0209115020E945D058EE791E062E0EA
:1012E00070E041E050E021E131E00E946C058EE7C2
:1012F00091E062E070E04AE050E0209116020E9426
:101300005D05DF91CF911F910F91FF90EF90DF90DE
:10131000CF90BF90AF9008950F931F938EE791E009
:1013200064E670E041E00E94290668EE73E080E028
:1013300090E00E940F0A84E061E00E94810A8DE043
:1013400061E00E94810A07EA12E0C80140EC52E124
:1013500060E070E00E947A0B82EA91E040EC52E19A
:1013600060E070E00E94A600C8016BE171E00E949D
:101370001E0D84E060E00E94A10A1F910F91089564
:101380000E94470A0E948C090E94E006FDCF1F922E
:101390000F920FB60F9211242F933F938F939F9329
:1013A000AF93BF9380911E0290911F02A0912002E3
:1013B000B0912102309122020196A11DB11D232F6F
:1013C0002D5F2D3720F02D570196A11DB11D2093C3
:1013D000220280931E0290931F02A0932002B093DA
:1013E000210280911A0290911B02A0911C02B091DF
:1013F0001D020196A11DB11D80931A0290931B023C
:10140000A0931C02B0931D02BF91AF919F918F9149
:101410003F912F910F900FBE0F901F901895EF9254
:10142000FF920F931F937B018C018FB7F89440912B
:101430001E0250911F0260912002709121028FBF05
:101440002FB7F89480911E0290911F02A091200264
:10145000B09121022FBF841B950BA60BB70BE8168A
:10146000F9060A071B0760F71F910F91FF90EF9095
:101470000895019759F0FC01EE0FFF1FEE0FFF1FBB
:1014800032978FB7F8943197F1F78FBF089578941A
:1014900084B5826084BD84B5816084BD85B5826079
:1014A00085BD85B5816085BDEEE6F0E08081816017
:1014B0008083E1E8F0E080818260808380818160C8
:1014C0008083E0E8F0E0808181608083E1EBF0E000
:1014D000808184608083E0EBF0E0808181608083A4
:1014E000EAE7F0E08081846080838081826080838D
:1014F0008081816080838081806880831092C100B8
:101500000895282F30E0C90186569F4FFC01949121
:101510002A573F4FF9018491882391F0E82FF0E09A
:10152000EE0FFF1FE859FF4FA591B491662329F4F0
:101530008C91909589238C9308958C91892B8C9311
:101540000895482F50E0CA0182559F4FFC01249115
:10155000CA0186569F4FFC0194914A575F4FFA018A
:1015600034913323D1F1222331F1233021F48091BE
:1015700080008F7705C0243031F4809180008F7D0A
:101580008093800018C0213019F484B58F7704C08F
:10159000223021F484B58F7D84BD0DC0263021F426
:1015A0008091B0008F7705C0273029F48091B0007A
:1015B0008F7D8093B000E32FF0E0EE0FFF1FEE5819
:1015C000FF4FA591B491662329F48C9190958923BE
:1015D0008C9308958C91892B8C930895682F70E0DB
:1015E000CB0182559F4FFC012491CB0186569F4F22
:1015F000FC0144916A577F4FFB019491992319F4A0
:1016000020E030E038C0222331F1233021F48091F2
:1016100080008F7705C0243031F4809180008F7D69
:101620008093800018C0213019F484B58F7704C0EE
:10163000223021F484B58F7D84BD0DC0263021F485
:101640008091B0008F7705C0273029F48091B000D9
:101650008F7D8093B000892F90E0880F991F845868
:101660009F4FFC01A591B4918C9120E030E0842340
:1016700011F021E030E0C90108951F920F920FB6DA
:101680000F9211242F933F934F935F936F937F9308
:101690008F939F93AF93BF93EF93FF934091C600B7
:1016A000E091A302F091A402CF01019660E870E0FE
:1016B0000E94480D9C018091A5029091A6022817D6
:1016C000390739F0ED5DFD4F40833093A40220933C
:1016D000A302FF91EF91BF91AF919F918F917F9165
:1016E0006F915F914F913F912F910F900FBE0F908F
:1016F0001F9018955F926F927F928F929F92AF92F8
:10170000BF92CF92DF92EF92FF920F931F93CF93EE
:10171000DF93EC013A014B01413482E458078FE03A
:10172000680780E078070CF07FC060E874E88EE11D
:1017300090E0A40193010E947D0D21503040404073
:101740005040CA01B90122E030E040E050E00E9480
:101750007D0D59016A01A6019501209530954095AE
:10176000509594E0220F331F441F551F9A95D1F7CF
:1017700060E074E284EF90E00E947D0DCA01B9013F
:101780002FEF30E040E050E00E94290DA4019301CA
:101790000E947D0DC90181509F4F181619061CF437
:1017A000522E5A9403C055245394521A60E079E0A3
:1017B0008DE390E0A40193010E947D0D2150304003
:1017C00040405040CA01B90122E030E040E050E022
:1017D0000E947D0D209530954095509583E0220F15
:1017E000331F441F551F8A95D1F760E074E284EFE0
:1017F00090E00E947D0DCA01B9012FEF30E040E07A
:1018000050E00E94290DA40193010E947D0DC901A1
:1018100081509F4F181619061CF4822F815002C068
:1018200081E0821B851500F5E885F98581E090E06F
:101830000A8802C0880F991F0A94E2F7808360E04B
:1018400079E08DE390E0A40193010E947D0D215089
:10185000304040405040CA01B90122E030E040E051
:1018600050E00E947D0D04C0E885F9851082950145
:10187000EC81FD813083EE81FF812083EA85FB8549
:10188000208141E050E0CA010E8402C0880F991FF8
:101890000A94E2F7282B2083EA85FB852081CA0180
:1018A0000F8402C0880F991F0A94E2F7282B208327
:1018B000EA85FB858081088802C0440F551F0A9481
:1018C000E2F7842B8083DF91CF911F910F91FF90DE
:1018D000EF90DF90CF90BF90AF909F908F907F90D0
:1018E0006F905F900895FC01A085B18521898C914E
:1018F00090E0022E02C0959587950A94E2F780FF4A
:10190000F6CF0484F585E02D6083089584E391E0AB
:101910009093A8028093A70283E292E09093AA0298
:101920008093A90285EC90E09093AC028093AB0287
:1019300084EC90E09093AE028093AD0280EC90E056
:101940009093B0028093AF0281EC90E09093B2024A
:101950008093B10286EC90E09093B4028093B3023E
:1019600084E08093B50283E08093B60287E08093A1
:10197000B70285E08093B80281E08093B9020895B0
:101980000F931F93CF93DF938C01EB0109C0219636
:10199000D801ED91FC910190F081E02DC8010995ED
:1019A00068816623A1F7DF91CF911F910F91089570
:1019B000EF92FF920F931F93CF93DF938C017B01E4
:1019C000EA010CC0D7016D917D01D801ED91FC9128
:1019D0000190F081E02DC80109952197209791F79A
:1019E000DF91CF911F910F91FF90EF900895DC014F
:1019F000ED91FC910190F081E02D09950895DC01B5
:101A0000ED91FC910280F381E02D099508950F93EB
:101A10001F938C01DC01ED91FC910190F081E02D90
:101A20006DE00995D801ED91FC910190F081E02DD8
:101A3000C8016AE009951F910F9108950F931F93B4
:101A40008C010E94FF0CC8010E94070D1F910F918D
:101A50000895629FD001739FF001829FE00DF11DF8
:101A6000649FE00DF11D929FF00D839FF00D749F18
:101A7000F00D659FF00D9927729FB00DE11DF91FC4
:101A8000639FB00DE11DF91FBD01CF011124089521
:101A900097FB092E07260AD077FD04D049D006D03F
:101AA00000201AF4709561957F4F0895F6F7909590
:101AB00081959F4F0895A1E21A2EAA1BBB1BFD0121
:101AC0000DC0AA1FBB1FEE1FFF1FA217B307E4071D
:101AD000F50720F0A21BB30BE40BF50B661F771F75
:101AE000881F991F1A9469F7609570958095909555
:101AF0009B01AC01BD01CF01089597FB092E05267E
:101B00000ED057FD04D0D7DF0AD0001C38F4509512
:101B10004095309521953F4F4F4F5F4F0895F6F711
:101B200090958095709561957F4F8F4F9F4F089549
:101B3000AA1BBB1B51E107C0AA1FBB1FA617B707F3
:101B400010F0A61BB70B881F991F5A95A9F780950F
:101B50009095BC01CD010895EE0FFF1F0590F49103
:081B6000E02D0994F894FFCF79
:101B6800244750524D430053706565642069733AA9
:101B780000416E676C652069733A004750532070C6
:101B880061727365720000000000F701C00CD80C88
:0A1B980000000000730CC00CD80C14
:00000001FF
