:100000000C9462000C948A000C948A000C948A0070
:100010000C948A000C948A000C948A000C948A0038
:100020000C948A000C948A000C948A000C948A0028
:100030000C948A000C948A000C948A000C948A0018
:100040000C946B010C948A000C9484020C948A002A
:100050000C948A000C948A000C948A000C948A00F8
:100060000C948A000C948A000000000024002700F1
:100070002A0000000000250028002B0000000000DE
:1000800023002600290004040404040404040202DA
:100090000202020203030303030301020408102007
:1000A0004080010204081020010204081020000012
:1000B0000007000201000003040600000000000029
:1000C0000000150411241FBECFEFD8E0DEBFCDBF66
:1000D00011E0A0E0B1E0E6E7FAE002C005900D9281
:1000E000A034B107D9F711E0A0E4B1E001C01D923E
:1000F000AE3EB107E1F710E0C4ECD0E004C02297B7
:10010000FE010E943505C23CD107C9F70E94640177
:100110000C9439050C940000FB01DC018D910190D9
:1001200080190110D9F3990B08958DE061E00E94C8
:10013000370264E670E080E090E00E94B3018DE059
:1001400060E00E94370264E670E080E090E00E9488
:10015000B3018DE061E00E94370264E670E080E068
:1001600090E00E94B3018DE060E00E94370264E6F7
:1001700070E080E090E00E94B3018DE061E00E94B9
:10018000370264E670E080E090E00E94B3018DE009
:1001900060E00E94370268EE73E080E090E00E9429
:1001A000B30108958BED91E00E94BA03882309F40E
:1001B00079C08BED91E00E94CE0390934101809332
:1001C00040010A9709F06EC010924D0110924C0147
:1001D00022C08BED91E00E94BA038823E1F08BED01
:1001E00091E00E94CE039C019093410180934001D5
:1001F0008A309105B1F08D30910599F080914C01D4
:1002000090914D01FC01EE5BFE4F2083019690938F
:100210004D0180934C0180914C0190914D010A97C2
:10022000C4F280914C0190914D010A9761F48BEDDD
:1002300091E060E071E00E9486048BED91E062E461
:1002400071E00E94A50410924D0110924C0164EFE0
:1002500071E080E090E00E94B30182E491E06BE203
:1002600071E00E948C00009769F48BED91E06EE0E4
:1002700071E00E94A5040E9495008BED91E00E9420
:10028000F60308958BED91E06DE171E00E94A50405
:1002900068EE73E080E090E00E94B3018BED91E0A6
:1002A0000E94F60308958BED91E040E659E060E08E
:1002B00070E00E94C10282E061E00E94170282E0C9
:1002C00060E00E94370208950E94DD010E94530100
:1002D0000E94D200FDCF1F920F920FB60F921124F1
:1002E0002F933F938F939F93AF93BF93809152012E
:1002F00090915301A0915401B09155013091560154
:100300000196A11DB11D232F2D5F2D3720F02D57F4
:100310000196A11DB11D2093560180935201909327
:100320005301A0935401B093550180914E019091D7
:100330004F01A0915001B09151010196A11DB11D35
:1003400080934E0190934F01A0935001B0935101BF
:10035000BF91AF919F918F913F912F910F900FBEC1
:100360000F901F901895EF92FF920F931F937B01B0
:100370008C018FB7F89440915201509153016091D4
:100380005401709155018FBF2FB7F894809152019D
:1003900090915301A0915401B09155012FBF841B3E
:1003A000950BA60BB70BE816F9060A071B0760F7B3
:1003B0001F910F91FF90EF900895789484B582601B
:1003C00084BD84B5816084BD85B5826085BD85B5F9
:1003D000816085BDEEE6F0E0808181608083E1E8A8
:1003E000F0E0808182608083808181608083E0E8AA
:1003F000F0E0808181608083E1EBF0E080818460C7
:100400008083E0EBF0E0808181608083EAE7F0E0C8
:10041000808184608083808182608083808181602C
:1004200080838081806880831092C1000895282F86
:1004300030E0C90186569F4FFC0194912A573F4FE7
:10044000F9018491882391F0E82FF0E0EE0FFF1F6F
:10045000E859FF4FA591B491662329F48C919095AA
:1004600089238C9308958C91892B8C930895482F20
:1004700050E0CA0182559F4FFC012491CA01865663
:100480009F4FFC0194914A575F4FFA0134913323F7
:10049000D1F1222331F1233021F4809180008F7734
:1004A00005C0243031F4809180008F7D80938000DE
:1004B00018C0213019F484B58F7704C0223021F49C
:1004C00084B58F7D84BD0DC0263021F48091B000AD
:1004D0008F7705C0273029F48091B0008F7D8093FD
:1004E000B000E32FF0E0EE0FFF1FEE58FF4FA59195
:1004F000B491662329F48C91909589238C93089567
:100500008C91892B8C9308951F920F920FB60F92A6
:1005100011242F933F934F935F936F937F938F9308
:100520009F93AF93BF93EF93FF934091C600E091E9
:10053000D701F091D801CF01019660E870E00E94E8
:10054000CF049C018091D9019091DA0128173907D5
:1005500039F0E95AFE4F40833093D8012093D701F8
:10056000FF91EF91BF91AF919F918F917F916F918B
:100570005F914F913F912F910F900FBE0F901F9061
:1005800018955F926F927F928F929F92AF92BF92D7
:10059000CF92DF92EF92FF920F931F93CF93DF934F
:1005A000EC013A014B01413482E458078FE06807BF
:1005B00080E078070CF07FC060E874E88EE190E09E
:1005C000A40193010E940405215030404040504056
:1005D000CA01B90122E030E040E050E00E94040589
:1005E00059016A01A60195012095309540955095D5
:1005F00094E0220F331F441F551F9A95D1F760E0F6
:1006000074E284EF90E00E940405CA01B9012FEF63
:1006100030E040E050E00E94B004A40193010E9449
:100620000405C90181509F4F181619061CF4522E5B
:100630005A9403C055245394521A60E079E08DE334
:1006400090E0A40193010E940405215030404040F5
:100650005040CA01B90122E030E040E050E00E9481
:100660000405209530954095509583E0220F331F67
:10067000441F551F8A95D1F760E074E284EF90E043
:100680000E940405CA01B9012FEF30E040E050E0BC
:100690000E94B004A40193010E940405C901815085
:1006A0009F4F181619061CF4822F815002C081E05A
:1006B000821B851500F5E885F98581E090E00A88C0
:1006C00002C0880F991F0A94E2F7808360E079E006
:1006D0008DE390E0A40193010E9404052150304075
:1006E00040405040CA01B90122E030E040E050E013
:1006F0000E94040504C0E885F98510829501EC810B
:10070000FD813083EE81FF812083EA85FB85208196
:1007100041E050E0CA010E8402C0880F991F0A947C
:10072000E2F7282B2083EA85FB852081CA010F840C
:1007300002C0880F991F0A94E2F7282B2083EA85CC
:10074000FB858081088802C0440F551F0A94E2F798
:10075000842B8083DF91CF911F910F91FF90EF90B9
:10076000DF90CF90BF90AF909F908F907F906F90D1
:100770005F900895DC011296ED91FC911397E0587B
:10078000FF4F8191919180589F4F20813181821B31
:10079000930B60E870E00E94CF040895CF93DF933D
:1007A000DC011296ED91FC911397EF01CE57DF4FCC
:1007B00048815981E058FF4F80819181E058F04095
:1007C0008417950719F42FEF3FEF0CC0E40FF51FC6
:1007D0002081CA01019660E870E00E94CF049983ED
:1007E000888330E0C901DF91CF910895DC01129632
:1007F000ED91FC911397EE57FF4F80819181929379
:1008000082930895FC01A085B18521898C9190E0A7
:10081000022E02C0959587950A94E2F780FFF6CFE5
:100820000484F585E02D608308958AE391E0909338
:10083000DC018093DB0187E591E09093DE018093FA
:10084000DD0185EC90E09093E0018093DF0184EC82
:1008500090E09093E2018093E10180EC90E090932E
:10086000E4018093E30181EC90E09093E6018093B2
:10087000E50186EC90E09093E8018093E70184E045
:100880008093E90183E08093EA0187E08093EB01A4
:1008900085E08093EC0181E08093ED0108950F9352
:1008A0001F93CF93DF938C01EB0109C02196D801F0
:1008B000ED91FC910190F081E02DC80109956881CE
:1008C0006623A1F7DF91CF911F910F910895EF92C9
:1008D000FF920F931F93CF93DF938C017B01EA016B
:1008E0000CC0D7016D917D01D801ED91FC91019073
:1008F000F081E02DC80109952197209791F7DF91AC
:10090000CF911F910F91FF90EF900895DC01ED9131
:10091000FC910280F381E02D099508950F931F93B8
:100920008C01DC01ED91FC910190F081E02D6DE0F6
:100930000995D801ED91FC910190F081E02DC8015D
:100940006AE009951F910F9108950F931F938C01F1
:100950000E948604C8010E948E041F910F91089581
:10096000629FD001739FF001829FE00DF11D649F93
:10097000E00DF11D929FF00D839FF00D749FF00D1F
:10098000659FF00D9927729FB00DE11DF91F639FC0
:10099000B00DE11DF91FBD01CF011124089597FB92
:1009A000092E07260AD077FD04D049D006D00020B2
:1009B0001AF4709561957F4F0895F6F7909581959B
:1009C0009F4F0895A1E21A2EAA1BBB1BFD010DC06B
:1009D000AA1FBB1FEE1FFF1FA217B307E407F507EF
:1009E00020F0A21BB30BE40BF50B661F771F881FCB
:1009F000991F1A9469F760957095809590959B0161
:100A0000AC01BD01CF01089597FB092E05260ED03C
:100A100057FD04D0D7DF0AD0001C38F4509540951C
:100A2000309521953F4F4F4F5F4F0895F6F79095C2
:100A30008095709561957F4F8F4F9F4F0895AA1BAA
:100A4000BB1B51E107C0AA1FBB1FA617B70710F0B9
:100A5000A61BB70B881F991F5A95A9F780959095EB
:100A6000BC01CD010895EE0FFF1F0590F491E02D1C
:060A70000994F894FFCF89
:100A760054414720636F64652069733A20004143FF
:100A860043455353204752414E5445440041434346
:100A96004553532044454E49454400303431354191
:100AA6004644363536000000000002044F04670451
:00000001FF
