:100000000C9462000C948A000C948A000C948A0070
:100010000C948A000C948A000C948A000C948A0038
:100020000C948A000C948A000C948A000C948A0028
:100030000C948A000C948A000C948A000C948A0018
:100040000C94BF040C948A000C948A000C948A00CF
:100050000C948A000C948A000C948A000C948A00F8
:100060000C948A000C948A000000000024002700F1
:100070002A0000000000250028002B0000000000DE
:1000800023002600290004040404040404040202DA
:100090000202020203030303030301020408102007
:1000A0004080010204081020010204081020000012
:1000B0000007000201000003040600000000000029
:1000C0000000830311241FBECFEFD8E0DEBFCDBFF9
:1000D00011E0A0E0B1E0EEE5FDE002C005900D9278
:1000E000A038B107D9F711E0A0E8B1E001C01D9236
:1000F000AB3BB107E1F710E0C4ECD0E004C02297BD
:10010000FE010E94A906C23CD107C9F70E94B804AB
:100110000C94AD060C940000FC01608341831282B4
:100120001382148215820895AF92BF92DF92EF92EC
:10013000FF920F931F93CF93DF93EC01B62E8A812A
:100140009B81AC81BD810097A105B10581F1EE8055
:10015000FF808DEF9FEFE80EF91E898160E00E941D
:10016000A705C7010E943F05DD24D39400E010E0FD
:10017000AB2CBB248D2D90E08A219B21892B19F07B
:10018000898161E002C0898160E00E94A705C70102
:100190000E943F05DD0C0F5F1F4F0830110551F71E
:1001A000898161E00E94A705C7010E943F05DF9198
:1001B000CF911F910F91FF90EF90DF90BF90AF9084
:1001C00008952F923F924F925F926F927F928F92FB
:1001D0009F92AF92BF92CF92DF92EF92FF920F93D6
:1001E0001F93DF93CF93CDB7DEB7A0970FB6F894E8
:1001F000DEBF0FBECDBF1C016A017B014115510559
:100200006105710521F460E30E9494004FC08824C9
:1002100099245401422E55246624772401E010E0ED
:100220000C0F1D1F080D191DC701B601A301920176
:100230000E945606F80160830894811C911CA11C41
:10024000B11CC701B601A30192010E945606C90163
:10025000DA016C017D01C114D104E104F104F1F66D
:1002600081E0E82EF12CEC0EFD1EE80CF91C3E019D
:100270000894611C711CD501C4010197A109B10941
:100280006C01C818D9080FC0F601EE0DFF1D608182
:100290006A3010F4605D01C0695CC1010E94940085
:1002A0000894E108F1086E147F0471F7A0960FB668
:1002B000F894DEBF0FBECDBFCF91DF911F910F919C
:1002C000FF90EF90DF90CF90BF90AF909F908F9076
:1002D0007F906F905F904F903F902F9008952AE00D
:1002E0000E94E1000895EF92FF920F931F93CF9326
:1002F000DF93EC017A018B0177FF0BC06DE20E9466
:10030000940010950095F094E094E11CF11C011DFF
:10031000111DCE01B801A7012AE00E94E100DF9182
:10032000CF911F910F91FF90EF900895AB01662739
:1003300057FD6095762F0E947301089521153105B0
:1003400021F4642F0E94940008952A30310519F495
:100350000E94730108950E94E10008950F931F9376
:10036000CF93DF938C01EB0104C02196C8010E945A
:10037000940068816623C9F7DF91CF911F910F9197
:1003800008950F931F938C019A01AB01FC01228306
:1003900033834483558360E472E48FE090E00E94ED
:1003A0007806F80137832683818161E00E94A705E2
:1003B000F801868197810E943F051F910F91089552
:1003C000CF92DF92EF92FF920F931F937C018B01EC
:1003D0006A014EEF50E060E070E020E030E00E9403
:1003E0009E01F70164857585882777FD8095982F94
:1003F0000E941505F70182859385C81AD90A20E85D
:1004000030E0C20ED31E081B190B035F1F4F000FF5
:10041000111F0E0D1F1DF801408151814C0D5D1DF6
:10042000662757FD6095762FC70120E030E00E94D7
:100430009E01F70164857585882777FD8095982F43
:100440000E9415051F910F91FF90EF90DF90CF90C4
:100450000895CF92DF92EF92FF920F931F936C015A
:10046000780189010E94E001C601B801A7010E943C
:100470006F011F910F91FF90EF90DF90CF90089543
:10048000EF92FF920F931F938C0179010E94E0017C
:10049000C801B7010E9496011F910F91FF90EF9044
:1004A0000895EF92FF920F931F938C0179010E94A0
:1004B000E001C801B7010E94AE011F910F91FF90AA
:1004C000EF9008950F931F93CF93DF93EC018E89E4
:1004D0009F898617970709F440C077FF02C060E044
:1004E00070E08B016536710514F004E610E0CE0172
:1004F0004CE750E060E070E020E030E00E949E01B8
:100500006C857D85882777FD8095982F0E9415053D
:100510009801220F331FC80145E0880F991F4A95A3
:10052000E1F7821B930B64E670E00E944306AB0187
:1005300040585F4F662757FD6095762FCE0120E02B
:1005400030E00E949E016C857D85882777FD80952F
:10055000982F0E9415051F8B0E8BDF91CF911F9155
:100560000F9108950F931F938C014EEF50E060E0C0
:1005700070E020E030E00E949E01F80164857585FE
:10058000882777FD8095982F0E941505C8014CE0BB
:1005900050E060E070E020E030E00E949E01F80151
:1005A00064857585882777FD8095982F0E941505AD
:1005B0001F910F9108950F931F938C014EEF50E000
:1005C00060E070E020E030E00E949E01F801648568
:1005D0007585882777FD8095982F0E941505C8019D
:1005E00041E050E060E070E020E030E00E949E01D9
:1005F000F80124853585B901F3E0660F771FFA9578
:10060000E1F7220F331F620F731F882777FD809554
:10061000982F0E9415051F910F910895EF92FF9258
:100620001F93CF93DF93EC017B01142F888561E04A
:100630000E9487056C857D85882777FD8095982F9A
:100640000E941505CE0140E855E260E070E00E948E
:10065000C1016C857D85882777FD8095982F0E9444
:100660001505112319F0CE010E94DB02CE01B7015E
:100670000E946202CE010E94B202DF91CF911F91CF
:10068000FF90EF9008958F929F92AF92BF92CF927A
:10069000DF92EF92FF920F931F937C01B62EA72E4D
:1006A0004A0169014B2D0E948C00F701B086A1869A
:1006B0001387028784E090E09587848797868686F3
:1006C000D18AC08A81E090E0938B828B958B848B5A
:1006D00084E690E0978B868B138E128E80E490E0F8
:1006E000958F848FD78EC68EC80ED91ED1A2C0A278
:1006F0001F910F91FF90EF90DF90CF90BF90AF9040
:100700009F908F9008950F931F9380E891E067E08A
:1007100070E042E050E020E130E001E010E00E94B3
:1007200043031F910F9108950F931F938091AA0186
:100730009091AB01A091AC01B091AD018051974275
:10074000A040B04008F180E891E061E070E041E055
:1007500050E020E031E00E94510280E891E062E048
:1007600070E041E050E02CE031E00E945102209125
:10077000A4013091A50180E891E062E070E04DE0D5
:1007800050E00E94400258C00E9407058B019C0166
:100790008091AE019091AF01A091B001B091B101F3
:1007A000081B190B2A0B3B0B0093AA011093AB01FA
:1007B0002093AC013093AD0180E891E061E070E0FE
:1007C00045E050E00E94290282E00E94F4059C016D
:1007D0009093A9018093A8018091A6019091A7010F
:1007E0002817390749F121303105D1F48091A4014E
:1007F0009091A50101969093A5018093A4018DE0AD
:1008000061E00E94A7052091A4013091A50180E834
:1008100091E062E070E047E050E00E94400204C0D6
:100820008DE060E00E94A7058091A8019091A90148
:100830009093A7018093A6011F910F9108950F93A4
:100840001F9300E811E0C80164E670E041E00E94F7
:100850000E0368EE73E080E090E00E941505C80189
:1008600062E370E00E9462028DE061E00E94870511
:1008700082E060E00E948705C80161E070E041E02D
:1008800050E029E131E00E94510264EF71E080E024
:1008900090E00E941505C80161E070E041E050E081
:1008A00020E231E00E945102C80161E070E041E0C5
:1008B00050E027E531E00E94510268EE73E080E0ED
:1008C00090E00E941505C80161E070E041E050E051
:1008D00029E531E00E94510268EE73E080E090E08B
:1008E0000E941505C80161E070E041E050E02BE591
:1008F00031E00E94510268EE73E080E090E00E94D7
:100900001505C80161E070E041E050E02DE531E0FF
:100910000E94510268EC70E080E090E00E941505B2
:100920000E9407056093AE017093AF018093B00100
:100930009093B101C80161E070E041E050E029E628
:1009400031E00E945102C80161E070E048E050E0EF
:100950002FE631E00E945102C80162E070E041E000
:1009600050E028E731E00E9451021F910F91089555
:100970000E944D050E941F040E949403FDCF1F9208
:100980000F920FB60F9211242F933F938F939F9343
:10099000AF93BF938091B6019091B701A091B80138
:1009A000B091B9013091BA010196A11DB11D232F5B
:1009B0002D5F2D3720F02D570196A11DB11D2093DD
:1009C000BA018093B6019093B701A093B801B09398
:1009D000B9018091B2019091B301A091B401B0919D
:1009E000B5010196A11DB11D8093B2019093B30191
:1009F000A093B401B093B501BF91AF919F918F9136
:100A00003F912F910F900FBE0F901F9018958FB7A9
:100A1000F8942091B6013091B7014091B8015091FE
:100A2000B9018FBFB901CA010895EF92FF920F93E8
:100A30001F937B018C018FB7F8944091B6015091C0
:100A4000B7016091B8017091B9018FBF2FB7F894C9
:100A50008091B6019091B701A091B801B091B90110
:100A60002FBF841B950BA60BB70BE816F9060A07D8
:100A70001B0760F71F910F91FF90EF90089501976A
:100A800059F0FC01EE0FFF1FEE0FFF1F32978FB7DB
:100A9000F8943197F1F78FBF0895789484B5826008
:100AA00084BD84B5816084BD85B5826085BD85B512
:100AB000816085BDEEE6F0E0808181608083E1E8C1
:100AC000F0E0808182608083808181608083E0E8C3
:100AD000F0E0808181608083E1EBF0E080818460E0
:100AE0008083E0EBF0E0808181608083EAE7F0E0E2
:100AF0008081846080838081826080838081816046
:100B000080838081806880831092C1000895282F9F
:100B100030E0C90186569F4FFC0194912A573F4F00
:100B2000F9018491882391F0E82FF0E0EE0FFF1F88
:100B3000E859FF4FA591B491662329F48C919095C3
:100B400089238C9308958C91892B8C930895482F39
:100B500050E0CA0182559F4FFC012491CA0186567C
:100B60009F4FFC0194914A575F4FFA013491332310
:100B7000D1F1222331F1233021F4809180008F774D
:100B800005C0243031F4809180008F7D80938000F7
:100B900018C0213019F484B58F7704C0223021F4B5
:100BA00084B58F7D84BD0DC0263021F48091B000C6
:100BB0008F7705C0273029F48091B0008F7D809316
:100BC000B000E32FF0E0EE0FFF1FEE58FF4FA591AE
:100BD000B491662329F48C91909589238C93089580
:100BE0008C91892B8C930895682F70E0CB018255EE
:100BF0009F4FFC012491CB0186569F4FFC014491ED
:100C00006A577F4FFB019491992319F420E030E05B
:100C100038C0222331F1233021F4809180008F7776
:100C200005C0243031F4809180008F7D8093800056
:100C300018C0213019F484B58F7704C0223021F414
:100C400084B58F7D84BD0DC0263021F48091B00025
:100C50008F7705C0273029F48091B0008F7D809375
:100C6000B000892F90E0880F991F84589F4FFC0196
:100C7000A591B4918C9120E030E0842311F021E023
:100C800030E0C901089597FB092E07260AD077FDA9
:100C900004D049D006D000201AF4709561957F4F9A
:100CA0000895F6F7909581959F4F0895A1E21A2E29
:100CB000AA1BBB1BFD010DC0AA1FBB1FEE1FFF1F00
:100CC000A217B307E407F50720F0A21BB30BE40B50
:100CD000F50B661F771F881F991F1A9469F7609597
:100CE0007095809590959B01AC01BD01CF01089551
:100CF00097FB092E05260ED057FD04D0D7DF0AD06A
:100D0000001C38F450954095309521953F4F4F4F3A
:100D10005F4F0895F6F790958095709561957F4F98
:100D20008F4F9F4F0895AA1BBB1B51E107C0AA1FFD
:100D3000BB1FA617B70710F0A61BB70B881F991F7C
:100D40005A95A9F780959095BC01CD010895EE0FB5
:0E0D5000FF1F0590F491E02D0994F894FFCF59
:100D5E0054494D45204953205550210046696E6136
:100D6E006C2053636F72653A00526561647921009D
:100D7E002020202020202020202020202020202065
:100D8E002020202020202020202020202020202055
:100D9E002020202020202020202020202020202045
:100DAE0020202020202000330032003100474F2128
:100DBE0021212121212121210054696D653A002034
:100DCE00202020202020200053636F72653A0000FF
:00000001FF
