:100000000C9435000C945D000C945D000C945D0024
:100010000C945D000C945D000C945D000C945D00EC
:100020000C945D000C945D000C945D000C945D00DC
:100030000C945D000C945D000C945D000C945D00CC
:100040000C94C2000C945D000C9444010C945D006F
:100050000C945D000C945D000C945D000C945D00AC
:100060000C945D000C945D008D0211241FBECFEF37
:10007000D8E0DEBFCDBF11E0A0E0B1E0E2E0FBE000
:1000800002C005900D92AA33B107D9F711E0AAE397
:10009000B1E001C01D92AC3DB107E1F710E0CAE646
:1000A000D0E004C02297FE010E947B05C836D1072C
:1000B000C9F70E94BD000C947F050C9400000F93BB
:1000C0001F9309EC11E0C80140E855E260E070E0E0
:1000D0000E948101C80160E071E00E941D03C80117
:1000E0006DE171E00E94FE0260912C0170912D0182
:1000F000C8010E94E703C80162E271E00E94FE02AB
:1001000060912E0170912F01C8010E94E703209198
:100110002C0130912D0180912E0190912F01889F0B
:10012000B001899F700D989F700D1124C901889F9F
:100130009001899F300D989F300D1124620F731F1D
:10014000882777FD8095982F0E942A040E949504A5
:100150000E94F70370933B0160933A01C80167E284
:1001600071E00E94FE0260913A0170913B01C8016A
:100170000E94E7031F910F9108950E940A010E94B7
:100180005F00FFCF1F920F920FB60F9211242F9393
:100190003F938F939F93AF93BF9380914001909132
:1001A0004101A0914201B091430130914401019677
:1001B000A11DB11D232F2D5F2D3720F02D57019646
:1001C000A11DB11D209344018093400190934101F2
:1001D000A0934201B093430180913C0190913D0175
:1001E000A0913E01B0913F010196A11DB11D8093E8
:1001F0003C0190933D01A0933E01B0933F01BF911C
:10020000AF919F918F913F912F910F900FBE0F90C3
:100210001F901895789484B5826084BD84B5816000
:1002200084BD85B5826085BD85B5816085BDEEE6FE
:10023000F0E0808181608083E1E8F0E0808182608D
:100240008083808181608083E0E8F0E0808181604C
:100250008083E1EBF0E0808184608083E0EBF0E07C
:10026000808181608083EAE7F0E080818460808320
:1002700080818260808380818160808380818068CA
:1002800080831092C10008951F920F920FB60F92B3
:1002900011242F933F934F935F936F937F938F938B
:1002A0009F93AF93BF93EF93FF934091C600E0916C
:1002B000C501F091C601CF01019660E870E00E948F
:1002C00015059C018091C7019091C8012817390735
:1002D00039F0EB5BFE4F40833093C6012093C5019C
:1002E000FF91EF91BF91AF919F918F917F916F910E
:1002F0005F914F913F912F910F900FBE0F901F90E4
:1003000018955F926F927F928F929F92AF92BF9259
:10031000CF92DF92EF92FF920F931F93CF93DF93D1
:10032000EC013A014B01413482E458078FE0680741
:1003300080E078070CF07FC060E874E88EE190E020
:10034000A40193010E944A05215030404040504092
:10035000CA01B90122E030E040E050E00E944A05C5
:1003600059016A01A6019501209530954095509557
:1003700094E0220F331F441F551F9A95D1F760E078
:1003800074E284EF90E00E944A05CA01B9012FEFA0
:1003900030E040E050E00E94F604A40193010E9486
:1003A0004A05C90181509F4F181619061CF4522E98
:1003B0005A9403C055245394521A60E079E08DE3B7
:1003C00090E0A40193010E944A0521503040404032
:1003D0005040CA01B90122E030E040E050E00E9404
:1003E0004A05209530954095509583E0220F331FA4
:1003F000441F551F8A95D1F760E074E284EF90E0C6
:100400000E944A05CA01B9012FEF30E040E050E0F8
:100410000E94F604A40193010E944A05C90181507B
:100420009F4F181619061CF4822F815002C081E0DC
:10043000821B851500F5E885F98581E090E00A8842
:1004400002C0880F991F0A94E2F7808360E079E088
:100450008DE390E0A40193010E944A0521503040B1
:1004600040405040CA01B90122E030E040E050E095
:100470000E944A0504C0E885F98510829501EC8147
:10048000FD813083EE81FF812083EA85FB85208119
:1004900041E050E0CA010E8402C0880F991F0A94FF
:1004A000E2F7282B2083EA85FB852081CA010F848F
:1004B00002C0880F991F0A94E2F7282B2083EA854F
:1004C000FB858081088802C0440F551F0A94E2F71B
:1004D000842B8083DF91CF911F910F91FF90EF903C
:1004E000DF90CF90BF90AF909F908F907F906F9054
:1004F0005F900895FC01A085B18521898C9190E0E1
:10050000022E02C0959587950A94E2F780FFF6CFF8
:100510000484F585E02D6083089584E391E0909351
:10052000CA018093C90185E491E09093CC01809346
:10053000CB0185EC90E09093CE018093CD0184ECCB
:1005400090E09093D0018093CF0180EC90E0909365
:10055000D2018093D10181EC90E09093D4018093FB
:10056000D30186EC90E09093D6018093D50184E08E
:100570008093D70183E08093D80187E08093D901ED
:1005800085E08093DA0181E08093DB0108950F9389
:100590001F93CF93DF938C01EB0109C02196D80103
:1005A000ED91FC910190F081E02DC80109956881E1
:1005B0006623A1F7DF91CF911F910F910895EF92DC
:1005C000FF920F931F93CF93DF938C017B01EA017E
:1005D0000CC0D7016D917D01D801ED91FC91019086
:1005E000F081E02DC80109952197209791F7DF91BF
:1005F000CF911F910F91FF90EF900895DC01ED9145
:10060000FC910280F381E02D099508950F931F93CB
:100610008C01DC01ED91FC910190F081E02D6DE009
:100620000995D801ED91FC910190F081E02DC80170
:100630006AE009951F910F9108950F931F938C0104
:100640000E94FE02C8010E9406031F910F910895A7
:100650002F923F924F925F926F927F928F929F92D2
:10066000AF92BF92CF92DF92EF92FF920F931F93C0
:10067000DF93CF93CDB7DEB7A0970FB6F894DEBF68
:100680000FBECDBF1C016A017B01411551056105FB
:10069000710549F4DC01ED91FC910190F081E02DB0
:1006A00060E3099554C0882499245401422E5524AE
:1006B0006624772401E010E00C0F1D1F080D191DA2
:1006C000C701B601A30192010E942805F8016083C9
:1006D0000894811C911CA11CB11CC701B601A30187
:1006E00092010E942805C901DA016C017D01C11443
:1006F000D104E104F104F1F681E0E82EF12CEC0ED6
:10070000FD1EE80CF91C3E010894611C711CD5010A
:10071000C4010197A109B1096C01C818D90814C016
:10072000F601EE0DFF1D60816A3010F4605D01C0BE
:10073000695CD101ED91FC910190F081E02DC10146
:1007400009950894E108F1086E147F0449F7A09612
:100750000FB6F894DEBF0FBECDBFCF91DF911F91D2
:100760000F91FF90EF90DF90CF90BF90AF909F9050
:100770008F907F906F905F904F903F902F90089553
:10078000EF92FF920F931F93CF93DF93EC017A01C7
:100790008B0177FF0FC0E881F9810190F081E02D96
:1007A0006DE2099510950095F094E094E11CF11C20
:1007B000011D111DCE01B801A7012AE00E942803E6
:1007C000DF91CF911F910F91FF90EF9008950F93BC
:1007D0001F938C01AB01662757FD6095762F0E9411
:1007E000C003C8010E9406031F910F91089504D011
:1007F0006894B11190C0089573D088F09F5790F01D
:10080000B92F9927B751A0F0D1F0660F771F881F35
:10081000991F1AF0BA95C9F712C0B13081F07AD099
:10082000B1E0089577C0672F782F8827B85F39F037
:10083000B93FCCF3869577956795B395D9F73EF494
:1008400090958095709561957F4F8F4F9F4F08953C
:10085000E89409C097FB3EF490958095709561955A
:100860007F4F8F4F9F4F9923A9F0F92F96E9BB2710
:100870009395F695879577956795B795F111F8CF8C
:10088000FAF4BB0F11F460FF1BC06F5F7F4F8F4FF7
:100890009F4F16C0882311F096E911C0772321F0ED
:1008A0009EE8872F762F05C0662371F096E8862F85
:1008B00070E060E02AF09A95660F771F881FDAF7DC
:1008C000880F9695879597F908959FEF80EC089586
:1008D00057FD9058440F551F59F05F3F71F04795F1
:1008E000880F97FB991F61F09F3F79F087950895D6
:1008F000121613061406551FF2CF4695F1DF08C0F5
:10090000161617061806991FF1CF86957105610511
:1009100008940895E894BB2766277727CB0197F9B9
:10092000089511F40EF4D1CF4AC0DADFD0F3992341
:10093000D9F3CEF39F57550B87FF51D05695979516
:10094000B0E020F4660F771F881FBB1F1F930F9323
:1009500000249001A0018001F001A0E80E0F1F1FEC
:100960000A1E511D601B710B8009B50B48F4600F06
:10097000711F801DB51F0E1B1F0B0A0A510907C0EE
:100980002E0F3F1F4A1F0E0F1F1F0A1E511D660FFD
:10099000771F881FBB1FA695F795E795F8F60617F2
:1009A000170708065B07211D311D411D0F911F917F
:1009B000B901842F9158880F9695879508959F3F88
:1009C00049F0915028F4869577956795B7959F5F84
:1009D00080389F4F880F9695879597F90895915085
:1009E0005040660F771F881FD2F70895629FD0018D
:1009F000739FF001829FE00DF11D649FE00DF11DDA
:100A0000929FF00D839FF00D749FF00D659FF00D88
:100A10009927729FB00DE11DF91F639FB00DE11D75
:100A2000F91FBD01CF011124089597FB092E072658
:100A30000AD077FD04D049D006D000201AF4709572
:100A400061957F4F0895F6F7909581959F4F089592
:100A5000A1E21A2EAA1BBB1BFD010DC0AA1FBB1FC2
:100A6000EE1FFF1FA217B307E407F50720F0A21B34
:100A7000B30BE40BF50B661F771F881F991F1A94A1
:100A800069F760957095809590959B01AC01BD01CB
:100A9000CF01089597FB092E05260ED057FD04D0EF
:100AA000D7DF0AD0001C38F4509540953095219539
:100AB0003F4F4F4F5F4F0895F6F790958095709593
:100AC00061957F4F8F4F9F4F0895AA1BBB1B51E12C
:100AD00007C0AA1FBB1FA617B70710F0A61BB70BAE
:100AE000881F991F5A95A9F780959095BC01CD0153
:100AF0000895EE0FFF1F0590F491E02D0994F894EE
:020B0000FFCF25
:100B02004C6574732063616C63756C6174652061FC
:100B1200206879706F74656E657573650061203D3C
:100B2200200062203D200068203D200003000400D8
:0A0B3200000000007A02C702DF0293
:00000001FF
