:100000000C9462000C948A000C948A000C948A0070
:100010000C948A000C948A000C948A000C948A0038
:100020000C948A000C948A000C948A000C948A0028
:100030000C948A000C948A000C948A000C948A0018
:100040000C944E010C948A000C94E1020C948A00EA
:100050000C948A000C948A000C948A000C948A00F8
:100060000C948A000C948A000000000024002700F1
:100070002A0000000000250028002B0000000000DE
:1000800023002600290004040404040404040202DA
:100090000202020203030303030301020408102007
:1000A0004080010204081020010204081020000012
:1000B0000007000201000003040600000000000029
:1000C00000002A0411241FBECFEFD8E0DEBFCDBF51
:1000D00011E0A0E0B1E0E8E1FCE002C005900D9283
:1000E000AA32B107D9F711E0AAE2B1E001C01D922E
:1000F000AC3CB107E1F710E0C4ECD0E004C02297BB
:10010000FE010E940606C23CD107C9F70E944701C2
:100110000C940A060C940000EF92FF920F931F9329
:100120007B018C010E949601E60EF71E081F191F25
:100130000E9496016E157F0580079107C8F31F91F5
:100140000F91FF90EF900895BF92CF92DF92EF92C0
:10015000FF920F931F93B82E8B010E9496016801A6
:10016000EE24D7FCE094FE2CC60ED71EE81EF91E26
:1001700014C08B2D61E00E9445026DE070E080E0CC
:1001800090E00E948C008B2D60E00E94450269E0A7
:1001900070E080E090E00E948C000E9496016C1557
:1001A0007D058E059F0528F31F910F91FF90EF901D
:1001B000DF90CF90BF900895CF93DF93C0E0D0E061
:1001C000FE01E050FF4F608171818DE090E00E9460
:1001D000A400FE01E05FFE4F608171818281938106
:1001E0000E948C002496C031D10551F760EE76EF65
:1001F00080E090E00E948C00C0E0D0E0FE01E05082
:10020000FF4F608171818DE090E00E94A400FE01AB
:10021000E05FFE4F60817181828193810E948C003A
:100220002496C031D10551F7DF91CF91089582E036
:100230000E949202BC0190932B0180932A0189EBCA
:1002400091E00E94710580912A0190912B01019704
:1002500011F40E94DC008DE060E00E94450264E63B
:1002600070E080E090E00E94C101089589EB91E088
:1002700040E05BE460E070E00E941E038DE061E01E
:100280000E94250282E060E00E94250208950E94FB
:10029000EB010E9436010E941701FDCF1F920F92C1
:1002A0000FB60F9211242F933F938F939F93AF9389
:1002B000BF938091300190913101A0913201B091B2
:1002C0003301309134010196A11DB11D232F2D5F03
:1002D0002D3720F02D570196A11DB11D209334011B
:1002E0008093300190933101A0933201B093330198
:1002F00080912C0190912D01A0912E01B0912F01A0
:100300000196A11DB11D80932C0190932D01A09306
:100310002E01B0932F01BF91AF919F918F913F918B
:100320002F910F900FBE0F901F9018956FB7F894F4
:1003300086B590E0A0E0B0E0A89B08C00097A105BA
:10034000B10521F480E091E0A0E0B0E020912C0123
:1003500030912D0140912E0150912F016FBF542FEC
:10036000432F322F2227280F391F4A1F5B1F82E09D
:10037000220F331F441F551F8A95D1F7B901CA01B7
:100380000895EF92FF920F931F937B018C018FB71B
:10039000F894409130015091310160913201709197
:1003A00033018FBF2FB7F8948091300190913101C4
:1003B000A0913201B09133012FBF841B950BA60B86
:1003C000B70BE816F9060A071B0760F71F910F9194
:1003D000FF90EF900895789484B5826084BD84B5D1
:1003E000816084BD85B5826085BD85B5816085BD30
:1003F000EEE6F0E0808181608083E1E8F0E08081DA
:1004000082608083808181608083E0E8F0E0808189
:1004100081608083E1EBF0E0808184608083E0EBA9
:10042000F0E0808181608083EAE7F0E08081846091
:1004300080838081826080838081816080838081ED
:10044000806880831092C1000895282F30E0C90190
:1004500086569F4FFC0194912A573F4FF901849192
:10046000882391F0E82FF0E0EE0FFF1FE859FF4FCF
:10047000A591B491662329F48C91909589238C934E
:1004800008958C91892B8C930895482F50E0CA01D0
:1004900082559F4FFC012491CA0186569F4FFC0153
:1004A00094914A575F4FFA0134913323D1F12223BB
:1004B00031F1233021F4809180008F7705C0243002
:1004C00031F4809180008F7D8093800018C02130AE
:1004D00019F484B58F7704C0223021F484B58F7D60
:1004E00084BD0DC0263021F48091B0008F7705C007
:1004F000273029F48091B0008F7D8093B000E32FE6
:10050000F0E0EE0FFF1FEE58FF4FA591B491662368
:1005100029F48C91909589238C9308958C91892B43
:100520008C930895682F70E0CB0182559F4FFC019A
:100530002491CB0186569F4FFC0144916A577F4F0F
:10054000FB019491992319F420E030E038C0222374
:1005500031F1233021F4809180008F7705C0243061
:1005600031F4809180008F7D8093800018C021300D
:1005700019F484B58F7704C0223021F484B58F7DBF
:1005800084BD0DC0263021F48091B0008F7705C066
:10059000273029F48091B0008F7D8093B000892F9F
:1005A00090E0880F991F84589F4FFC01A591B4914A
:1005B0008C9120E030E0842311F021E030E0C9018B
:1005C00008951F920F920FB60F9211242F933F930D
:1005D0004F935F936F937F938F939F93AF93BF934B
:1005E000EF93FF934091C600E091B501F091B60101
:1005F000CF01019660E870E00E94A0059C01809107
:10060000B7019091B8012817390739F0EB5CFE4F1C
:1006100040833093B6012093B501FF91EF91BF91D4
:10062000AF919F918F917F916F915F914F913F918A
:100630002F910F900FBE0F901F9018955F926F92A1
:100640007F928F929F92AF92BF92CF92DF92EF9262
:10065000FF920F931F93CF93DF93EC013A014B016D
:10066000413482E458078FE0680780E078070CF097
:100670007FC060E874E88EE190E0A40193010E94DD
:10068000D5052150304040405040CA01B90122E018
:1006900030E040E050E00E94D50559016A01A60112
:1006A0009501209530954095509594E0220F331F89
:1006B000441F551F9A95D1F760E074E284EF90E0F3
:1006C0000E94D505CA01B9012FEF30E040E050E0AB
:1006D0000E948105A40193010E94D505C9018150A2
:1006E0009F4F181619061CF4522E5A9403C0552415
:1006F0005394521A60E079E08DE390E0A4019301F5
:100700000E94D5052150304040405040CA01B901F7
:1007100022E030E040E050E00E94D5052095309581
:100720004095509583E0220F331F441F551F8A9533
:10073000D1F760E074E284EF90E00E94D505CA0131
:10074000B9012FEF30E040E050E00E948105A401A4
:1007500093010E94D505C90181509F4F18161906B3
:100760001CF4822F815002C081E0821B851500F5A8
:10077000E885F98581E090E00A8802C0880F991F1A
:100780000A94E2F7808360E079E08DE390E0A401D1
:1007900093010E94D5052150304040405040CA018D
:1007A000B90122E030E040E050E00E94D50504C0ED
:1007B000E885F98510829501EC81FD813083EE8119
:1007C000FF812083EA85FB85208141E050E0CA015A
:1007D0000E8402C0880F991F0A94E2F7282B208309
:1007E000EA85FB852081CA010F8402C0880F991F0A
:1007F0000A94E2F7282B2083EA85FB85808108880C
:1008000002C0440F551F0A94E2F7842B8083DF91C6
:10081000CF911F910F91FF90EF90DF90CF90BF90FD
:10082000AF909F908F907F906F905F900895FC01A4
:10083000A085B18521898C9190E0022E02C095950A
:1008400087950A94E2F780FFF6CF0484F585E02DC2
:100850006083089584E291E09093BA018093B90196
:1008600085E391E09093BC018093BB0185EC90E01F
:100870009093BE018093BD0184EC90E09093C00101
:100880008093BF0180EC90E09093C2018093C101FE
:1008900081EC90E09093C4018093C30186EC90E0DA
:1008A0009093C6018093C50184E08093C70183E0E3
:1008B0008093C80187E08093C90185E08093CA01D5
:1008C00081E08093CB0108950F931F93CF93DF9323
:1008D0008C01EB0109C02196D801ED91FC910190AA
:1008E000F081E02DC801099568816623A1F7DF91A9
:1008F000CF911F910F910895EF92FF920F931F9345
:10090000CF93DF938C017B01EA010CC0D7016D917D
:100910007D01D801ED91FC910190F081E02DC8019D
:1009200009952197209791F7DF91CF911F910F9112
:10093000FF90EF9008950F931F938C01DC01ED91D0
:10094000FC910190F081E02D6DE00995D801ED91C9
:10095000FC910190F081E02DC8016AE009951F919A
:100960000F9108952F923F924F925F926F927F92D4
:100970008F929F92AF92BF92CF92DF92EF92FF92AF
:100980000F931F93DF93CF93CDB7DEB7A0970FB62A
:10099000F894DEBF0FBECDBF1C016A017B0141157B
:1009A00051056105710549F4DC01ED91FC9101905F
:1009B000F081E02D60E3099554C088249924540106
:1009C000422E55246624772401E010E00C0F1D1FF1
:1009D000080D191DC701B601A30192010E94B305BC
:1009E000F80160830894811C911CA11CB11CC701F3
:1009F000B601A30192010E94B305C901DA016C019D
:100A00007D01C114D104E104F104F1F681E0E82E86
:100A1000F12CEC0EFD1EE80CF91C3E010894611C43
:100A2000711CD501C4010197A109B1096C01C81855
:100A3000D90814C0F601EE0DFF1D60816A3010F474
:100A4000605D01C0695CD101ED91FC910190F08184
:100A5000E02DC10109950894E108F1086E147F04A6
:100A600049F7A0960FB6F894DEBF0FBECDBFCF9169
:100A7000DF911F910F91FF90EF90DF90CF90BF908B
:100A8000AF909F908F907F906F905F904F903F902E
:100A90002F900895EF92FF920F931F93CF93DF93C0
:100AA000EC017A018B0177FF0FC0E881F981019099
:100AB000F081E02D6DE2099510950095F094E09499
:100AC000E11CF11C011D111DCE01B801A7012AE096
:100AD0000E94B204DF91CF911F910F91FF90EF9090
:100AE00008950F931F938C01AB01662757FD609506
:100AF000762F0E944A05C8010E949B041F910F9106
:100B00000895629FD001739FF001829FE00DF11D57
:100B1000649FE00DF11D929FF00D839FF00D749F77
:100B2000F00D659FF00D9927729FB00DE11DF91F23
:100B3000639FB00DE11DF91FBD01CF011124089580
:100B400097FB092E07260AD077FD04D049D006D09E
:100B500000201AF4709561957F4F0895F6F79095EF
:100B600081959F4F0895A1E21A2EAA1BBB1BFD0180
:100B70000DC0AA1FBB1FEE1FFF1FA217B307E4077C
:100B8000F50720F0A21BB30BE40BF50B661F771FD4
:100B9000881F991F1A9469F76095709580959095B4
:100BA0009B01AC01BD01CF01089597FB092E0526DD
:100BB0000ED057FD04D0D7DF0AD0001C38F4509572
:100BC0004095309521953F4F4F4F5F4F0895F6F771
:100BD00090958095709561957F4F8F4F9F4F0895A9
:100BE000AA1BBB1B51E107C0AA1FBB1FA617B70753
:100BF00010F0A61BB70B881F991F5A95A9F780956F
:100C00009095BC01CD010895EE0FFF1F0590F49162
:080C1000E02D0994F894FFCFD8
:100C1800D0070000860100009A0100009001000042
:100C2800B66C00002C060000FC0D0000000000005F
:0A0C380000000000170464047C04AF
:00000001FF
