:100000000C9461000C947E000C947E000C947E0095
:100010000C947E000C947E000C947E000C947E0068
:100020000C947E000C947E000C947E000C947E0058
:100030000C947E000C947E000C947E000C947E0048
:100040000C94E5020C947E000C947E000C947E00CF
:100050000C947E000C947E000C947E000C947E0028
:100060000C947E000C947E00000000002400270009
:100070002A0000000000250028002B0000000000DE
:1000800023002600290004040404040404040202DA
:100090000202020203030303030301020408102007
:1000A0004080010204081020010204081020000012
:1000B0000007000201000003040600000000000029
:1000C000000011241FBECFEFD8E0DEBFCDBF11E08E
:1000D000A0E0B1E0E0E0F8E002C005900D92A431AC
:1000E000B107D9F711E0A4E1B1E001C01D92AD3133
:1000F000B107E1F70E94DE020C94FE030C940000AD
:1001000086E061E00E94B10384E061E00E94B103F7
:100110006091000170910101882777FD8095982FEB
:100120000E942D0386E060E00E94B10384E060E05D
:100130000E94B1036091000170910101882777FD51
:100140008095982F0E942D0387E061E00E94B10303
:1001500086E061E00E94B1038AE061E00E94B103A1
:1001600081E061E00E94B10382E061E00E94B1039E
:100170006091000170910101882777FD8095982F8B
:100180000E942D0387E060E00E94B10386E060E0FA
:100190000E94B1038AE060E00E94B10381E060E068
:1001A0000E94B10382E060E00E94B103609100010F
:1001B00070910101882777FD8095982F0E942D036B
:1001C00087E061E00E94B10386E061E00E94B10334
:1001D0008AE061E00E94B10384E061E00E94B10323
:1001E00082E061E00E94B103609100017091010121
:1001F000882777FD8095982F0E942D0387E060E087
:100200000E94B10386E060E00E94B1038AE060E0F2
:100210000E94B10384E060E00E94B10382E060E0EC
:100220000E94B1036091000170910101882777FD60
:100230008095982F0E942D0389E061E00E94B10310
:1002400086E061E00E94B1038AE061E00E94B103B0
:1002500084E061E00E94B1036091000170910101AE
:10026000882777FD8095982F0E942D0389E060E014
:100270000E94B10386E060E00E94B1038AE060E082
:100280000E94B10384E060E00E94B103609100012C
:1002900070910101882777FD8095982F0E942D038A
:1002A00087E061E00E94B10389E061E00E94B10350
:1002B0008AE061E00E94B10384E061E00E94B10342
:1002C00082E061E00E94B103609100017091010140
:1002D000882777FD8095982F0E942D0387E060E0A6
:1002E0000E94B10389E060E00E94B1038AE060E00F
:1002F0000E94B10384E060E00E94B10382E060E00C
:100300000E94B1036091000170910101882777FD7F
:100310008095982F0E942D0381E061E00E94B10337
:1003200089E061E00E94B1038AE061E00E94B103CC
:1003300084E061E00E94B10382E061E00E94B103C9
:100340006091000170910101882777FD8095982FB9
:100350000E942D0381E060E00E94B10389E060E02B
:100360000E94B1038AE060E00E94B10384E060E093
:100370000E94B10382E060E00E94B103609100013D
:1003800070910101882777FD8095982F0E942D0399
:1003900087E061E00E94B10384E061E00E94B10364
:1003A00086E061E00E94B10360910001709101015B
:1003B000882777FD8095982F0E942D0387E060E0C5
:1003C0000E94B10384E060E00E94B10386E060E037
:1003D0000E94B1036091000170910101882777FDAF
:1003E0008095982F0E942D0381E061E00E94B10367
:1003F00089E061E00E94B10387E061E00E94B103FF
:1004000084E061E00E94B10386E061E00E94B103F4
:1004100082E061E00E94B1036091000170910101EE
:10042000882777FD8095982F0E942D0381E060E05A
:100430000E94B10389E060E00E94B10387E060E0C0
:100440000E94B10386E060E00E94B10384E060E0B6
:100450000E94B10382E060E00E94B103609100015C
:1004600070910101882777FD8095982F0E942D03B8
:100470008AE061E00E94B10389E061E00E94B1037B
:1004800087E061E00E94B10384E061E00E94B10373
:1004900086E061E00E94B10360910001709101016A
:1004A000882777FD8095982F0E942D038AE060E0D1
:1004B0000E94B10389E060E00E94B10387E060E040
:1004C0000E94B10386E060E00E94B10384E060E036
:1004D0000E94B1036091000170910101882777FDAE
:1004E0008095982F0E942D0381E061E00E94B10366
:1004F00089E061E00E94B10387E061E00E94B103FE
:1005000084E061E00E94B10386E061E00E94B103F3
:1005100082E061E00E94B10385E061E00E94B103E6
:100520006091000170910101882777FD8095982FD7
:100530000E942D0381E060E00E94B10389E060E049
:100540000E94B10387E060E00E94B10386E060E0B2
:100550000E94B10384E060E00E94B10382E060E0A9
:100560000E94B10385E060E00E94B1036091000148
:1005700070910101882777FD8095982F0E942D03A7
:1005800008950F931F93CF93DF9302E011E0C0E033
:10059000D0E008C0F801808161E00E9491032196BB
:1005A0000E5F1F4F8091120190911301C817D90758
:1005B0008CF3DF91CF911F910F9108950E94570303
:1005C0000E94C1020E948000FDCF1F920F920FB6C1
:1005D0000F9211242F933F938F939F93AF93BF93C9
:1005E0008091180190911901A0911A01B0911B01FD
:1005F00030911C010196A11DB11D232F2D5F2D37B8
:1006000020F02D570196A11DB11D20931C01809350
:10061000180190931901A0931A01B0931B018091C6
:10062000140190911501A0911601B0911701019646
:10063000A11DB11D8093140190931501A093160183
:10064000B0931701BF91AF919F918F913F912F91DF
:100650000F900FBE0F901F901895EF92FF920F937F
:100660001F937B018C018FB7F89440911801509132
:10067000190160911A0170911B018FBF2FB7F89477
:100680008091180190911901A0911A01B0911B015C
:100690002FBF841B950BA60BB70BE816F9060A07AC
:1006A0001B0760F71F910F91FF90EF9008957894CA
:1006B00084B5826084BD84B5816084BD85B5826067
:1006C00085BD85B5816085BDEEE6F0E08081816005
:1006D0008083E1E8F0E080818260808380818160B6
:1006E0008083E0E8F0E0808181608083E1EBF0E0EE
:1006F000808184608083E0EBF0E080818160808392
:10070000EAE7F0E08081846080838081826080837A
:100710008081816080838081806880831092C100A5
:100720000895282F30E0C90186569F4FFC0194910F
:100730002A573F4FF9018491882391F0E82FF0E088
:10074000EE0FFF1FE859FF4FA591B491662329F4DE
:100750008C91909589238C9308958C91892B8C93FF
:100760000895482F50E0CA0182559F4FFC01249103
:10077000CA0186569F4FFC0194914A575F4FFA0178
:1007800034913323D1F1222331F1233021F48091AC
:1007900080008F7705C0243031F4809180008F7DF8
:1007A0008093800018C0213019F484B58F7704C07D
:1007B000223021F484B58F7D84BD0DC0263021F414
:1007C0008091B0008F7705C0273029F48091B00068
:1007D0008F7D8093B000E32FF0E0EE0FFF1FEE5807
:1007E000FF4FA591B491662329F48C9190958923AC
:1007F0008C9308958C91892B8C930895F894FFCF56
:10080000E8030200070004000600050003000800DA
:0408100009000800D3
:00000001FF
